:020000040800F2
:1060000000FC002005C9000881C900080DCA00086D
:1060100079CA00087BCA00087DCA00080000000099
:106020000000000000000000000000007FCA00081F
:1060300081CA00080000000083CA000883CA000863
:1060400055C9000855C90008A1CA000855C900086B
:1060500055C9000855C90008F7CA0008FDCA00085C
:1060600003CB000809CB00080FCB0008ADCA00081D
:10607000B9CA0008C5CA0008D1CA000855C9000835
:1060800055C9000855C9000855C9000855C9000878
:1060900055C9000855C9000815CB000855C90008A6
:1060A00055C9000855C9000855C9000855C9000858
:1060B00055C9000855C9000855C9000855C9000848
:1060C000C1CB0008CDCB000855C9000855C9000850
:1060D000DDCA0008F5CA0008A9CB000855C90008A8
:1060E00055C9000855CB000889CA000855C90008E1
:1060F00055C9000855C9000855C9000855C9000808
:1061000055C9000855C9000895CA0008D9CB000830
:1061100055C9000855C9000855C9000855C90008E7
:1061200055C9000855C9000855C9000855C90008D7
:0861300055C9000855C900081B
:1061400010B5054C237833B9044B13B10448AFF3B1
:1061500000800123237010BD900E0020000000007D
:1061600068F8020808B5034B1BB103490348AFF3B5
:10617000008008BD00000000940E002068F80208AE
:1061800010F8012B11F8013B012A28BF9A42F7D0E1
:10619000D01A7047034613F8012B002AFBD1181AB6
:1061A00001387047000000000000000000000000FF
:1061B00001F0FF01102A2BDB10F0070F08D010F8B8
:1061C000013B013A8B422DD010F0070F42B3F6D1BC
:1061D000F0B441EA012141EA014122F007047FF0D5
:1061E00000070023F0E80256083C85EA010586EA2C
:1061F000010685FA47F5A3FA87F586FA47F6A5FA68
:1062000087F68EB9EED1F0BC01F0FF0102F0070273
:1062100032B110F8013B013A83EA010313B1F8D11E
:106220000020704701387047002D06BF35460338FF
:10623000073815F0010F07D1013015F4807F02BF38
:10624000013015F4C03F0130F0BC0138704700BF89
:1062500081F0004102E000BF83F0004330B54FEA17
:1062600041044FEA430594EA050F08BF90EA020F84
:106270001FBF54EA000C55EA020C7FEA645C7FEA17
:10628000655C00F0E2804FEA5454D4EB5555B8BF3A
:106290006D420CDD2C4480EA020281EA030382EAAB
:1062A000000083EA010180EA020281EA0303362D3D
:1062B00088BF30BD11F0004F4FEA01314FF4801C10
:1062C0004CEA113102D0404261EB410113F0004F22
:1062D0004FEA03334CEA133302D0524263EB4303D9
:1062E00094EA050F00F0A780A4F10104D5F1200E77
:1062F0000DDB02FA0EFC22FA05F2801841F10001D2
:1063000003FA0EF2801843FA05F359410EE0A5F1A5
:1063100020050EF1200E012A03FA0EFC28BF4CF0D6
:10632000020C43FA05F3C01851EBE37101F000458C
:1063300007D54FF0000EDCF1000C7EEB00006EEB99
:106340000101B1F5801F1BD3B1F5001F0CD3490823
:106350005FEA30004FEA3C0C04F101044FEA44527A
:1063600012F5800F80F09A80BCF1004F08BF5FEA01
:10637000500C50F1000041EB045141EA050130BDE1
:106380005FEA4C0C404141EB0101013C28BFB1F5F3
:10639000801FE9D291F0000F04BF01460020B1FA3E
:1063A00081F308BF2033A3F10B03B3F120020CDA11
:1063B0000C3208DD02F1140CC2F10C0201FA0CF0EF
:1063C00021FA02F10CE002F11402D8BFC2F1200C54
:1063D00001FA02F120FA0CFCDCBF41EA0C0190400A
:1063E000E41AA2BF01EB0451294330BD6FEA040453
:1063F0001F3C1CDA0C340EDC04F11404C4F120023E
:1064000020FA04F001FA02F340EA030021FA04F34F
:1064100045EA030130BDC4F10C04C4F1200220FAA6
:1064200002F001FA04F340EA0300294630BD21FAE4
:1064300004F0294630BD94F0000F83F4801306BFAA
:1064400081F480110134013D4EE77FEA645C18BF9E
:106450007FEA655C29D094EA050F08BF90EA020F35
:1064600005D054EA000C04BF1946104630BD91EA2D
:10647000030F1EBF0021002030BD5FEA545C05D130
:106480004000494128BF41F0004130BD14F580046F
:106490003CBF01F5801130BD01F0004545F0FE41E3
:1064A00041F470014FF0000030BD7FEA645C1ABF18
:1064B000194610467FEA655C1CBF0B46024650EA4F
:1064C000013406BF52EA033591EA030F41F400217B
:1064D00030BD00BF90F0000F04BF0021704730B501
:1064E0004FF4806404F132044FF000054FF00001D6
:1064F00050E700BF90F0000F04BF0021704730B597
:106500004FF4806404F1320410F0004548BF40426B
:106510004FF000013EE700BF42004FEAE2014FEAC0
:1065200031014FEA02701FBF12F07F4393F07F4F9B
:1065300081F06051704732F07F4208BF704793F09E
:106540007F4F04BF41F40021704730B54FF46074B1
:1065500001F0004521F000411CE700BF50EA0102B4
:1065600008BF704730B54FF000050AE050EA01025D
:1065700008BF704730B511F0004502D5404261EBCD
:1065800041014FF4806404F132045FEA915C3FF40E
:10659000D8AE4FF003025FEADC0C18BF03325FEAAB
:1065A000DC0C18BF033202EBDC02C2F1200300FA5C
:1065B00003FC20FA02F001FA03FE40EA0E0021FA81
:1065C00002F11444BDE600BF70B54FF0FF0C4CF46F
:1065D000E06C1CEA11541DBF1CEA135594EA0C0F21
:1065E00095EA0C0F00F0DEF82C4481EA030621EA5C
:1065F0004C5123EA4C5350EA013518BF52EA033597
:1066000041F4801143F4801338D0A0FB02CE4FF048
:106610000005E1FB02E506F00042E0FB03E54FF078
:106620000006E1FB03569CF0000F18BF4EF0010E70
:10663000A4F1FF04B6F5007F64F5407404D25FEA6C
:106640004E0E6D4146EB060642EAC62141EA55511F
:106650004FEAC52040EA5E504FEACE2EB4F1FD0C61
:1066600088BFBCF5E06F1ED8BEF1004F08BF5FEADF
:10667000500E50F1000041EB045170BD06F0004691
:1066800046EA010140EA020081EA0301B4EB5C043E
:10669000C2BFD4EB0C0541EA045170BD41F4801136
:1066A0004FF0000E013C00F3AB8014F1360FDEBF5B
:1066B000002001F0004170BDC4F10004203C35DA37
:1066C0000C341BDC04F11404C4F1200500FA05F3BA
:1066D00020FA04F001FA05F240EA020001F000425B
:1066E00021F0004110EBD37021FA04F642EB0601D1
:1066F0005EEA430E08BF20EAD37070BDC4F10C04FB
:10670000C4F1200500FA04F320FA05F001FA04F2BE
:1067100040EA020001F0004110EBD37041F10001AA
:106720005EEA430E08BF20EAD37070BDC4F12005B5
:1067300000FA05F24EEA020E20FA04F301FA05F21D
:1067400043EA020321FA04F001F0004121FA04F2C5
:1067500020EA020000EBD3705EEA430E08BF20EA95
:10676000D37070BD94F0000F0FD101F000464000CF
:1067700041EB010111F4801F08BF013CF7D041EA51
:10678000060195F0000F18BF704703F00046520055
:1067900043EB030313F4801F08BF013DF7D043EA26
:1067A0000603704794EA0C0F0CEA135518BF95EADC
:1067B0000C0F0CD050EA410618BF52EA4306D1D163
:1067C00081EA030101F000414FF0000070BD50EA82
:1067D000410606BF1046194652EA430619D094EA0C
:1067E0000C0F02D150EA013613D195EA0C0F05D1F6
:1067F00052EA03361CBF104619460AD181EA03014A
:1068000001F0004141F0FE4141F470014FF0000001
:1068100070BD41F0FE4141F4780170BD70B54FF09C
:10682000FF0C4CF4E06C1CEA11541DBF1CEA13551C
:1068300094EA0C0F95EA0C0F00F0A7F8A4EB0504FE
:1068400081EA030E52EA03354FEA013100F08880F5
:106850004FEA03334FF0805545EA131343EA1263BE
:106860004FEA022245EA111545EA10654FEA002673
:106870000EF000419D4208BF964244F1FD0404F52C
:10688000407402D25B084FEA3202B61A65EB030588
:106890005B084FEA32024FF480104FF4002CB6EB45
:1068A000020E75EB030E22BFB61A754640EA0C00C5
:1068B0005B084FEA3202B6EB020E75EB030E22BF05
:1068C000B61A754640EA5C005B084FEA3202B6EB46
:1068D000020E75EB030E22BFB61A754640EA9C0005
:1068E0005B084FEA3202B6EB020E75EB030E22BFD5
:1068F000B61A754640EADC0055EA060E18D04FEA93
:10690000051545EA16754FEA06164FEAC30343EA32
:1069100052734FEAC2025FEA1C1CC0D111F4801FFF
:106920000BD141EA00014FF000004FF0004CB6E7F8
:1069300011F4801F04BF01430020B4F1FD0C88BF97
:10694000BCF5E06F3FF6AFAEB5EB030C04BFB6EBA2
:10695000020C5FEA500C50F1000041EB045170BD95
:106960000EF0004E4EEA113114EB5C04C2BFD4EBC2
:106970000C0541EA045170BD41F480114FF0000E46
:10698000013C90E645EA060E8DE60CEA135594EAC2
:106990000C0F08BF95EA0C0F3FF43BAF94EA0C0FC5
:1069A0000AD150EA01347FF434AF95EA0C0F7FF43A
:1069B00025AF104619462CE795EA0C0F06D152EA8E
:1069C00003353FF4FDAE1046194622E750EA410672
:1069D00018BF52EA43067FF4C5AE50EA41047FF483
:1069E0000DAF52EA43057FF4EBAE12E74FF0FF3CE8
:1069F00006E000BF4FF0010C02E000BF4FF0010CB9
:106A00004DF804CD4FEA410C7FEA6C5C4FEA430C31
:106A100018BF7FEA6C5C1BD001B050EA410C0CBF80
:106A200052EA430C91EA030F02BF90EA020F0020E2
:106A3000704710F1000F91EA030F58BF994208BF49
:106A400090422CBFD8176FEAE37040F00100704706
:106A50004FEA410C7FEA6C5C02D150EA013C07D15D
:106A60004FEA430C7FEA6C5CD6D152EA033CD3D0A8
:106A70005DF8040B704700BF8446104662468C46A2
:106A80001946634600E000BF01B5FFF7B7FF0028D5
:106A900048BF10F1000F01BD4DF808EDFFF7F4FFFE
:106AA0000CBF012000205DF808FB00BF4DF808ED89
:106AB000FFF7EAFF34BF012000205DF808FB00BFAC
:106AC0004DF808EDFFF7E0FF94BF012000205DF8CE
:106AD00008FB00BF4DF808EDFFF7CEFF94BF012083
:106AE00000205DF808FB00BF4DF808EDFFF7C4FF7C
:106AF00034BF012000205DF808FB00BF4FEA410CC5
:106B00007FEA6C5C02D150EA013C0AD14FEA430CA7
:106B10007FEA6C5C02D152EA033C02D14FF00000E4
:106B200070474FF0010070474FEA410212F5001222
:106B300015D211D56FF47873B3EB625212D94FEAC4
:106B4000C12343F0004343EA505311F0004F23FAAE
:106B500002F018BF404270474FF00000704750EA03
:106B6000013005D111F0004008BF6FF000407047C0
:106B70004FF00000704700BF4A0011D212F500121A
:106B800011D20DD56FF47873B3EB62520ED44FEA85
:106B9000C12343F0004343EA505323FA02F0704705
:106BA0004FF00000704750EA013002D14FF0FF3043
:106BB00070474FF00000704780F0004002E000BFD7
:106BC00081F0004142001FBF5FEA410392EA030FD8
:106BD0007FEA226C7FEA236C6AD04FEA1262D2EB22
:106BE0001363C1BFD218414048404140B8BF5B4227
:106BF000192B88BF704710F0004F40F4000020F0C0
:106C00007F4018BF404211F0004F41F4000121F0D5
:106C10007F4118BF494292EA030F3FD0A2F101021F
:106C200041FA03FC10EB0C00C3F1200301FA03F15D
:106C300000F0004302D5494260EB4000B0F5000F80
:106C400013D3B0F1807F06D340084FEA310102F13F
:106C50000102FE2A51D2B1F1004F40EBC25008BFF1
:106C600020F0010040EA03007047490040EB0000BB
:106C7000013A28BFB0F5000FEDD2B0FA80FCACF1BC
:106C8000080CB2EB0C0200FA0CF0AABF00EBC250E9
:106C900052421843BCBFD0401843704792F0000FD7
:106CA00081F4000106BF80F400000132013BB5E72A
:106CB0004FEA41037FEA226C18BF7FEA236C21D0A0
:106CC00092EA030F04D092F0000F08BF0846704705
:106CD00090EA010F1CBF0020704712F07F4F04D1D3
:106CE000400028BF40F00040704712F100723CBFE6
:106CF00000F50000704700F0004343F0FE4040F410
:106D0000000070477FEA226216BF08467FEA2363CD
:106D10000146420206BF5FEA412390EA010F40F4B8
:106D2000800070474FF0000304E000BF10F0004304
:106D300048BF40425FEA000C08BF704743F09643EB
:106D400001464FF000001CE050EA010208BF704706
:106D50004FF000030AE000BF50EA010208BF70478D
:106D600011F0004302D5404261EB41015FEA010CA2
:106D700002BF84460146002043F0B64308BFA3F19A
:106D80008053A3F50003BCFA8CF2083AA3EBC2537C
:106D900010DB01FA02FC634400FA02FCC2F120029B
:106DA000BCF1004F20FA02F243EB020008BF20F0D2
:106DB0000100704702F1200201FA02FCC2F1200238
:106DC00050EA4C0021FA02F243EB020008BF20EA2D
:106DD000DC7070474FF0FF0C1CEAD0521EBF1CEA5B
:106DE000D15392EA0C0F93EA0C0F6FD01A4480EA49
:106DF000010C400218BF5FEA41211ED04FF0006332
:106E000043EA501043EA5111A0FB01310CF000405D
:106E1000B1F5000F3EBF490041EAD3715B0040EA83
:106E2000010062F17F02FD2A1DD8B3F1004F40EB53
:106E3000C25008BF20F00100704790F0000F0CF026
:106E4000004C08BF49024CEA502040EA51207F3AEA
:106E5000C2BFD2F1FF0340EAC250704740F40000C5
:106E60004FF00003013A5DDC12F1190FDCBF00F0B6
:106E700000407047C2F10002410021FA02F1C2F164
:106E8000200200FA02FC5FEA310040F1000053EA00
:106E90004C0308BF20EADC70704792F0000F00F04E
:106EA000004C02BF400010F4000F013AF9D040EA54
:106EB0000C0093F0000F01F0004C02BF490011F4E8
:106EC000000F013BF9D041EA0C018FE70CEAD153E6
:106ED00092EA0C0F18BF93EA0C0F0AD030F0004C66
:106EE00018BF31F0004CD8D180EA010000F000401A
:106EF000704790F0000F17BF90F0004F084691F0D8
:106F0000000F91F0004F14D092EA0C0F01D1420211
:106F10000FD193EA0C0F03D14B0218BF084608D1DA
:106F200080EA010000F0004040F0FE4040F4000024
:106F3000704740F0FE4040F4400070474FF0FF0CB7
:106F40001CEAD0521EBF1CEAD15392EA0C0F93EAFE
:106F50000C0F69D0A2EB030280EA010C49024FEA50
:106F6000402037D04FF0805343EA111143EA101309
:106F70000CF000408B4238BF5B0042F17D024FF4C1
:106F8000000C8B4224BF5B1A40EA0C00B3EB510F9C
:106F900024BFA3EB510340EA5C00B3EB910F24BF85
:106FA000A3EB910340EA9C00B3EBD10F24BFA3EB0A
:106FB000D10340EADC001B0118BF5FEA1C1CE0D1D2
:106FC000FD2A3FF650AF8B4240EBC25008BF20F085
:106FD000010070470CF0004C4CEA50207F32C2BFD9
:106FE000D2F1FF0340EAC250704740F400004FF076
:106FF0000003013A37E792F0000F00F0004C02BFA7
:10700000400010F4000F013AF9D040EA0C0093F070
:10701000000F01F0004C02BF490011F4000F013BCA
:10702000F9D041EA0C0195E70CEAD15392EA0C0F32
:1070300008D142027FF47DAF93EA0C0F7FF470AF6A
:10704000084676E793EA0C0F04D14B023FF44CAFAD
:1070500008466EE730F0004C18BF31F0004CCAD142
:1070600030F000427FF45CAF31F000437FF43CAF7E
:107070005FE700BF4FF0FF3C06E000BF4FF0010CA0
:1070800002E000BF4FF0010C4DF804CD4FEA400282
:107090004FEA41037FEA226C18BF7FEA236C11D0CC
:1070A00001B052EA530C18BF90EA010F58BFB2EB7F
:1070B000030088BFC81738BF6FEAE17018BF40F0FF
:1070C000010070477FEA226C02D15FEA402C05D1B3
:1070D0007FEA236CE4D15FEA412CE1D05DF8040B38
:1070E000704700BF844608466146FFE70FB5FFF7CB
:1070F000C9FF002848BF10F1000F0FBD4DF808ED83
:10710000FFF7F4FF0CBF012000205DF808FB00BF73
:107110004DF808EDFFF7EAFF34BF012000205DF8CD
:1071200008FB00BF4DF808EDFFF7E0FF94BF01201A
:1071300000205DF808FB00BF4DF808EDFFF7D2FF17
:1071400094BF012000205DF808FB00BF4DF808ED5A
:10715000FFF7C8FF34BF012000205DF808FB00BF27
:1071600053B94AB9002908BF00281CBF4FF0FF31AE
:107170004FF0FF3000F06CB9ADF1080C6DE904CEB2
:1071800000F006F8DDF804E0DDE9022304B0704702
:107190002DE9F047089E0D4604468E46002B40F030
:1071A00082808A42174646D9B2FA82F24AB1C2F1C7
:1071B000200105FA02F320FA01F1974041EA030E9B
:1071C00094404FEA1748230CBEFBF8FCB9B208FB09
:1071D0001CEE43EA0E430CFB01F098420AD9FB185F
:1071E0000CF1FF3580F01681984240F21381ACF12A
:1071F000020C3B441B1AA4B2B3FBF8F008FB10339B
:1072000044EA034400FB01F1A14209D93C1900F111
:10721000FF3380F00181A14240F2FE8002383C44FD
:10722000641A40EA0C4000211EB1D4400023C6E994
:107230000043BDE8F08702B9FFDEB2FA82F2002A0D
:107240004FD1CB1B4FEA174E1FFA87F80121B3FB32
:10725000FEFC250C0EFB1C3345EA034508FB0CF332
:10726000AB4207D97D190CF1FF3002D2AB4200F2DC
:10727000E7808446ED1AA3B2B5FBFEF00EFB105575
:1072800043EA054408FB00F8A04507D93C1900F182
:10729000FF3302D2A04500F2D7801846A4EB0804C1
:1072A00040EA0C40C0E78B4208D9002E00F0AF80C6
:1072B0000021C6E900050846BDE8F087B3FA83F16E
:1072C00000294BD1AB4202D3824200F2B780841A2C
:1072D00065EB030301209E46002EAAD0C6E9004EAE
:1072E000A7E7C2F1200C01FA02F3974020FA0CF054
:1072F0004FEA174E21FA0CFC1843BCFBFEF1050CBB
:107300000EFB11CC1FFA87F845EA0C4501FB08F388
:10731000AB4204FA02F409D97D1901F1FF3C80F077
:107320008B80AB4240F2888002393D44EB1A85B233
:10733000B3FBFEF00EFB103345EA034500FB08F3F8
:10734000AB4207D97D1900F1FF3C71D2AB426FD936
:1073500002383D44EB1A40EA014178E7C1F1200CC4
:107360008B4022FA0CF71F4320FA0CF405FA01F3C4
:107370004FEA174E25FA0CF51C43230CB5FBFEF91A
:107380001FFA87F80EFB195543EA054509FB08FA71
:10739000AA4502FA01F200FA01F308D97D1909F1B0
:1073A000FF3047D2AA4545D9A9F102093D44A5EBD2
:1073B0000A05A4B2B5FBFEF00EFB105544EA0544E5
:1073C00000FB08F8A04507D93C1900F1FF352DD284
:1073D000A0452BD902383C4440EA0940A4EB0804FC
:1073E000A0FB02894C45C6464D4619D316D05EB166
:1073F000B3EB0E0264EB050404FA0CFCCA404CEA41
:107400000202CC40C6E900240021BDE8F0873146E5
:1074100030460EE7AC46EDE6184601E74345E6D2B6
:10742000B8EB020E69EB07050138E0E72846D3E721
:1074300060468FE78146BAE7614677E708464BE743
:10744000ACF1020C3D4415E702383C4426E700BF8E
:10745000704700BF0020704738B590F833300446BD
:107460000D4613B1406B07F0B7FB94F83010606B1A
:1074700007F0CAFB606B802100F02DF8606B036899
:1074800029461B689847606B0121BDE8384007F02A
:10749000C7BB000010B5034B0360044602F0C0F800
:1074A000204610BDDCF9020810B50446406B07F019
:1074B00093FB606B024907F0A3FB012010BD00BFE6
:1074C000801A060010B50446FFF7E4FF204605F0D9
:1074D000FDF9204610BD0368C9B21B6818472DE9A5
:1074E000F84F90F83330044613B1406B07F074FB4B
:1074F000658AC5F180054FF0000A05EBD575FF27B9
:107500006D10D146D0463E46A38A5FFA8AF1B1EBB0
:10751000D30F28DA4FF0000C638A5FFA8CF09842A0
:107520001CDA11FB03F30344A2689BB212F803E0D8
:10753000E26812F803B0F3450BD08E4228BF0E4626
:10754000884538BF8846874228BF0746814538BFEF
:10755000814602F803E00CF1010CDDE707F007FAC1
:107560000AF1010AD0E7FF2E57D0236821219B6939
:1075700020469847236857FA85F19B69C9B220468F
:1075800098475FFA85FA23680AEB09019B69C9B23B
:1075900020469847236822219B6920469847236804
:1075A00031469B6920469847236841469B6920469F
:1075B00098470025B04529D3BA46CA4521D845B9D0
:1075C00094F83010606B07F01FFB606B4021FFF7F1
:1075D00082FFA268606B638A06FB0323026813F8CC
:1075E0000A1012680135EDB29047102D04D1606B7E
:1075F000012107F015FB00250AF1010A5FFA8AFA5A
:10760000DBE7013607F0B3F9F6B2D3E72DB1606BD3
:107610000121BDE8F84F07F003BBBDE8F88F00007B
:1076200038B51548154C07F0D7FA4FF4FA7011F039
:1076300079F80125204684F8335002F07FFB20467C
:1076400002F04CFA204602F0ADFA204602F042FA6F
:107650002046C82102F07CFA4023F1222046642112
:1076600002F040FA0649204602F032FA2046FFF7BF
:1076700036FF284638BD00BF141F0020B00E002082
:10768000FCF9020870B51A4C1A4986B00646204625
:1076900002F01EFA2046002101F0CCFF0B2500224B
:1076A000114680232046009502F0DDF82046012196
:1076B00001F0C0FF2046002102F008FA314603A87D
:1076C00007F0E2F9002203AB1146204602F072FBFC
:1076D00003A807F093F980232A460021204600954D
:1076E00001F0DFFF2046FFF7FAFE06B070BD00BFD5
:1076F000B00E0020FCF9020813B5094C0021204609
:1077000001F098FF402300930C22802300212046A3
:1077100002F0A9F8034B00221A7002B010BD00BF9E
:10772000B00E0020AC0E002030B585B004460D46EA
:1077300001A8114607F0C9F904EB840252000C328B
:1077400001AB12B22946044802F034FB01A807F04D
:1077500055F905B030BD00BFB00E002008B5024895
:10776000FFF7BDFE08BD00BFB00E002010B50E4CE7
:10777000204601F0D9FE0D4B236000231A4619461E
:10778000204684F8333002F021FA40F63C33238659
:107790000C2384F83230064B63632046054A0649C1
:1077A000BDE8104002F0C6BEB00E0020DCF90208B1
:1077B000141F002000000020957400080000000045
:1077C0002DE9F04F604D2B7887B004467BB1FFF771
:1077D00093FF5E4807F086F8FEF79EFE02460B46D2
:1077E0005B485C4903F018FC5948FFF74BFF54B95C
:1077F00059495A4807F070FA0021084607F0B9FACB
:1078000007B0BDE8F08F2478012C40F08781544AFE
:107810002B7892F80880534F534E544DB8F1010F16
:1078200040F0BC80524C002B79D05249484803F0BC
:1078300013FC474903A807F027F90021084603AACB
:10784000FFF772FF03A807F0D9F83A684A494048A1
:1078500003F0E2FB3E4903A807F016F903AA002152
:107860004046FFF761FF03A807F0C8F8434B4449BF
:107870001A68374803F0D0FB354903A807F004F92C
:1078800003AA40214046FFF74FFF03A807F0B6F8D0
:1078900022783C492E4803F0BFFB2D4903A807F08E
:1078A000F3F803AA00210220FFF73EFF03A807F028
:1078B000A5F832883449264812B203F0ADFB2449BA
:1078C00003A807F0E1F803AA00210320FFF72CFF2B
:1078D00003A807F093F82A782C491D4852B203F008
:1078E0009BFB1B4903A807F0CFF803AA4021032004
:1078F000FFF71AFF03A807F081F82549144803F0A1
:10790000ABFB134903A807F0BFF803AA002104202A
:10791000FFF70AFF03A807F071F8FFF71FFF1549EB
:107920000E4807F0D9F93A68338829780B4849B2EC
:1079300000911BB2174907F0D9F922781649074878
:1079400007F0D4F958E700BFE90E0020D11E00204F
:10795000EF0E0020AB040308C60403081C1E002021
:1079600008000020F80F0020EC0E0020EE0E002092
:10797000EA0E0020D3040308E0040308F40F0020FB
:10798000E8040308F0040308F804030800050308EA
:1079900008050308130503082F050308002B00F052
:1079A0008D809949994803F057FB984903A807F03F
:1079B0006BF80021084603AAFFF7B6FE03A807F0FC
:1079C0001DF83A689249914803F026FB8F4903A8B5
:1079D00007F05AF803AA00212046FFF7A5FE03A8E6
:1079E00007F00CF88B4806F090FDFEF773FD84A3BA
:1079F000D3E90023FEF712FF0B460246864983486F
:107A000003F00AFB814903A807F03EF803AA00210E
:107A10000220FFF789FE03A806F0F0FF7F4806F07A
:107A200076FD7F490246794803F0F6FA774903A8C4
:107A300007F02AF803AA00210320FFF775FE03A828
:107A400006F0DCFF774806F064FD7D2200FB022291
:107A500075496E4803F0E0FA6C4903A807F014F882
:107A600003AA40210320FFF75FFE03A806F0C6FF2C
:107A700032886E49654812B203F0CEFA634903A812
:107A800007F002F803AA00210420FFF74DFE03A827
:107A900006F0B4FF2A7866495C4852B203F0BCFA9B
:107AA0005A4903A806F0F0FF03AA40210420FFF77B
:107AB0003BFE03A806F0A2FFFFF750FE5D495E48BB
:107AC00007F00AF93A68338829785B4849B21BB253
:107AD00000915A4907F00AF94E4806F016FD06468D
:107AE0004E4806F014FD04464E4806F012FD0546C9
:107AF0003046FFF717F9FEF70FFD41A3D3E9002346
:107B0000FEF78CFE7D2305FB0333CDE900430246DF
:107B10000B4649484A4907F0E9F86DE6022C40F067
:107B2000F5800121084607F024F92B78454FDFF84E
:107B30003481454E002B44D04449344803F08CFA3C
:107B4000324903A806F0A0FF0021084603AAFFF768
:107B5000EBFD03A806F052FF3A683D492B4803F0BD
:107B60005BFA2A4903A806F08FFF03AA002101202F
:107B7000FFF7DAFD03A806F041FF3A683549D8F867
:107B80000030224803F048FA204903A806F07CFFA1
:107B900003AA40210120FFF7C7FD03A806F02EFF2E
:107BA00032682D49194803F037FA184903A806F03E
:107BB0006BFF204603AA0021FFF7B6FD03A806F0DD
:107BC0001DFF22491C4807F087F83A6823491A48E4
:107BD00007F08CF832682249174807F087F83368B5
:107BE000013B0F2B00F29080DFE803F03E707274CF
:107BF00076787A7C7E80828486888A8CAFF3008057
:107C00000000000080842E4136050308EF0E00209E
:107C100044050308071F002058050308081F00201B
:107C20005F050308091F002065050308F804030821
:107C30006B050308720503081C1E002013050308CA
:107C40007F050308F80F0020FC0F0020D304030871
:107C5000E0040308E804030893050308AC050308DF
:107C6000B7050308F40F00204849494803F0F4F928
:107C7000474A4849484807F039F8D8F800204749AA
:107C8000454807F033F82B78002B3FF4B5AD404959
:107C900003A806F0F9FE03AA00210320FFF744FD24
:107CA00003A806F0ABFE3E49394803F0D5F9384940
:107CB00003A806F0E9FE03AA00210420FFF734FD23
:107CC00003A806F09BFEFFF749FD95E53549CCE793
:107CD0003549CAE73549C8E73549C6E73549C4E7F4
:107CE0003549C2E73549C0E73549BEE73549BCE704
:107CF0003549BAE73549B8E73549B6E73549B4E714
:107D00003549B2E73549B0E73549AEE7032C6DD1C7
:107D10002B78002B3FF470AD32491D4803F09CF9DD
:107D20001B4903A806F0B0FE002103AA0846FFF78E
:107D3000FBFC03A806F062FE2B4903A806F0A4FE94
:107D400003AA00210120FFF7EFFC03A806F056FE6E
:107D5000254903A806F098FE03AA00210220FFF798
:107D6000E3FC03A806F04AFE1349094803F074F93E
:107D7000074903A806F088FE002103AA2046FFF762
:107D8000D3FC03A806F03AFE174991E7D105030892
:107D9000EF0E0020AB2003081C1E0020B9060308CC
:107DA00008050308DF050308EA050308F6050308CC
:107DB000020603080C060308160603082206030839
:107DC0003606030849060308590603086606030831
:107DD00070060308800603088E0603089A06030847
:107DE000AB060308CA060308D3060308042C7FF475
:107DF00003AD2B789A4EDFF800A3DFF80093994D7E
:107E0000994F002B00F0A080984B2978984A994808
:107E1000DFF8ECB2002918BF1A46974903F0FCF8C6
:107E2000944903A806F030FE002103AA0846FFF794
:107E30007BFC03A806F0E2FD2A7802F0FF08002A86
:107E400040F0A0803A788D498A4803F0E5F88949E6
:107E500003A806F019FE03AA41460120FFF764FCBF
:107E600003A806F0CBFD32688549824803F0D4F8B8
:107E7000804903A806F008FE03AA41460220FFF746
:107E800053FC03A806F0BAFDDBF800207D497948D1
:107E900003F0C2F8774903A806F0F6FD03AA4021D3
:107EA0000220FFF741FC03A806F0A8FD764B7749B6
:107EB0001A78704803F0B0F86E4903A806F0E4FDA4
:107EC00003AA41460320FFF72FFC03A806F096FD06
:107ED0006F4806F016FC6F490246664803F09CF8AE
:107EE000644903A806F0D0FD03AA40210320FFF750
:107EF0001BFC03A806F082FDBAF8002066495D4825
:107F000012B203F089F85B4903A806F0BDFD03AA8D
:107F100041462046FFF708FC03A806F06FFD99F8DC
:107F200000205E49534852B203F076F8514903A845
:107F300006F0AAFD03AA40212046FFF7F5FB03A89F
:107F400006F05CFDFFF70AFC2978484B484A544884
:107F5000002918BF1A46534906F0C8FE3268BAF81D
:107F6000003099F800104E4849B200911BB24E49BA
:107F700006F0BCFE444B4D491A7849483B7806F060
:107F8000B5FE39E432683E493A4803F045F83949CC
:107F900003A806F079FD03AA00210120FFF7C4FB26
:107FA00003A806F02BFDDBF800203649314803F02A
:107FB00033F8304903A806F067FD03AA40210120E9
:107FC000FFF7B2FB03A806F019FD2A7838492948C3
:107FD00003F022F8274903A806F056FD03AA002162
:107FE0000220FFF7A1FB03A806F008FD2B78013B58
:107FF0000F2B33D8DFE803F0081416181A1C1E20C4
:10800000222426282A2C2E302A491A4803F024F844
:10801000184903A806F038FD03AA002103208CE7C5
:108020002549F2E72549F0E72549EEE72549ECE740
:108030002549EAE72549E8E72549E6E72549E4E750
:108040002549E2E72549E0E72549DEE72549DCE760
:108050002549DAE72549D8E72549D6E72549D4E770
:10806000F80F0020F10F0020EF0F0020A7040308F5
:10807000A8040308EF0E0020E7060308F80603082B
:10808000E0040308E8040308F00F00200B070308CE
:10809000E71E002014070308F80403086B05030813
:1080A0001C1E00202F070308130503083D070308C3
:1080B0001A070308D1050308DF050308EA050308CA
:1080C000F6050308020603080C0603081606030853
:1080D0002206030836060308490603085906030862
:1080E0006606030870060308800603088E06030868
:1080F0009A060308AB060308EC0E0020EE0E0020E3
:10810000F40F00201FB504AB03E907000121002094
:1081100006F02FFE0A4BBDF90A201A80094B9DF983
:108120000C201A70084A0948136801331360084B81
:108130000121FA22197005B05DF804EB06F005BCC8
:10814000EC0E0020EE0E0020F80F0020D51E0020BF
:10815000E80E00200E4B90F906201A700D4BB0F976
:1081600004201A800C4A037813700C4A417811706D
:108170000B4A817811701BB10A4A136801331360EE
:10818000094B0A4804221A700121FA2206F0DDBBCD
:10819000EE0E0020EC0E0020F10F0020EF0F00206B
:1081A000F00F0020F40F0020E80E0020D51E002064
:1081B0001FB51E4806F0A3FA1D4A1E4930B31E48DB
:1081C00006F094FD1D491C4806F090FD1C491A4814
:1081D00006F08CFD642010F0A5FA1A4B03931A4B9D
:1081E0001B785BB101230421CDE9003103AA0223EE
:1081F000164806F0EBF905B05DF804FB01230822F0
:10820000CDE900320421022303AAF1E70A4806F06F
:108210006DFD0F49084806F069FD0949064806F05A
:1082200065FD642010F07EFAE5E700BFE31E002044
:10823000560703085A0703081C1E0020600703089E
:10824000C52803080102030405000020D81E0020F1
:108250006C07030838B1044B044803221A7001214B
:10826000FA2206F072BB7047E80E0020D51E0020EF
:1082700010B501210446002006F07BFD0D4BB4F93A
:108280000A201A800C4B94F90C201A700B4B627860
:108290001A700B4A1368013313600A4B1B7843B9F9
:1082A000094B0A4801211970BDE81040FA2206F076
:1082B0004CBB10BDEC0E0020EE0E0020EA0E00209C
:1082C000F80F002005000020E80E0020D51E002039
:1082D00010B5044618B3124A1249134806F006FDB9
:1082E00000221249104806F001FD11490E4806F01F
:1082F000FDFC642010F016FA0E4B1C600E4B1B7830
:108300006BB90E4A0E481368013313600D4B0222FD
:108310001A70BDE81040FA22012106F016BB10BD0C
:10832000560703085A0703081C1E00208A07030883
:10833000C5280308FC0F002005000020F40F0020D2
:10834000D51E0020E80E0020014806F0EABC00BF60
:108350006C1E002037B5254A2549264806F0C6FC84
:108360002549244806F0C2FC2449224806F0BEFCF8
:10837000642010F0D7F9224B224800251D70224BB3
:1083800001241C7006F0DFF92049214806F043F96A
:1083900020491F4806F04FF91F491D4806F043F9D0
:1083A00021461E4806F095F929461D4806F0B8F901
:1083B0003223009316480A232246214606F0EBF8A2
:1083C00090B90A4A0A490B4806F090FC1549094839
:1083D00006F08CFC0949074806F088FC642003B0CD
:1083E000BDE8304010F09EB903B030BD5607030819
:1083F0005A0703081C1E002099070308C528030814
:1084000005000020FB1E00200400002071820008EF
:10841000D81E0020D182000855820008E01E0020EE
:10842000FA1E0020A807030813B5274A2749284841
:1084300006F05CFC2749264806F058FC26492448EB
:1084400006F054FC642010F06DF9244B24480124FC
:108450001C70244B1C7006F076F92349234806F063
:10846000DAF82349214806F0E6F822491F4806F0C9
:10847000DAF821491D4806F0E6F800211F4806F009
:1084800028F902211E4806F04BF9322300931748C1
:108490000A232246214606F07EF890B90A4A0B4983
:1084A0000B4806F023FC1749094806F01FFC0A494F
:1084B000074806F01BFC642002B0BDE8104010F035
:1084C00031B902B010BD00BF560703085A070308B0
:1084D0001C1E0020BD070308C52803080500002056
:1084E000FB1E00200400002071820008D81E00201E
:1084F000D18200085582000855810008E01E002046
:10850000FA1E0020A807030807B5304A3049314851
:1085100006F0ECFB30492F4806F0E8FB2F492D48C8
:1085200006F0E4FB642010F0FDF82D4B2D480022EE
:108530001A703223009311460A2306F02CF878B9FA
:10854000224A2349234806F0D1FB2749214806F057
:10855000CDFB22491F4806F0C9FB642010F0E2F869
:108560002248002105F0DDFF78B9184A184919485A
:1085700006F0BCFB1E49174806F0B8FB1749154822
:1085800006F0B4FB642010F0CDF81A4805F0DCFFCB
:1085900078B90E4A0E490F4806F0A8FB16490D4857
:1085A00006F0A4FB0D490B4806F0A0FB642010F078
:1085B000B9F812490D4805F0D4FF0C484FF6FD718B
:1085C00003B05DF804EB05F0ACBF00BF560703082D
:1085D0005A0703081C1E0020D2070308C5280308F9
:1085E00004000020D81E0020E1070308FC1E002024
:1085F000F5070308121F00200B0803080581000877
:108600002DE9F047012186B0002006F09BFB0121F7
:10861000084606F097FB9548954C022306224FF436
:10862000E13105F00BFF01220092002391499248AD
:1086300002F0F2FC904903A806F026FA03A98F483D
:1086400006F02EF903A806F0D9F98D4806F0C4FA11
:10865000FEF7E6FF207068B18A4806F043F9FDF79F
:108660005BFF02460B468448874902F0D5FC8248EE
:10867000FFF708F80121002006F07BFB06F085FBE0
:108680007A4F06464FF0000A384605F0BDFE054613
:10869000C8B906F07AFB41F28732B0EB06086AEB04
:1086A0004A090023424573EB09030CDB642010F0F8
:1086B00039F8284606F062FBB0FA80F149092846ED
:1086C00006F057FBE0E70021084606F052FB0021C8
:1086D000012006F04EFB23787BB96C4A6C49634855
:1086E00006F004FB6B49614806F000FB6A495F48ED
:1086F00006F0FCFA642010F015F800F005FC78B9DB
:10870000624A6349594806F0F1FA6449574806F04D
:10871000EDFA6149554806F0E9FA642010F002F8D4
:1087200000F0C6FB78B9594A5949504806F0DEFABC
:108730005B494E4806F0DAFA57494C4806F0D6FA3B
:1087400064200FF0EFFF00F0C9FB78B94F4A5049A1
:10875000464806F0CBFA5349444806F0C7FA4E495A
:10876000424806F0C3FA64200FF0DCFF00F0C8FDB9
:1087700078B9464A46493D4806F0B8FA4A493B4866
:1087800006F0B4FA4449394806F0B0FA64200FF014
:10879000C9FF464D2A7A012A62D0022A63D03AB331
:1087A0004349324806F098FA23780BB341493248DE
:1087B00002F052FC304903A806F066F9002103AA32
:1087C0000846FEF7B1FF03A806F018F93A492A480F
:1087D00002F042FC284903A806F056F903AA00213A
:1087E0000120FEF7A1FF03A806F008F9FEF7B6FF87
:1087F000FFF71AFE314C227862B1314A3148012329
:10880000002106F098F86A6822B100232D48194625
:1088100006F09BF800232C4A2A48012106F08BF829
:10882000237833B1294805F06AFF10B9284805F0CC
:10883000A1FE164A16490D4806F058FA25490B487C
:1088400006F054FA1449094806F050FA64200FF073
:1088500069FF0121204806F06CFA06B0BDE8F087F8
:10886000FFF778FDC6E7FFF74FFEC3E71C1E0020A9
:10887000E90E002022080308EF0E00207C1E0020D5
:10888000141F0020D11E0020AB0403085607030864
:108890005A07030838080308C528030846080308D0
:1088A0006D0803089B080308C5080308080000209A
:1088B000EA0803080B0903081D0903080400002047
:1088C000B1810008D51E0020C1770008E31E0020FA
:1088D000D81E00202D0903086D1E002010B598B089
:1088E0001446A8490EA806F0CFF80023CDE91433AA
:1088F000CDE91633636E012B06D1A3492068FDF73D
:108900003FFC18B102241EE2002BFBD19F49A04876
:10891000A04C06F0EBF9A0499D4806F0E7F9642069
:108920000FF000FF9D4B227A9D4953F82220984872
:1089300006F0DCF99849964806F0D8F964200FF063
:10894000F1FE984911A805F0B5FF11A90EA806F08F
:10895000ADF811A806F052F80EA806F0E9F80E9A44
:1089600091498B4806F0C2F98B49894806F0BEF957
:1089700064200FF0D7FE8D4911A805F07BFF119AF6
:108980008B49834806F0B2F911A806F037F88249FE
:108990007F4806F0ABF964200FF0C4FE4FF47A7301
:1089A00062688449B2FBF3F2794806F09FF97A498C
:1089B000774806F09BF964200FF0B4FE7E4805F07E
:1089C000BEFE7E4B7E4953F820200446704806F0D8
:1089D0008DF971496E4806F089F964200FF0A2FE06
:1089E000012C40F0B681774805F089FE764B774A36
:1089F0007749002808BF1A46654806F077F96649A6
:108A0000634806F073F964200FF08CFE714805F09E
:108A10007BFE7149024604465D4806F067F95E49EF
:108A20005B4806F063F964200FF07CFE6B4B6C49E9
:108A300053F82420564806F059F95749544806F08F
:108A400055F964200FF06EFE664805F051FE0446AD
:108A5000002800F0D78064494D4806F047F94E4998
:108A60004B4806F043F964200FF05CFE082214A97D
:108A70005E4805F01CFE9DF8573005939DF8563072
:108A800004939DF8553003939DF8543002939DF85C
:108A9000533001939DF852309DF850205449009373
:108AA0003B489DF8513006F021F93B49384806F023
:108AB0001DF964200FF036FE082214A94D4805F078
:108AC000CAFD9DF8573005939DF8563004939DF8E4
:108AD000553003939DF8543002939DF85330019321
:108AE0009DF852309DF850204349009328489DF846
:108AF000513006F0FBF82849254806F0F7F86420C5
:108B00000FF010FE102214A93C4805F0ADFD9DF8B1
:108B10005F300D939DF85E300C939DF85D300B93A4
:108B20009DF85C300A939DF85B3009939DF85A30AC
:108B300008939DF8593007939DF8583006939DF897
:108B4000573005939DF8563004939DF855300393A4
:108B50009DF8543002939DF8533001939DF85230A4
:108B600000939DF850209DF851302549084806F0A3
:108B7000BDF80949064806F0B9F864200FF0D2FDA7
:108B80000024E0E0C6280308324803084609030829
:108B90001C1E002008000020C428030850000020EC
:108BA00055090308AC1E002063090308701E00204D
:108BB0006E0903087A090308FB1E00201400002038
:108BC0008A090308E31E00203B090308B6250308B1
:108BD0009A090308F91E0020A509030820000020B7
:108BE000B0090308E21E0020BB090308DD1E0020B7
:108BF000C5090308D91E0020EF090308DA1E00206A
:108C0000190A03089149924806F070F89149904872
:108C100006F06CF864200FF085FD102214A98E4830
:108C200005F02BFD9DF85F300D939DF85E300C93A1
:108C30009DF85D300B939DF85C300A939DF85B3096
:108C400009939DF85A3008939DF8593007939DF881
:108C5000583006939DF8573005939DF8563004938D
:108C60009DF8553003939DF8543002939DF853308E
:108C700001939DF852309DF8502078490093744834
:108C80009DF8513006F032F87249714806F02EF81E
:108C900064200FF047FD102214A9714805F010FD63
:108CA0009DF85F300D939DF85E300C939DF85D301C
:108CB0000B939DF85C300A939DF85B3009939DF807
:108CC0005A3008939DF8593007939DF85830069311
:108CD0009DF8573005939DF8563004939DF8553014
:108CE00003939DF8543002939DF8533001939DF8FF
:108CF00052309DF850205B49009355489DF8513003
:108D000005F0F4FF5349524805F0F0FF64200FF0DE
:108D100009FD042214A9544805F0B8FC9DF853300D
:108D200001939DF8523000939DF850209DF85130EA
:108D30004E49474805F0DAFF4649454805F0D6FF59
:108D400064200FF0EFFC0EA805F058FE204618B086
:108D500010BD4748002C52D105F0D7FB45490246CB
:108D60003B4805F0C3FF3B49394805F0BFFF64208D
:108D70000FF0D8FC404805F0CAFB40490246344891
:108D800005F0B4FF3349324805F0B0FF64200FF01E
:108D9000C9FC3B4805F0BDFB3A4902462C4805F0AA
:108DA000A5FF2C492A4805F0A1FF64200FF0BAFC6A
:108DB000354805F0B0FB35490246254805F096FFD9
:108DC0002449234805F092FF64200FF0ABFC3048A3
:108DD00005F0A3FB2F4902461D4805F087FF1D49FA
:108DE0001B4805F083FF64200FF09CFC2A4805F027
:108DF00096FB2A490246164805F078FF9CE705F0E5
:108E000084FB1C490246124805F070FF11491048C6
:108E100005F06CFF64200FF085FC214805F090FB05
:108E2000204902460A4805F061FF0A49084805F052
:108E30005DFF64200FF076FC1B4805F083FB1B49A7
:108E40000246034805F052FF93E600BF630A030899
:108E50001C1E0020C4280308DB1E00206C0A030827
:108E6000DF1E0020B70A0308DC1E0020010B0308E8
:108E7000071F00201C0B0308081F00202B0B0308F2
:108E8000091F0020330B03080A1F00203B0B0308B7
:108E90000B1F0020430B03080C1F0020580B030876
:108EA000101F0020660B0308111F0020730B03081E
:108EB00007B503230193054B0093054B054A06486C
:108EC000194605F017FD03B05DF804FBF98F0008A3
:108ED000810B0308890B0308D21E002007B503236A
:108EE0000193054B0093054B054A0648194605F0CA
:108EF00001FD03B05DF804FB49910008DC0B030899
:108F0000E10B0308D21E002007B502230193054B95
:108F10000093054B054A0648194605F0EBFC03B0E3
:108F20005DF804FBDD880008290C0308300C0308F9
:108F3000D21E00201FB5AA238DF80430254B2649E8
:108F40005A6802921B7A254A25488DF80C3005F0A4
:108F5000CDFE9DF804202349214805F0C7FE224993
:108F60001F4805F0C3FE64200FF0DCFB1B4A1A49C2
:108F70001B4805F0BBFE029A1C49194805F0B6FED5
:108F80001949174805F0B2FE64200FF0CBFB134AD5
:108F90001149134805F0AAFE9DF80C201449104809
:108FA00005F0A4FE10490E4805F0A0FE64200FF065
:108FB000B9FB10480C2301AA002105F0B2FC28B926
:108FC00001460C230B4801AA05F0ABFC05B05DF887
:108FD00004FB00BF080000205A070308470C0308E1
:108FE0001C1E00204E0C0308C5280308610C030852
:108FF0007F0C0308D31E0020536E012B70B50E4664
:10900000154646D143491068FDF7BAF8044698B9A9
:10901000414B42495A6842484FF47A73B2FBF3F32A
:10902000324605F063FE3F493D4805F05FFE64208F
:109030000FF078FB204670BD3B4A3C49384805F0AC
:1090400055FE2A683A49364805F050FE39493448F9
:1090500005F04CFE64200FF065FB2D682846FDF7F7
:1090600099F80024844218D02B5D303B092B12D98B
:109070002D4A2E492A4805F039FE2F492848224614
:1090800005F034FE2B49264805F030FE64200FF031
:1090900049FB0224CEE70134E4E70A2200212846F6
:1090A00002F0B0F8204A21491B4D04461C4805F047
:1090B0001DFE224621491A4805F018FE1D49184890
:1090C00005F014FE64200FF02DFB4FF47A70164A61
:1090D0001649444312486C6005F008FE6A68184956
:1090E0000F4805F003FE13490D4805F0FFFD64200D
:1090F0000FF018FB1348002105F031FC6A6822B11B
:1091000000231048194605F020FCFFF713FF002448
:1091100090E700BF3248030808000020950C0308C0
:109120001C1E0020C4280308470C03085A07030824
:109130009C0C0308C5280308B10C0308C00C0308E5
:10914000D70C0308D51E0020536E012B70B50E46B8
:10915000154601D0022413E05A491068FDF710F8B3
:10916000044678B9584B59491B7A5948324605F09C
:10917000BDFD5849564805F0B9FD64200FF0D2FAFC
:10918000204670BD544A5549514805F0AFFD2A6844
:1091900053494F4805F0AAFD52494D4805F0A6FD38
:1091A00064200FF0BFFA2D682846FCF7F3FF002477
:1091B000844217D02B5D303B092B11D9464A4749D1
:1091C000434805F093FD22464749414805F08EFD8E
:1091D00044493F4805F08AFD64200FF0A3FAB9E73F
:1091E0000134E5E70A220021284602F00BF8364E4A
:1091F000394A3A49347A0546354805F077FD2A461A
:109200003A49334805F072FD3649314805F06EFDA4
:1092100064200FF087FA022D9CD8A54201D10024CA
:10922000AEE71CB9012D04D0012413E0012CFBD1C1
:1092300085B9294A2949264805F058FD2C49244872
:1092400005F054FD2749224805F050FD64200FF039
:1092500069FA0024204A21491D48357205F046FD6F
:10926000327A24491A4805F041FD1E49184805F094
:109270003DFD64200FF056FAFFF75CFE337A012BB8
:1092800019D0022B1AD00BB9FFF7CEF8002CC6D09C
:1092900019490F4805F02AFD0E490D4805F026FD35
:1092A00064200FF03FFA41F288300FF03BFA134888
:1092B00005F016FBB3E7FFF74DF8E7E7FFF724F9F2
:1092C000E4E700BF3248030808000020E80C030868
:1092D0001C1E0020C4280308470C03085A07030873
:1092E0009C0C0308C5280308B10C0308EE0C030806
:1092F000010D03081B0D03082D0D03086C1E002033
:109300007FB50025AA238DF8043001AA29464848D4
:1093100002950C238DF80C5005F0F9FA0646454AE3
:10932000454946486EB905F0E1FC4549434805F01A
:10933000DDFC4449414805F0D9FC64200FF0F2F906
:109340003AE005F0D3FC9DF804203F493B483F4CF0
:1093500005F0CCFC3B49394805F0C8FC64200FF00F
:10936000E1F9344A3449354805F0C0FC029A3849DD
:10937000324805F0BBFC3349304805F0B7FC6420A7
:109380000FF0D0F99DF80430AA2B18D0294A2A49A9
:109390002A4805F0ABFC029A2E49284805F0A6FCA5
:1093A0002849264805F0A2FC64200FF0BBF965604F
:1093B0002572FFF7BFFD2E46304604B070BD029BFC
:1093C00063609DF80C30022B30D91A4A1A491B48A9
:1093D00005F08CFC9DF80C201F49184805F086FC10
:1093E0001849164805F082FC64200FF09BF925729D
:1093F000FFF7A0FD0F4A1049104805F077FC62689E
:1094000016490E4805F072FC0E490C4805F06EFC3A
:1094100064200FF087F9074A0749084805F066FC01
:10942000227A0F49054805F061FC82E72372E1E7E3
:10943000D31E0020470C03085A0703081C1E0020F7
:109440004A0D0308C5280308720D03080800002010
:10945000810D0308990D0308CE0D0308E90D0308DB
:10946000010E0308704700207047000010F0800FC5
:109470000B4A02D100231370704713781070C22B6F
:109480000CD0C32B03D0822B04D00020704740F0B7
:10949000C0007047AC280CBF80200020704700BF80
:1094A00000100020F8B504460846238CC3B10D29EE
:1094B00016D0E36A9847054690B1628C268CA38C3F
:1094C000E18CB2420ED28B420ED2A36A9854638CC6
:1094D0000A2803F10103638402D1A38C0133A3841E
:1094E0000120F8BD8B4201D3013BA384002399B234
:1094F0008A4213D9A06AC75C01310A2F89B203F1ED
:109500000103F4D1521A92B26284014401F05AF874
:10951000236829461B6820469847E1E7B24224BFEA
:1095200000236384F4E7000009490160802141823F
:10953000084941614FF4807101830749C1610022EC
:1095400006494260C0E902220274C162704700BF4E
:1095500034190308400000047F0E03086D940008CE
:10956000002370B5C0E9083383620368DB690446F1
:109570009847054610B90025284670BDA368F3B189
:10958000E368002BF8D12368E68A5B692046984798
:10959000304401F007F82368E0605B692046984793
:1095A000E6680644E660002EE6D12368A5685B699C
:1095B00020469847281A00F0FDFF3546DCE723686F
:1095C000E68A5B6920469847304400F0EBFF236849
:1095D000A0605B6920469847A3681844A0600028F3
:1095E000CED1C8E738B5856804463DB103685B69EC
:1095F0009847281A00F0DEFF0023A360E56845B114
:10960000236820465B699847281A00F0D3FF00239F
:10961000E360A06A18B100F0CDFF0023A36238BD5B
:1096200010B5034B03600446FFF7DCFF204610BD76
:109630003419030841767047002930B524DB448A89
:10964000A14221DA002A1FDB838A9A421CDA437E78
:10965000012B0FD0022B18D0B3B9D31004FB031188
:10966000806802F0070201239340425C22EA030271
:10967000425409E0D510806804FB051102F007028E
:109680009340425C1343435430BDD31004FB031199
:109690008068012302F0070203FA02F2435C5A4099
:1096A000E6E72DE9F74FBDF93070A7EB0208A3EB11
:1096B0000109B8F1000FB8BFC8F10008B9F1000FF7
:1096C000B8BFC9F10009C84583460C46154604DDFC
:1096D0001A462C463B460D4617469C4205DD2A4657
:1096E0003D46174622461C4613461E1BB2B2A7EB48
:1096F000050A0092C6F3C032BAF1000F02FA86F6EC
:10970000B8BFCAF1000A7610BD42B4BF01274FF0BE
:10971000FF379C4218DCC845CBBF2946214622466C
:109720002A46A6EB0A0658460193FFF785FFB1B219
:1097300036B2002E019B04DA009A3D4456182DB231
:1097400036B2013424B2E4E703B0BDE8F08F00295B
:10975000F0B571DB458AA9426EDA002ABEBF9B18BC
:109760001BB20022848A9E18A642C4BFA31A1BB251
:10977000002B61DDD410866805FB041112F007028E
:1097800006EB01056CD0C2F10802FF27D2B29A4263
:1097900047FA02F4C8BFA2EB030C6FEA0404C8BF87
:1097A00047FA0CF7E4B2C8BF3C40477E012F06D011
:1097B000022F26D037B9775C27EA040401E0775CF2
:1097C0003C4374549A4237DC9B1A1BB2428A072BE3
:1097D00015442FDD427E012A16D9022A2DD003F02E
:1097E000070201239340417EDBB25A1E0129D2B207
:1097F0002FD0022931D0F9B92A785B4213402B705F
:109800001AE0775C7C40DCE75242D2B219462A70FB
:10981000448A083925448CB2072C09B2F7D89BB288
:10982000A3F10802C2F3CC02C2EB423203EBC20343
:10983000083B1BB2002BD2DCF0BD1A462978C94385
:109840002970418A083A0D4491B2072912B2F5D81D
:10985000E5E72B781A432A70EEE72B785A40FAE7AF
:10986000072BB7DCBBE7F8B5BDF9187015460C46F9
:10987000CE18B44207DA21463B462A460134FFF7A8
:1098800066FF24B2F5E7F8BD2DE9F04F0446174610
:10989000227E8DB09846C369BDF85C505878022A84
:1098A0000E4608D0032A03D0012A07D14E1B04E03C
:1098B000A7EB50073FB2A6EB550636B2F54200F1D2
:1098C000E580628A964200F3E180F84200F1DE8092
:1098D000BA42C0F2DB809A78DB7802920138013319
:1098E000C0109B0001300793C3B203930693FB1093
:1098F0000893BDF8583007F0070A43440993CAF1AA
:1099000008034FF0000B0193099B434500F0BE8014
:1099100018F8011B029B8B42F6D8C91AC9B24FF046
:10992000040EE0691EFB01E311FB0EF510F803C005
:109930000EFB01030EFB01015B7991F80790CDF856
:1099400010900CEA0301FF2900F09B80A18A8F424E
:1099500000F397800BEB06018AB20FFA81FE09FA39
:1099600081F100290592C0F28C80618A8E4500F356
:1099700088800544A97911B9069A49465143079A46
:10998000134403EB0C2310FA83F34FF000090A93FE
:109990001FFA89F38B4274D2059A039BB9FBF3F348
:1099A000D018039AB4F812C002FB1393089A134418
:1099B00013FB0CF385B213FA80F000B2002854DBDD
:1099C000E38A984251DA2DB2002D4EDB65454CDA20
:1099D0000A9B13F80950637E012B0BD0022B2ED06B
:1099E00093B9D4F808E01EF8003005FA0AFC23EA1F
:1099F0000C0307E0D4F808E01EF8003005FA0AFC72
:109A000043EA0C030EF80030638AB4F816C0ACEBDE
:109A1000030C604525DA94F819C0BCF1010F17D08A
:109A2000BCF1020F24D0BCF1000F1AD11844A36876
:109A3000019A13F800C015412CEA050510E0D4F88E
:109A400008E01EF8003005FA0AFC83EA0C03D9E7A7
:109A50001844A368019A13F800C0154145EA0C05A3
:109A60001D540B9104F083FF0B9909F101098FE755
:109A70001844A368019A13F800C0154185EA0C0543
:109A8000EEE7049B9B441FFA8BFB3DE70DB0BDE85E
:109A9000F08FF0B5C5690020AF7803464FF6FF7C24
:109AA000013A92B262450DD08E5CF41B05EB840442
:109AB0000A2EE47923449BB2F2D1984238BF18466B
:109AC0000023EDE7984238BF1846F0BD0176704795
:109AD000C16170470368AF219B6918470368AE21D5
:109AE0009B6918472DE9F0411D46036804460E4660
:109AF0009B69D921174698472368394620469B69B8
:109B00009847236820469B698121984723683146FE
:109B100020469B699847236820469B69DB2198472C
:109B20002368294620469B699847236820469B69FD
:109B3000A4219847236820469B69A621984723685B
:109B400020469B69BDE8F041AF21184700000000A6
:109B500070B5054608460C46FCF7CCFC0EA3D3E9CD
:109B60000023FCF731FD23060CD4FDF705F8002C8B
:109B7000C1B214BFF1220022E3082846BDE87040BC
:109B8000FFF7B0BF0022064BFCF766FBFCF7F4FFC3
:109B9000F122C1B2F0E700BF23DBF97E6ABCF23FDD
:109BA00000804540C28A8068002100F019BD10B5D0
:109BB0000446FFF7F7FFE28AE068012100F010FD9C
:109BC000236820461B69BDE810401847012901742D
:109BD0000CD002290ED019B98023438240238382FE
:109BE000428A838A5343DB10C382704780234382B7
:109BF0002023F4E7002A08BF8022002B428208BFFE
:109C00004023ECE7037C022B10B5044600F095805E
:109C10000368AE219B6998472368D5219B6920463C
:109C200098472368F0219B69204698472368A8211C
:109C30009B6920469847217D236801399B69C9B2F9
:109C4000204698472368D3219B692046984723687C
:109C500000219B6920469847236840219B69204644
:109C6000984723688D219B692046984723681421D3
:109C70009B6920469847236820219B692046984786
:109C8000236800219B69204698472368A0219B698F
:109C9000204698472368C0219B692046984723683F
:109CA000DA219B6920469847227C2368002A3AD112
:109CB0009B69122120469847236881219B69204691
:109CC0009847227C2368002A32D19B69CF21204605
:109CD0009847236820469B69D921984723682046E6
:109CE0009B69F1219847236820469B69DB219847AF
:109CF000236820469B6940219847236820469B693A
:109D0000A4219847236820469B69A6219847236889
:109D100020469B692E219847236820469B69BDE811
:109D20001040AF211847012AC6D19B690221C1E723
:109D3000012ACED19B698F21C9E710BD38B50546F0
:109D4000FFF70EFC044628B12846FFF75BFF2846C4
:109D5000FFF72DFF204638BD2DE9F843B1F8088004
:109D600008F10106B6B2074630460D4600F01AFC6F
:109D7000044618B92C682046BDE8F88332460146EF
:109D80000023284604F0BCFE00252E46ABB29845C1
:109D900004EB060909D9FB6A605D984718B10136E2
:109DA000B6B289F800000135F0E7002389F80030E9
:109DB000E1E700002DE9F04F144687B0C26906467E
:109DC000894603A81946577804F07FFE03A9304658
:109DD000FFF7C2FF804603A804F010FE337E032B7A
:109DE000BA4631D10022134691B2013218F801105F
:109DF00021B10A2908BF01339BB2F5E75F43C7F3DE
:109E00004F071549DFF850B0404601F02DF9E41B2B
:109E10000546A4B2D5B12846FCF7BCF987B229465D
:109E20003A463046FFF735FE2B4622B2CDE90070A8
:109E300049463046FFF728FD5946002001F014F945
:109E400054440546A4B2E5E70027DAE7404600F0AF
:109E5000B1FB07B0BDE8F08FC528030803F04EBC86
:109E600003F051BC7047000070B5002386B0CDE907
:109E700004334FF0B0420F4DD16C41F00201D16478
:109E8000D26C039302F002024FF48056009201A9B3
:109E90002846CDE90163009A10F0E8FF31462846D4
:109EA00011F004F931460446284611F08BF820469B
:109EB00006B070BD000400480D2070474FF0B0435D
:109EC00082B0DA6C0243DA64DB6C18400190019BCB
:109ED00002B070472DE9F04186B01422002101A89C
:109EE00000F07EFB0220FFF7E9FF144D144F042021
:109EF000FFF7E4FF4FF4807601230024CDE90163EE
:109F000001A903232846CDE903434FF4005810F07C
:109F1000ADFF01A93846CDF8048010F0A7FF224616
:109F20004146384611F0C8F828462246314611F01D
:109F3000C3F8204606B0BDE8F08100BF0004004829
:109F400000080048032810B50ED8012810D868B9B9
:109F500002460B484FF4807111F0AEF80022094818
:109F60004FF4005111F0A8F8002010BD0122F0E7D5
:109F7000002203484FF4807111F09EF80122EEE7B1
:109F80000004004800080048022070470020704785
:109F90000120704710B59AB04822002108A800F0AF
:109FA0001FFB1822002102A800F01AFB11F040FF4D
:109FB0004FF0B0420024D2F8903023F01803C2F8DA
:109FC0009030D2F8003423F4C06343F40073C2F835
:109FD0000034D2F80034119403F4C06301934FF4B9
:109FE0008072019B0C922E234022089381230B93B5
:109FF0000D920123B02208A8CDE90E3410931292DD
:10A00000139412F067F808B103F0A2FD4F23022168
:10A0100002A8CDE90234CDE90444CDE9064412F0AA
:10A02000F9FA08B103F094FD1AB010BD13B5037826
:10A03000082B11D8DFE803F0128287108E8E0510EE
:10A040009200047920460DF0B7F920460DF05EF934
:10A05000002120460DF0B8F902B010BD00200DF02F
:10A06000ABF9012839D101200DF0A6F9012804D05F
:10A0700001200EF06DFF00283DDC02200DF09CF960
:10A080000128E9D002200EF063FF0028E4DD012260
:10A0900001A902200EF026FE02200DF08DF9002805
:10A0A000F0D102200EF032FF00283FD19DF80410BD
:10A0B00002200DF097F8E5E7012201A900200EF03B
:10A0C00011FE00200DF078F9044630B90EF01EFFA5
:10A0D00048B99DF804100DF085F800200EF038FF07
:10A0E0000028E9DCBFE70128F7D19DF804102046DD
:10A0F0000EF064FEF1E7012201A910460EF0F2FD18
:10A1000001200DF059F90028B2D101200EF0FEFE19
:10A1100028B99DF8041001200DF064F8A8E7012883
:10A12000A6D19DF804100EF049FEA1E70128A9D19F
:10A130009DF8041002200EF041FEA3E717F0FAFA92
:10A1400005F0EAFE88E7074B1B68002B84D04068C7
:10A15000984781E740680EF0A9FF7DE740680EF060
:10A1600049FC79E76468002030B5284B284A9A609A
:10A1700085B00FF011F8FFF70DFF4FF0B0430B2043
:10A180009A6C42F004029A649A6C02F00402039200
:10A19000039A9A6C42F001029A649B6C002203F0CD
:10A1A000010311460293029B0FF05EFC0B200FF09F
:10A1B0008DFC0EF05DFF0EF05DFA0DF007FA002445
:10A1C00001460546234603220120CDE900440EF056
:10A1D000CBFC2346032229460220CDE900440EF0A1
:10A1E000C3FC0DF0A1FA06F0C7FCE5B228460DF05D
:10A1F000E3F810B928460DF089F80134032CF4D1A6
:10A2000005B0BDE830400EF017BF00BF00ED00E024
:10A21000006000080EF01EBFF7B5FFF7A5FF4FF076
:10A22000B0432E4EDA6C2E4C42F00202DA64DB6C44
:10A2300003F002030193019B08F002FF294B341B3A
:10A240001427474300251C44BD4223D302F055FB8D
:10A25000FFF70AFE98B3244804F0EAFD234B244894
:10A260001A68244B196804F0E3FD23480EF0FEFC45
:10A2700005F07EF8012824D0022824D010B91F4808
:10A280000EF0F4FC1E4C0EF0E5FE2378EBB902F064
:10A2900036FBF8E76A46042160190EF05DFA69465C
:10A2A0003246042312F801CB11F8010B844518BF84
:10A2B00002F8010C013BF5D104350436C4E711481E
:10A2C000CAE71148DCE71148DAE70DF0BBF80028CF
:10A2D000D9D000200EF012FCD5E700BFFC0300200F
:10A2E00000000020E04E030854190308C8000020B5
:10A2F0006A190308E00000207A1903088E19030880
:10A30000011000205F1903089A190308A519030812
:10A31000054808B50823036012F04AFD18B1BDE8EE
:10A32000084003F015BC08BD006100204FF0B043A9
:10A3300007B55A6E42F001025A665B6E002203F0C6
:10A340000103019311463220019B0FF08DFB322057
:10A3500003B05DF804EB0FF0B9BB0000024B986846
:10A36000024BC043186070470028004004100020D2
:10A37000014B1868704700BF04100020034B044ACB
:10A380009B681068DB43181A704700BF0028004024
:10A3900004100020034B187810B1034B9868C04399
:10A3A000704700BF021000200028004003207047C3
:10A3B00008B501464FF47A720023C003490CFCF73C
:10A3C000CFFE08BD4FF47A72A0FB0223D00B40EA07
:10A3D0004340704710B5074B074C0122DA654FF434
:10A3E0008071204612F014FA4FF0FF3323630020EF
:10A3F00010BD00BF002800404C6300200246002131
:10A40000014812F01ABC00BF4C6300200246012133
:10A41000014812F012BC00BF4C63002010B58CB094
:10A420002C220021044601A800F0DAF8FFF7D2FF41
:10A430000C4B186800230444089306934FF0005314
:10A44000E4430793084802944FF48073012201A962
:10A450000B9312F0F3FA08B103F07AFB00200CB072
:10A4600010BD00BF041000204C6300200C4B70B5E1
:10A470009C68064602210B4812F0E6FBE4430022EA
:10A480001219C2F30E044FF47A71A4FB014540F196
:10A490000003E40BD00B348040EA434070BD00BFA2
:10A4A000002800404C6300200148002112F0CCBB82
:10A4B0004C6300200148012112F0C6BB4C63002010
:10A4C000F8B5114E3578E5B9104C2A4629464FF0BB
:10A4D000FF372846276303F07BF8FFF77BFF4FF435
:10A4E0008071204612F094F92046276312F050FB49
:10A4F0002A460221204612F0A0FBFFF72FFF01237E
:10A5000033700020F8BD00BF021000204C63002013
:10A5100015F0D0BE10B5064C0221204612F094FB77
:10A520000221421C2046BDE8104012F086BB00BF4D
:10A530004C6300200B460146184600F001B80000AD
:10A5400010B504460448134620B10A4602202146AD
:10A55000AFF3008010BD00BF0000000070B50D4DCE
:10A560000D4C641BA4100026A64209D10B4D0C4CC7
:10A5700025F07AF9641BA4100026A64205D170BD0F
:10A5800055F8043B98470136EEE755F8043B9847E9
:10A590000136F2E7C04E0308C04E0308C04E030860
:10A5A000D44E0308024B0146186800F06FB800BF94
:10A5B000E4000020024B0146186800F019B800BF03
:10A5C000E40000200A44914200F1FF3300D17047BB
:10A5D00010B511F8014B03F8014F9142F9D110BDAC
:10A5E00002440346934200D1704703F8011BF9E788
:10A5F00038B50546002945D051F8043C0C1F002B06
:10A60000B8BFE41801F06AFC1F4A1368104633B95A
:10A61000636014602846BDE8384001F065BCA34281
:10A620000BD921686218934204BF1A685B686360A3
:10A6300004BF521822600460ECE71A465B680BB155
:10A64000A342FAD911685018A0420BD120680144E6
:10A65000501883421160DDD118685B685360014473
:10A660001160D7E702D90C232B60D3E720682118AB
:10A670008B4204BF19685B68636004BF09182160DE
:10A680005460C7E738BD00BF08100020F8B5CD1CE6
:10A6900025F0030508350C2D38BF0C25002D064686
:10A6A00001DBA94203D90C2333600020F8BD01F07F
:10A6B00015FC21490A6814469CB9204F3B6823B910
:10A6C0002146304600F098FC38602946304600F0BC
:10A6D00093FC431C23D10C233360304601F004FC6F
:10A6E000E3E723685B1B17D40B2B03D923601C44BF
:10A6F000256004E06368A2420CBF0B6053603046E3
:10A7000001F0F2FB04F10B00231D20F00700C21A38
:10A71000CCD01B1AA350C9E722466468CCE7C41CFE
:10A7200024F00304A042E3D0211A304600F064FC78
:10A730000130DDD1CFE700BF081000200C10002051
:10A740002DE9F04788B0002B1F461446B8BF03F12F
:10A750000043129A109DDDF84CA0B6BF1F4600239F
:10A760002D231370149B23F02008B8F1460F05D059
:10A77000B8F1450F00D10135022300E0032307AAF9
:10A78000049206AACDE902A2CDE9003522463B4655
:10A7900000F0CEFDB8F1470F064602D1119BDB0752
:10A7A00022D5B8F1460F06EB050910D13378302BCE
:10A7B0000AD10022002320463946FCF76DF918B96A
:10A7C000C5F10105CAF80050DAF8003099440022BA
:10A7D000002320463946FCF75FF908B1CDF81C90FC
:10A7E0003022079B4B4507D3079B159A9B1B30468E
:10A7F000136008B0BDE8F087591C07911A70F0E7A4
:10A80000F7B503460029B8BF494203F8022BB4BF8D
:10A810002D222B22092942702ADD0DF10704A446BE
:10A820000A27A6460A4691FBF7F607FB16153035B0
:10A83000632A04F1FF340EF8015C3146F1DC30315B
:10A84000AEF1020504F8011C441C294661450AD3F7
:10A850000DF10902A2EB0E02654588BF00221344E8
:10A86000181A03B0F0BD11F8012B04F8012FEDE721
:10A87000302330318370C170031DF1E72DE9F04FB3
:10A8800091B00C46DDF8688016461F46054601F07B
:10A8900021FB036809931846FBF77CFC00230E9309
:10A8A000D8F800300A90073323F0070303F10802B9
:10A8B00094F81890D4F800B0C8F80020D3E9002329
:10A8C000C4E91223D4E9128A2AF000430B930B99AE
:10A8D0009C4B4FF0FF324046FCF710F970BB994B90
:10A8E0000B994FF0FF324046FCF7EAF830BB0022EC
:10A8F000002340465146FCF7D9F810B12D2384F8C7
:10A900004330914B9148B9F1470F94BF9846804628
:10A91000032323612BF0040323604FF0000A009708
:10A9200033460FAA2146284600F0D2F9013040F004
:10A930008F804FF0FF3011B0BDE8F08F4246534694
:10A9400040465146FCF7DAF840B1BAF1000FBCBFFF
:10A950002D2384F843307E487E4BD4E763685A1C2D
:10A9600009F0DF0142D106236360002206920EAA9D
:10A97000CDE904920DAA4BF4806303920DF13302EA
:10A98000CDE901322360636800934246534628466E
:10A990000B91FFF7D5FE0B99472980460D9908D1F9
:10A9A000C81C02DB6368994240DDA9F102095FFA25
:10A9B00089F9B9F1650F1FD801394A4604F15000F1
:10A9C0000D91FFF71DFF0E9A1318012A824623618D
:10A9D00002DC2268D20701D5013323619DF83330B0
:10A9E000002B9CD02D2384F8433098E74729BCD115
:10A9F000002BBAD10123B7E7B9F1660F18D10029AE
:10AA000063680BDD216113B92268D00702D50133D9
:10AA10000B442361A1654FF0000ADFE713B92268F8
:10AA2000D20701D50233F4E70123F2E74FF06709BB
:10AA30000E9B994205DB23682161D807EAD54B1CA0
:10AA4000E7E70029D4BFC1F1020201221344E0E785
:10AA500023685A0507D42369424631462846B84739
:10AA600001302BD165E7B9F1650F40F2DC80D4E904
:10AA7000120100220023FCF70FF8002833D0364AD9
:10AA8000012331462846B84701303FF452AFDDE993
:10AA90000D239A4202DB2368D8070FD5DDE909238D
:10AAA00031462846B84701303FF443AF4FF0000825
:10AAB00004F11A090E9B013B434509DC23689B07FF
:10AAC00000F10181E0680F9B9842B8BF184632E759
:10AAD00001234A4631462846B84701303FF429AFA2
:10AAE00008F10108E6E70D9B002B37DC1A4A012329
:10AAF00031462846B84701303FF41BAFDDE90D234E
:10AB0000134302D12368D907D8D5DDE9092331469B
:10AB10002846B84701303FF40CAF4FF0000904F16C
:10AB20001A0A0D9B5B424B4501DC0E9B94E7012307
:10AB3000524631462846B84701303FF4FAAE09F193
:10AB40000109EEE7FFFFEF7FE51A0308E91A0308A2
:10AB5000F11A0308ED1A0308284803080E9AA36D9A
:10AB60009A42A8BF1A46002A914637DC4FF0000BE4
:10AB700029EAE97904F11A02D4F858A0AAEB0903EA
:10AB80005B4533DCDDE90D239A423BDB2368DA07C2
:10AB900038D40E9A0D99A2EB0A03A2EB010999454C
:10ABA000A8BF9946B9F1000F34DC4FF0000829EA3C
:10ABB000E97904F11A0ADDE90D239B1AA3EB0903D5
:10ABC00043457FF77BAF0123524631462846B847BD
:10ABD00001303FF4AEAE08F10108ECE71346314610
:10ABE00042462846B8470130C0D1A2E6012331468B
:10ABF00028460B92B84701303FF49BAE0B9A0BF1FD
:10AC0000010BB9E7DDE9092331462846B847013091
:10AC1000BFD18EE64B4608EB0A0231462846B847BC
:10AC20000130C2D185E60E9A012A01DCDB0737D557
:10AC30000123424631462846B84701303FF479AEF9
:10AC4000DDE9092331462846B84701303FF471AEAB
:10AC5000D4E9120100220023FBF71EFFD8B90E9B96
:10AC600008F10102013B31462846B84701300ED1B8
:10AC70005FE601234A4631462846B84701303FF493
:10AC800058AE08F101080E9B013B4345F1DC5346E9
:10AC900004F15002E1E64FF0000804F11A09F2E76E
:10ACA00001234246DFE701234A4631462846B8479A
:10ACB00001303FF43EAE08F10108E3680F995B1ADA
:10ACC0004345F0DCFEE64FF0000804F11909F4E713
:10ACD0002DE9F047164699468A680B69DDF8208011
:10ACE0009342B8BF1346336091F8432007460C46A1
:10ACF0000AB1013333602368990642BF33680233D7
:10AD00003360256815F0060506D104F1190AE368D9
:10AD100032689B1AAB4226DC94F84320131E22684B
:10AD200018BF012392062BD404F14302494638464A
:10AD3000C04701301ED02368E568326803F006037F
:10AD4000042B08BFAD1AA36822690CBF25EAE5757C
:10AD500000259342C4BF9B1AED1800261A34B54251
:10AD60001AD1002008E00123524649463846C04720
:10AD7000013003D14FF0FF30BDE8F0870135C6E761
:10AD8000E1185A1C302081F84300224494F8451001
:10AD900082F843100233C7E701232246494638466A
:10ADA000C0470130E6D00136D9E700002DE9FF4762
:10ADB0000C469146277E0C99782F80469A4604F1DE
:10ADC000430207D8622F0AD8002F00F0D880582FEE
:10ADD00000F0A38004F1420684F842703AE0A7F143
:10ADE0006303152BF6D801A050F823F045AE0008F8
:10ADF00059AE0008D5AD0008D5AD0008D5AD0008A6
:10AE0000D5AD000859AE0008D5AD0008D5AD000895
:10AE1000D5AD0008D5AD000865AF000889AE0008C3
:10AE200047AF0008D5AD0008D5AD000887AF0008D2
:10AE3000D5AD000889AE0008D5AD0008D5AD000835
:10AE40004FAF00080B681A1D1B680A6004F1420628
:10AE500084F842300123A3E0256808682E0600F13B
:10AE600004030AD505680B60002D03DA2D236D421B
:10AE700084F843305E480A2319E015F0400F056856
:10AE80000B6018BF2DB2EFE70B682568181D08602E
:10AE9000280601D51D6802E06906FBD51D885448C7
:10AEA0006F2F0CBF08230A23002184F84310666823
:10AEB000A660002EA2BF216821F0040121600DB917
:10AEC000002E4DD01646B5FBF3F103FB1157C75DBD
:10AED00006F8017D2F46BB420D46F4D9082B0BD155
:10AEE0002368DF0708D5236961689942DEBF3023F4
:10AEF00006F8013C06F1FF36921B2261CDF800A056
:10AF00004B4603AA21464046FFF7E2FE01304CD1F2
:10AF10004FF0FF3004B0BDE8F087354884F8457045
:10AF200023680E681F0656F8045B0E6014D5D90717
:10AF300044BF43F0200323601DB9236823F020039E
:10AF400023601023B0E7236843F0200323607823B5
:10AF5000284884F84530E3E75E0648BFADB2E6E72F
:10AF60001646BBE70B68266860691D1D0D60350637
:10AF70001B6801D5186002E07106FBD5188000231C
:10AF800023611646BAE70B681A1D0A601E686268DC
:10AF900000213046FBF70CF908B1801B6060636844
:10AFA0002361002384F84330A8E7236932464946E9
:10AFB0004046D0470130ABD023689B0713D4E068EC
:10AFC000039B9842B8BF1846A4E70123324649467E
:10AFD0004046D04701309BD00135E36803995B1AA6
:10AFE000AB42F2DCEBE7002504F11906F5E700BF00
:10AFF000F51A0308061B030838B5064D002304465E
:10B0000008462B6001F052FC431C02D12B6803B1AF
:10B01000236038BD0C6100200EB400B59CB01DABA0
:10B02000029006906FF00041094807910491094988
:10B0300053F8042B05910068019302A901F0CCFAA2
:10B04000029B00221A701CB05DF804EB03B070473D
:10B05000E40000200802FFFF034611F8012B03F86B
:10B06000012B002AF9D17047134B2DE9F0411F68DD
:10B07000BC6D05460E46B4B95020FFF793FAB8658B
:10B08000C0E90044C0E90244C0E90444C0E90A44FC
:10B09000C0E90C44C0E90E44C0E91044C0E91244C0
:10B0A000846104774462BA6D314628460123BDE8C5
:10B0B000F04100F003B800BFE4000020F0B508B98B
:10B0C000106888B10446204614F8015B0F4617F853
:10B0D000016B1EB965B91560284605E0B542F6D189
:10B0E000002BF0D114600370F0BD1C460CE015B9C4
:10B0F00014F8013B0E4616F8015BAB42F7D1002B6A
:10B10000F3D0002304F8013C1460EDE72DE9F0438F
:10B110003B4E86468C4660461CF8014BA55D15F0FB
:10B120000805F8D12D2C34D19CF800404FF00108CF
:10B1300000F1020C002B5ED0102B0CD1302C0AD168
:10B140009CF8000000F0DF0058284FD19CF8014027
:10B1500010230CF1020C4FF0FF370025B7FBF3F77B
:10B1600003FB07F96FEA09092846A4F13006092E06
:10B1700018D83446A34224DD002D1FDB87421DD39F
:10B1800001D1A1451ADB00FB034001251CF8014B4E
:10B19000EBE72B2C08BF9CF80040A84608BF00F145
:10B1A000020CC7E7A4F14106192E01D8373CE1E7AC
:10B1B000A4F16106192E04D8573CDBE74FF0FF35A8
:10B1C000E4E7002D07DA2223CEF800304FF0FF30FD
:10B1D00042B9BDE8F083B8F1000F00D04042002A28
:10B1E000F7D00DB10CF1FF311160F2E73024002BE4
:10B1F000B1D10823AFE7302CA2D00A23ABE700BFC0
:10B20000181B030813460A46014602480068FFF768
:10B210007DBF00BFE40000202DE9F74F03690C69F2
:10B22000A3420746C0F28180013C01F1140800F1FD
:10B23000140505EB8403019358F8243055F82420B5
:10B2400001339A424FEA840B08EB8409B2FBF3F610
:10B2500031D34FF0000E4046AC46F24650F8042B76
:10B2600093B206FB03E34FEA134E9BB2AAEB030330
:10B27000120CDCF800A006FB02E213FA8AF34FEA94
:10B28000124E1FFA82FADCF80020CAEB124202EBDF
:10B2900023429BB243EA024381454CF8043B4FEA08
:10B2A000224ADBD255F80B302BB9019B043B9D425F
:10B2B0001A462ED33C61384601F045F8002824DBBD
:10B2C000013628464FF0000C58F8042BD0F800E067
:10B2D00093B2ACEB0303120C13FA8EF3C2EB1E42D3
:10B2E00002EB23429BB243EA0243C14540F8043BD0
:10B2F0004FEA224CE8D255F8242005EB840322B90A
:10B30000043B9D421A460AD33C61304603B0BDE877
:10B31000F08F1268043B002ACCD1013CC7E71268C9
:10B32000043B002AF0D1013CEBE70020EEE70000EF
:10B330002DE9F04F446A99B016461F46CDE90467DF
:10B34000DDF8948005463CB91020FFF72BF9C0E9E1
:10B35000014468620460C4606B6A196851B15A683C
:10B360004A60012393408B60284600F0F7FD6B6A2A
:10B3700000221A603B1EB9BF23F00043059300234F
:10B38000C8F80030DDF81490A74BBCBF0122C8F804
:10B39000002033EA090319D1249A42F20F73136093
:10B3A000C9F31303334300F06D85269B53B99F4BBC
:10B3B00023E09F4B03930833269A1360039819B038
:10B3C000BDE8F08F994B03930333F5E7DDE90434CF
:10B3D000CDE90C34DDE90C0100220023FBF75CFB16
:10B3E000804660B1249A01231360269B002B00F055
:10B3F0004685904B269A1360013B0393DEE716AB1C
:10B40000019317AB00932846DDE90C2301F02CF8DB
:10B41000C9F30A548346002C7ED00D9BCDF84C8096
:10B42000C3F31303DDE90C0143F07F5141F44011F4
:10B43000A4F2FF34804B0022FAF70EFF74A3D3E985
:10B440000023FBF7C1F874A3D3E90023FAF706FF42
:10B45000064620460F46FBF74DF871A3D3E90023BB
:10B46000FBF7B2F802460B4630463946FAF7F6FECD
:10B4700006460F46FBF758FB002282460023304663
:10B480003946FBF713FB48B15046FBF733F8324619
:10B490003B46FBF701FB08B90AF1FF3ABAF1160F78
:10B4A00057D8664B03EBCA03D3E90023DDE90C014F
:10B4B000FBF7FCFA00284ED00AF1FF3A00230F9365
:10B4C000169B1C1B631E099345BFC4F10103069321
:10B4D000002300234CBF09930693BAF1000F3CDB15
:10B4E000099BCDF838A05344099300230A93229B6B
:10B4F000092B00F2B580052BC4BF043B2293229B8D
:10B50000A3F10203CCBF00240124032B00F2B4807A
:10B51000DFE803F02D987AA4DDE916431C4404F219
:10B520003243202BC3BFC3F1400304F2124009FA97
:10B5300003F3C3F12003C6BF26FA00F0184306FA4E
:10B5400003F0FAF7C7FF0123A1F1F871013C13934F
:10B5500070E70123B3E70F90B2E7069BA3EB0A0362
:10B560000693CAF100030A9300230E93BFE700235A
:10B570000B93239B002B00F382804FF00109CDF841
:10B5800020904B46CDF88C906E6A002272600422A7
:10B5900002F114009842716877D9284600F0AAFC9D
:10B5A0006B6A30601B680393089B0E2B00F2EE80E1
:10B5B000002C00F0EB80BAF1000F7ADD1F4A0AF090
:10B5C0000F0302EBC303D3E900341AF4807FCDE903
:10B5D00010344FEA2A145CD0194BDDE90C01D3E991
:10B5E0000823FBF71BF9CDE9040104F00F0403273E
:10B5F000134E002C4FD1DDE91023DDE90401FBF7E8
:10B600000DF9CDE904016EE00123B1E7AFF300804D
:10B6100061436F63A787D23FB3C8608B288AC63F58
:10B62000FB799F501344D33F0000F07F211C030897
:10B63000181C0308294803080000F83F501C0308A1
:10B64000281C030800230B93239B0AEB030909F131
:10B650000103012B0893B8BF012395E70123F2E70B
:10B660000124002322930B944FF0FF390022CDF8E0
:10B6700020901223239287E701230B93F4E7DDF850
:10B680008C90CDF820904B467EE7013171605200DE
:10B690007EE70227ACE7E10708D5DDE91001D6E92E
:10B6A0000023FAF791FFCDE9100101376410083645
:10B6B0009FE700F0A580CAF10004A44BA44E04F05B
:10B6C0000F0203EBC203D3E90023DDE90C01FAF713
:10B6D0007BFFCDE90401241100230227002C40F058
:10B6E0008480002B8DD10F9B002B00F08B80DDE937
:10B6F0000434CDE91034DDE91001964B0022FBF74C
:10B70000D5F900287ED0089B002B7BD0B9F1000F23
:10B7100038DDDDE91001904B0022FAF755FFCDE945
:10B7200004010AF1FF3801374C463846FAF7E2FEC9
:10B73000DDE90423FAF748FF884B0022FAF78EFD73
:10B74000A1F15076CDE910011196002C5DD1DDE913
:10B750000401834B0022FAF77FFD02460B46CDE938
:10B760000423109A3346FBF7BFF9002840F0978274
:10B77000DDE90401109A06F10043FBF797F9002870
:10B7800040F08B82DDE90C34CDE90434179B002BAB
:10B79000C0F25181BAF10E0F00F34D816B4B03EBF8
:10B7A000CA03D3E90034CDE90634239B002B80F291
:10B7B000DB80089B002B00F3D78040F06D82684B44
:10B7C0000022DDE90601FAF7FFFEDDE90423FBF7BD
:10B7D00081F9089C2646002840F04382039F3123CC
:10B7E00007F8013B0AF1010A3FE2E20705D5D6E975
:10B7F0000023FAF7E9FE01370123641008366DE7EC
:10B80000022770E7089CD0468FE703994F4B2144ED
:10B8100012910B9903EBC403DDE9106753E902238E
:10B82000002946D04F490020FAF7F8FF3B46324640
:10B83000FAF712FDCDE91001039FDDE90401FBF7E2
:10B8400073F90446FAF756FE02460B46DDE9040199
:10B85000FAF702FD303402460B46CDE9042307F81F
:10B86000014BDDE91023FBF721F9002865D1DDE963
:10B87000042338490020FAF7EFFCDDE91023FBF739
:10B8800015F9002840F0B680129B9F423FF47AAF32
:10B89000DDE91001304B0022FAF796FE2E4BCDE980
:10B8A00010010022DDE90401FAF78EFECDE9040162
:10B8B000C3E730463946FAF787FECDE91001129BFF
:10B8C000039C1493DDE90401FBF72EF91590FAF7B8
:10B8D00011FE02460B46DDE90401FAF7BDFC159B9B
:10B8E000303304F8013B129B9C4206460F464FF052
:10B8F000000224D11B4BDDE91001FAF7AFFC024630
:10B900000B4630463946FBF7EFF8002871D1DDE9E8
:10B91000102314490020FAF79FFC02460B463046DC
:10B920003946FBF7C3F800283FF42CAF149F7B1E69
:10B93000149317F8013C302BF8D0C24649E0064B6F
:10B94000FAF742FECDE90401BCE700BF501C030832
:10B95000281C03080000F03F0000244000001C40A9
:10B96000000014400000E03FDDE90489039FDDE9A9
:10B97000062340464946FAF751FFFBF7D5F804463F
:10B98000FAF7B8FDDDE90623FAF71EFE04F13006EA
:10B990000B46024649464046FAF75EFC07F8016B43
:10B9A000039E089BBE1BB34238D102460B46FAF7F2
:10B9B00055FCDDE9062380468946FBF795F858BB20
:10B9C000DDE9062340464946FBF766F808B1E10782
:10B9D00022D42846594600F0C1FA00233B70249B2C
:10B9E0000AF101001860269B002B3FF4E7AC1F60B2
:10B9F000E4E427463B461F4613F8012D392A07D1B8
:10BA0000039A9A42F7D10399302208F101080A708B
:10BA10001A7801321A7090E7D046EBE7A14B00226A
:10BA2000FAF7D2FD0022002380468946FBF734F85E
:10BA300000289CD0CDE70B9A002A00F0CD80229AF6
:10BA4000012A00F3AF80139A002A00F0A78003F2C6
:10BA500033430A9C069F069A1A440692099A0121CA
:10BA60001A442846099200F01CFB0646002F0CDD04
:10BA7000099B002B09DDBB42069AA8BF3B46D21AA0
:10BA80000692099AFF1AD31A09930A9BF3B10B9BEA
:10BA9000002B00F0A580002C10DD31462246284600
:10BAA00000F0A4FB5A4601460646284600F002FB79
:10BAB00059468046284600F051FAC3460A9B1A1B95
:10BAC00004D05946284600F091FB834601212846C0
:10BAD00000F0E7FA0E9B002B044640F383801A46E1
