:020000040800F2
:1060000000FC00201DCA000899CA000825CB000822
:1060100091CB000893CB000895CB0008000000004E
:1060200000000000000000000000000097CB000806
:1060300099CB0008000000009BCB00089BCB000818
:106040006DCA00086DCA0008B9CB00086DCA000807
:106050006DCA00086DCA00080FCC000815CC0008F6
:106060001BCC000821CC000827CC0008C5CB0008B9
:10607000D1CB0008DDCB0008E9CB00086DCA0008D1
:106080006DCA00086DCA00086DCA00086DCA000814
:106090006DCA00086DCA00082DCC00086DCA000842
:1060A0006DCA00086DCA00086DCA00086DCA0008F4
:1060B0006DCA00086DCA00086DCA00086DCA0008E4
:1060C000D9CC0008E5CC00086DCA00086DCA0008EC
:1060D000F5CB00080DCC0008C1CC00086DCA000843
:1060E0006DCA00086DCC0008A1CB00086DCA00087D
:1060F0006DCA00086DCA00086DCA00086DCA0008A4
:106100006DCA00086DCA0008ADCB0008F1CC0008CC
:106110006DCA00086DCA00086DCA00086DCA000883
:106120006DCA00086DCA00086DCA00086DCA000873
:086130006DCA00086DCA0008E9
:1061400010B5054C237833B9044B13B10448AFF3B1
:1061500000800123237010BD900E0020000000007D
:10616000C8F9020808B5034B1BB103490348AFF354
:10617000008008BD00000000940E0020C8F902084D
:1061800010F8012B11F8013B012A28BF9A42F7D0E1
:10619000D01A7047034613F8012B002AFBD1181AB6
:1061A00001387047000000000000000000000000FF
:1061B00001F0FF01102A2BDB10F0070F08D010F8B8
:1061C000013B013A8B422DD010F0070F42B3F6D1BC
:1061D000F0B441EA012141EA014122F007047FF0D5
:1061E00000070023F0E80256083C85EA010586EA2C
:1061F000010685FA47F5A3FA87F586FA47F6A5FA68
:1062000087F68EB9EED1F0BC01F0FF0102F0070273
:1062100032B110F8013B013A83EA010313B1F8D11E
:106220000020704701387047002D06BF35460338FF
:10623000073815F0010F07D1013015F4807F02BF38
:10624000013015F4C03F0130F0BC0138704700BF89
:1062500081F0004102E000BF83F0004330B54FEA17
:1062600041044FEA430594EA050F08BF90EA020F84
:106270001FBF54EA000C55EA020C7FEA645C7FEA17
:10628000655C00F0E2804FEA5454D4EB5555B8BF3A
:106290006D420CDD2C4480EA020281EA030382EAAB
:1062A000000083EA010180EA020281EA0303362D3D
:1062B00088BF30BD11F0004F4FEA01314FF4801C10
:1062C0004CEA113102D0404261EB410113F0004F22
:1062D0004FEA03334CEA133302D0524263EB4303D9
:1062E00094EA050F00F0A780A4F10104D5F1200E77
:1062F0000DDB02FA0EFC22FA05F2801841F10001D2
:1063000003FA0EF2801843FA05F359410EE0A5F1A5
:1063100020050EF1200E012A03FA0EFC28BF4CF0D6
:10632000020C43FA05F3C01851EBE37101F000458C
:1063300007D54FF0000EDCF1000C7EEB00006EEB99
:106340000101B1F5801F1BD3B1F5001F0CD3490823
:106350005FEA30004FEA3C0C04F101044FEA44527A
:1063600012F5800F80F09A80BCF1004F08BF5FEA01
:10637000500C50F1000041EB045141EA050130BDE1
:106380005FEA4C0C404141EB0101013C28BFB1F5F3
:10639000801FE9D291F0000F04BF01460020B1FA3E
:1063A00081F308BF2033A3F10B03B3F120020CDA11
:1063B0000C3208DD02F1140CC2F10C0201FA0CF0EF
:1063C00021FA02F10CE002F11402D8BFC2F1200C54
:1063D00001FA02F120FA0CFCDCBF41EA0C0190400A
:1063E000E41AA2BF01EB0451294330BD6FEA040453
:1063F0001F3C1CDA0C340EDC04F11404C4F120023E
:1064000020FA04F001FA02F340EA030021FA04F34F
:1064100045EA030130BDC4F10C04C4F1200220FAA6
:1064200002F001FA04F340EA0300294630BD21FAE4
:1064300004F0294630BD94F0000F83F4801306BFAA
:1064400081F480110134013D4EE77FEA645C18BF9E
:106450007FEA655C29D094EA050F08BF90EA020F35
:1064600005D054EA000C04BF1946104630BD91EA2D
:10647000030F1EBF0021002030BD5FEA545C05D130
:106480004000494128BF41F0004130BD14F580046F
:106490003CBF01F5801130BD01F0004545F0FE41E3
:1064A00041F470014FF0000030BD7FEA645C1ABF18
:1064B000194610467FEA655C1CBF0B46024650EA4F
:1064C000013406BF52EA033591EA030F41F400217B
:1064D00030BD00BF90F0000F04BF0021704730B501
:1064E0004FF4806404F132044FF000054FF00001D6
:1064F00050E700BF90F0000F04BF0021704730B597
:106500004FF4806404F1320410F0004548BF40426B
:106510004FF000013EE700BF42004FEAE2014FEAC0
:1065200031014FEA02701FBF12F07F4393F07F4F9B
:1065300081F06051704732F07F4208BF704793F09E
:106540007F4F04BF41F40021704730B54FF46074B1
:1065500001F0004521F000411CE700BF50EA0102B4
:1065600008BF704730B54FF000050AE050EA01025D
:1065700008BF704730B511F0004502D5404261EBCD
:1065800041014FF4806404F132045FEA915C3FF40E
:10659000D8AE4FF003025FEADC0C18BF03325FEAAB
:1065A000DC0C18BF033202EBDC02C2F1200300FA5C
:1065B00003FC20FA02F001FA03FE40EA0E0021FA81
:1065C00002F11444BDE600BF70B54FF0FF0C4CF46F
:1065D000E06C1CEA11541DBF1CEA135594EA0C0F21
:1065E00095EA0C0F00F0DEF82C4481EA030621EA5C
:1065F0004C5123EA4C5350EA013518BF52EA033597
:1066000041F4801143F4801338D0A0FB02CE4FF048
:106610000005E1FB02E506F00042E0FB03E54FF078
:106620000006E1FB03569CF0000F18BF4EF0010E70
:10663000A4F1FF04B6F5007F64F5407404D25FEA6C
:106640004E0E6D4146EB060642EAC62141EA55511F
:106650004FEAC52040EA5E504FEACE2EB4F1FD0C61
:1066600088BFBCF5E06F1ED8BEF1004F08BF5FEADF
:10667000500E50F1000041EB045170BD06F0004691
:1066800046EA010140EA020081EA0301B4EB5C043E
:10669000C2BFD4EB0C0541EA045170BD41F4801136
:1066A0004FF0000E013C00F3AB8014F1360FDEBF5B
:1066B000002001F0004170BDC4F10004203C35DA37
:1066C0000C341BDC04F11404C4F1200500FA05F3BA
:1066D00020FA04F001FA05F240EA020001F000425B
:1066E00021F0004110EBD37021FA04F642EB0601D1
:1066F0005EEA430E08BF20EAD37070BDC4F10C04FB
:10670000C4F1200500FA04F320FA05F001FA04F2BE
:1067100040EA020001F0004110EBD37041F10001AA
:106720005EEA430E08BF20EAD37070BDC4F12005B5
:1067300000FA05F24EEA020E20FA04F301FA05F21D
:1067400043EA020321FA04F001F0004121FA04F2C5
:1067500020EA020000EBD3705EEA430E08BF20EA95
:10676000D37070BD94F0000F0FD101F000464000CF
:1067700041EB010111F4801F08BF013CF7D041EA51
:10678000060195F0000F18BF704703F00046520055
:1067900043EB030313F4801F08BF013DF7D043EA26
:1067A0000603704794EA0C0F0CEA135518BF95EADC
:1067B0000C0F0CD050EA410618BF52EA4306D1D163
:1067C00081EA030101F000414FF0000070BD50EA82
:1067D000410606BF1046194652EA430619D094EA0C
:1067E0000C0F02D150EA013613D195EA0C0F05D1F6
:1067F00052EA03361CBF104619460AD181EA03014A
:1068000001F0004141F0FE4141F470014FF0000001
:1068100070BD41F0FE4141F4780170BD70B54FF09C
:10682000FF0C4CF4E06C1CEA11541DBF1CEA13551C
:1068300094EA0C0F95EA0C0F00F0A7F8A4EB0504FE
:1068400081EA030E52EA03354FEA013100F08880F5
:106850004FEA03334FF0805545EA131343EA1263BE
:106860004FEA022245EA111545EA10654FEA002673
:106870000EF000419D4208BF964244F1FD0404F52C
:10688000407402D25B084FEA3202B61A65EB030588
:106890005B084FEA32024FF480104FF4002CB6EB45
:1068A000020E75EB030E22BFB61A754640EA0C00C5
:1068B0005B084FEA3202B6EB020E75EB030E22BF05
:1068C000B61A754640EA5C005B084FEA3202B6EB46
:1068D000020E75EB030E22BFB61A754640EA9C0005
:1068E0005B084FEA3202B6EB020E75EB030E22BFD5
:1068F000B61A754640EADC0055EA060E18D04FEA93
:10690000051545EA16754FEA06164FEAC30343EA32
:1069100052734FEAC2025FEA1C1CC0D111F4801FFF
:106920000BD141EA00014FF000004FF0004CB6E7F8
:1069300011F4801F04BF01430020B4F1FD0C88BF97
:10694000BCF5E06F3FF6AFAEB5EB030C04BFB6EBA2
:10695000020C5FEA500C50F1000041EB045170BD95
:106960000EF0004E4EEA113114EB5C04C2BFD4EBC2
:106970000C0541EA045170BD41F480114FF0000E46
:10698000013C90E645EA060E8DE60CEA135594EAC2
:106990000C0F08BF95EA0C0F3FF43BAF94EA0C0FC5
:1069A0000AD150EA01347FF434AF95EA0C0F7FF43A
:1069B00025AF104619462CE795EA0C0F06D152EA8E
:1069C00003353FF4FDAE1046194622E750EA410672
:1069D00018BF52EA43067FF4C5AE50EA41047FF483
:1069E0000DAF52EA43057FF4EBAE12E74FF0FF3CE8
:1069F00006E000BF4FF0010C02E000BF4FF0010CB9
:106A00004DF804CD4FEA410C7FEA6C5C4FEA430C31
:106A100018BF7FEA6C5C1BD001B050EA410C0CBF80
:106A200052EA430C91EA030F02BF90EA020F0020E2
:106A3000704710F1000F91EA030F58BF994208BF49
:106A400090422CBFD8176FEAE37040F00100704706
:106A50004FEA410C7FEA6C5C02D150EA013C07D15D
:106A60004FEA430C7FEA6C5CD6D152EA033CD3D0A8
:106A70005DF8040B704700BF8446104662468C46A2
:106A80001946634600E000BF01B5FFF7B7FF0028D5
:106A900048BF10F1000F01BD4DF808EDFFF7F4FFFE
:106AA0000CBF012000205DF808FB00BF4DF808ED89
:106AB000FFF7EAFF34BF012000205DF808FB00BFAC
:106AC0004DF808EDFFF7E0FF94BF012000205DF8CE
:106AD00008FB00BF4DF808EDFFF7CEFF94BF012083
:106AE00000205DF808FB00BF4DF808EDFFF7C4FF7C
:106AF00034BF012000205DF808FB00BF4FEA410CC5
:106B00007FEA6C5C02D150EA013C0AD14FEA430CA7
:106B10007FEA6C5C02D152EA033C02D14FF00000E4
:106B200070474FF0010070474FEA410212F5001222
:106B300015D211D56FF47873B3EB625212D94FEAC4
:106B4000C12343F0004343EA505311F0004F23FAAE
:106B500002F018BF404270474FF00000704750EA03
:106B6000013005D111F0004008BF6FF000407047C0
:106B70004FF00000704700BF4A0011D212F500121A
:106B800011D20DD56FF47873B3EB62520ED44FEA85
:106B9000C12343F0004343EA505323FA02F0704705
:106BA0004FF00000704750EA013002D14FF0FF3043
:106BB00070474FF00000704780F0004002E000BFD7
:106BC00081F0004142001FBF5FEA410392EA030FD8
:106BD0007FEA226C7FEA236C6AD04FEA1262D2EB22
:106BE0001363C1BFD218414048404140B8BF5B4227
:106BF000192B88BF704710F0004F40F4000020F0C0
:106C00007F4018BF404211F0004F41F4000121F0D5
:106C10007F4118BF494292EA030F3FD0A2F101021F
:106C200041FA03FC10EB0C00C3F1200301FA03F15D
:106C300000F0004302D5494260EB4000B0F5000F80
:106C400013D3B0F1807F06D340084FEA310102F13F
:106C50000102FE2A51D2B1F1004F40EBC25008BFF1
:106C600020F0010040EA03007047490040EB0000BB
:106C7000013A28BFB0F5000FEDD2B0FA80FCACF1BC
:106C8000080CB2EB0C0200FA0CF0AABF00EBC250E9
:106C900052421843BCBFD0401843704792F0000FD7
:106CA00081F4000106BF80F400000132013BB5E72A
:106CB0004FEA41037FEA226C18BF7FEA236C21D0A0
:106CC00092EA030F04D092F0000F08BF0846704705
:106CD00090EA010F1CBF0020704712F07F4F04D1D3
:106CE000400028BF40F00040704712F100723CBFE6
:106CF00000F50000704700F0004343F0FE4040F410
:106D0000000070477FEA226216BF08467FEA2363CD
:106D10000146420206BF5FEA412390EA010F40F4B8
:106D2000800070474FF0000304E000BF10F0004304
:106D300048BF40425FEA000C08BF704743F09643EB
:106D400001464FF000001CE050EA010208BF704706
:106D50004FF000030AE000BF50EA010208BF70478D
:106D600011F0004302D5404261EB41015FEA010CA2
:106D700002BF84460146002043F0B64308BFA3F19A
:106D80008053A3F50003BCFA8CF2083AA3EBC2537C
:106D900010DB01FA02FC634400FA02FCC2F120029B
:106DA000BCF1004F20FA02F243EB020008BF20F0D2
:106DB0000100704702F1200201FA02FCC2F1200238
:106DC00050EA4C0021FA02F243EB020008BF20EA2D
:106DD000DC7070474FF0FF0C1CEAD0521EBF1CEA5B
:106DE000D15392EA0C0F93EA0C0F6FD01A4480EA49
:106DF000010C400218BF5FEA41211ED04FF0006332
:106E000043EA501043EA5111A0FB01310CF000405D
:106E1000B1F5000F3EBF490041EAD3715B0040EA83
:106E2000010062F17F02FD2A1DD8B3F1004F40EB53
:106E3000C25008BF20F00100704790F0000F0CF026
:106E4000004C08BF49024CEA502040EA51207F3AEA
:106E5000C2BFD2F1FF0340EAC250704740F40000C5
:106E60004FF00003013A5DDC12F1190FDCBF00F0B6
:106E700000407047C2F10002410021FA02F1C2F164
:106E8000200200FA02FC5FEA310040F1000053EA00
:106E90004C0308BF20EADC70704792F0000F00F04E
:106EA000004C02BF400010F4000F013AF9D040EA54
:106EB0000C0093F0000F01F0004C02BF490011F4E8
:106EC000000F013BF9D041EA0C018FE70CEAD153E6
:106ED00092EA0C0F18BF93EA0C0F0AD030F0004C66
:106EE00018BF31F0004CD8D180EA010000F000401A
:106EF000704790F0000F17BF90F0004F084691F0D8
:106F0000000F91F0004F14D092EA0C0F01D1420211
:106F10000FD193EA0C0F03D14B0218BF084608D1DA
:106F200080EA010000F0004040F0FE4040F4000024
:106F3000704740F0FE4040F4400070474FF0FF0CB7
:106F40001CEAD0521EBF1CEAD15392EA0C0F93EAFE
:106F50000C0F69D0A2EB030280EA010C49024FEA50
:106F6000402037D04FF0805343EA111143EA101309
:106F70000CF000408B4238BF5B0042F17D024FF4C1
:106F8000000C8B4224BF5B1A40EA0C00B3EB510F9C
:106F900024BFA3EB510340EA5C00B3EB910F24BF85
:106FA000A3EB910340EA9C00B3EBD10F24BFA3EB0A
:106FB000D10340EADC001B0118BF5FEA1C1CE0D1D2
:106FC000FD2A3FF650AF8B4240EBC25008BF20F085
:106FD000010070470CF0004C4CEA50207F32C2BFD9
:106FE000D2F1FF0340EAC250704740F400004FF076
:106FF0000003013A37E792F0000F00F0004C02BFA7
:10700000400010F4000F013AF9D040EA0C0093F070
:10701000000F01F0004C02BF490011F4000F013BCA
:10702000F9D041EA0C0195E70CEAD15392EA0C0F32
:1070300008D142027FF47DAF93EA0C0F7FF470AF6A
:10704000084676E793EA0C0F04D14B023FF44CAFAD
:1070500008466EE730F0004C18BF31F0004CCAD142
:1070600030F000427FF45CAF31F000437FF43CAF7E
:107070005FE700BF4FF0FF3C06E000BF4FF0010CA0
:1070800002E000BF4FF0010C4DF804CD4FEA400282
:107090004FEA41037FEA226C18BF7FEA236C11D0CC
:1070A00001B052EA530C18BF90EA010F58BFB2EB7F
:1070B000030088BFC81738BF6FEAE17018BF40F0FF
:1070C000010070477FEA226C02D15FEA402C05D1B3
:1070D0007FEA236CE4D15FEA412CE1D05DF8040B38
:1070E000704700BF844608466146FFE70FB5FFF7CB
:1070F000C9FF002848BF10F1000F0FBD4DF808ED83
:10710000FFF7F4FF0CBF012000205DF808FB00BF73
:107110004DF808EDFFF7EAFF34BF012000205DF8CD
:1071200008FB00BF4DF808EDFFF7E0FF94BF01201A
:1071300000205DF808FB00BF4DF808EDFFF7D2FF17
:1071400094BF012000205DF808FB00BF4DF808ED5A
:10715000FFF7C8FF34BF012000205DF808FB00BF27
:1071600053B94AB9002908BF00281CBF4FF0FF31AE
:107170004FF0FF3000F06CB9ADF1080C6DE904CEB2
:1071800000F006F8DDF804E0DDE9022304B0704702
:107190002DE9F047089E0D4604468E46002B40F030
:1071A00082808A42174646D9B2FA82F24AB1C2F1C7
:1071B000200105FA02F320FA01F1974041EA030E9B
:1071C00094404FEA1748230CBEFBF8FCB9B208FB09
:1071D0001CEE43EA0E430CFB01F098420AD9FB185F
:1071E0000CF1FF3580F01681984240F21381ACF12A
:1071F000020C3B441B1AA4B2B3FBF8F008FB10339B
:1072000044EA034400FB01F1A14209D93C1900F111
:10721000FF3380F00181A14240F2FE8002383C44FD
:10722000641A40EA0C4000211EB1D4400023C6E994
:107230000043BDE8F08702B9FFDEB2FA82F2002A0D
:107240004FD1CB1B4FEA174E1FFA87F80121B3FB32
:10725000FEFC250C0EFB1C3345EA034508FB0CF332
:10726000AB4207D97D190CF1FF3002D2AB4200F2DC
:10727000E7808446ED1AA3B2B5FBFEF00EFB105575
:1072800043EA054408FB00F8A04507D93C1900F182
:10729000FF3302D2A04500F2D7801846A4EB0804C1
:1072A00040EA0C40C0E78B4208D9002E00F0AF80C6
:1072B0000021C6E900050846BDE8F087B3FA83F16E
:1072C00000294BD1AB4202D3824200F2B780841A2C
:1072D00065EB030301209E46002EAAD0C6E9004EAE
:1072E000A7E7C2F1200C01FA02F3974020FA0CF054
:1072F0004FEA174E21FA0CFC1843BCFBFEF1050CBB
:107300000EFB11CC1FFA87F845EA0C4501FB08F388
:10731000AB4204FA02F409D97D1901F1FF3C80F077
:107320008B80AB4240F2888002393D44EB1A85B233
:10733000B3FBFEF00EFB103345EA034500FB08F3F8
:10734000AB4207D97D1900F1FF3C71D2AB426FD936
:1073500002383D44EB1A40EA014178E7C1F1200CC4
:107360008B4022FA0CF71F4320FA0CF405FA01F3C4
:107370004FEA174E25FA0CF51C43230CB5FBFEF91A
:107380001FFA87F80EFB195543EA054509FB08FA71
:10739000AA4502FA01F200FA01F308D97D1909F1B0
:1073A000FF3047D2AA4545D9A9F102093D44A5EBD2
:1073B0000A05A4B2B5FBFEF00EFB105544EA0544E5
:1073C00000FB08F8A04507D93C1900F1FF352DD284
:1073D000A0452BD902383C4440EA0940A4EB0804FC
:1073E000A0FB02894C45C6464D4619D316D05EB166
:1073F000B3EB0E0264EB050404FA0CFCCA404CEA41
:107400000202CC40C6E900240021BDE8F0873146E5
:1074100030460EE7AC46EDE6184601E74345E6D2B6
:10742000B8EB020E69EB07050138E0E72846D3E721
:1074300060468FE78146BAE7614677E708464BE743
:10744000ACF1020C3D4415E702383C4426E700BF8E
:10745000704700BF0020704738B590F833300446BD
:107460000D4613B1406B07F065FC94F83010606B6B
:1074700007F078FC606B802100F02DF8606B0368EA
:1074800029461B689847606B0121BDE8384007F02A
:1074900075BC000010B5034B0360044602F04EF9C2
:1074A000204610BD3CFB020810B50446406B07F0B7
:1074B00041FC606B024907F051FC012010BD00BF88
:1074C000801A060010B50446FFF7E4FF204605F0D9
:1074D00089FA204610BD0368C9B21B6818472DE918
:1074E000F84F90F83330044613B1406B07F022FC9C
:1074F000658AC5F180054FF0000A05EBD575FF27B9
:107500006D10D146D0463E46A38A5FFA8AF1B1EBB0
:10751000D30F28DA4FF0000C638A5FFA8CF09842A0
:107520001CDA11FB03F30344A2689BB212F803E0D8
:10753000E26812F803B0F3450BD08E4228BF0E4626
:10754000884538BF8846874228BF0746814538BFEF
:10755000814602F803E00CF1010CDDE707F0B5FA13
:107560000AF1010AD0E7FF2E57D0236821219B6939
:1075700020469847236857FA85F19B69C9B220468F
:1075800098475FFA85FA23680AEB09019B69C9B23B
:1075900020469847236822219B6920469847236804
:1075A00031469B6920469847236841469B6920469F
:1075B00098470025B04529D3BA46CA4521D845B9D0
:1075C00094F83010606B07F0CDFB606B4021FFF743
:1075D00082FFA268606B638A06FB0323026813F8CC
:1075E0000A1012680135EDB29047102D04D1606B7E
:1075F000012107F0C3FB00250AF1010A5FFA8AFAAC
:10760000DBE7013607F061FAF6B2D3E72DB1606B24
:107610000121BDE8F84F07F0B1BBBDE8F88F0000CD
:1076200038B51548154C07F085FB4FF4FA7011F08A
:1076300027F90125204684F8335002F00BFC204640
:1076400002F0DAFA204602F039FB204602F0D0FAC6
:107650002046C82102F008FB4023F1222046642185
:1076600002F0CEFA0649204602F0C0FA2046FFF7A3
:1076700036FF284638BD00BF141F0020B00E002082
:107680005CFB020870B51A4C1A4986B006462046C3
:1076900002F0ACFA2046002102F05AF80B25002235
:1076A000114680232046009502F06BF92046012107
:1076B00002F04EF82046002102F096FA314603A867
:1076C00007F090FA002203AB1146204602F0FEFBC1
:1076D00003A807F041FA80232A460021204600959E
:1076E00002F06DF82046FFF7FAFE06B070BD00BF4D
:1076F000B00E00205CFB020813B5094C00212046A7
:1077000002F026F8402300930C228023002120461B
:1077100002F037F9034B00221A7002B010BD00BF0F
:10772000B00E0020AC0E002030B585B004460D46EA
:1077300001A8114607F077FA04EB840252000C32DC
:1077400001AB12B22946044802F0C0FB01A807F0C1
:1077500003FA05B030BD00BFB00E002008B50248E6
:10776000FFF7BDFE08BD00BFB00E002010B50E4CE7
:10777000204601F067FF0D4B236000231A4619468F
:10778000204684F8333002F0ADFA40F63C332386CD
:107790000C2384F83230064B63632046054A0649C1
:1077A000BDE8104002F052BFB00E00203CFB0208C2
:1077B000141F002000000020957400080000000045
:1077C0002DE9F04F6A4D2B7887B006467BB1FFF765
:1077D00093FF684807F034F9FEF79EFE02460B4619
:1077E0006548664903F0A4FC6348FFF74BFF56B9B0
:1077F0006349644807F01EFB0021084607F067FB59
:1078000007B0BDE8F08F3478012C40F0A5815E4AC6
:107810005E495C48DFF8B8815D4F07F015FB3278B0
:107820005C4958485C4E07F00FFB5C49554807F02F
:107830000BFB642011F024F8594B93F808902B7837
:10784000B9F1010F40F0C680564C002B7AD0564952
:10785000494803F08DFC484903A807F0C3F900210B
:10786000084603AAFFF760FF03A807F075F9D8F8E8
:1078700000204E49404803F05BFC3F4903A807F055
:10788000B1F903AA00214846FFF74EFF03A807F00D
:1078900063F9474B47491A68374803F049FC3649B2
:1078A00003A807F09FF903AA40214846FFF73CFFD1
:1078B00003A807F051F922783F492F4803F038FC1C
:1078C0002D4903A807F08EF903AA00210220FFF733
:1078D0002BFF03A807F040F93A883849264812B22E
:1078E00003F026FC244903A807F07CF903AA002131
:1078F0000320FFF719FF03A807F02EF9327830496B
:107900001D4852B203F014FC1B4903A807F06AF9A2
:1079100003AA40210320FFF707FF03A807F01CF983
:107920002849154803F024FC134903A807F05AF925
:1079300003AA00210420FFF7F7FE03A807F00CF9C3
:10794000FFF70CFF18490F4807F074FAD8F8002029
:107950003B8831780B4849B200911BB21A4907F0B5
:1079600073FA22781949074807F06EFA44E700BF16
:10797000E90E0020D11E0020EF0E00200B060308A8
:10798000260603081C1E00203306030837060308DA
:10799000EC0E00203D060308EE0E00206D2A0308C1
:1079A00008000020EA0E00204A06030857060308D4
:1079B000F40F00205F060308670603086F0603083C
:1079C000770603087F0603088A060308A60603084D
:1079D000F80F0020002B00F08E80A349A34803F08D
:1079E000C7FBA24903A807F0FDF80021084603AA37
:1079F000FFF79AFE03A807F0AFF8D8F800209C49DB
:107A00009A4803F095FB994903A807F0EBF803AAFD
:107A100000212046FFF788FE03A807F09DF895484F
:107A200006F0FFFDFEF756FD8DA3D3E90023FEF718
:107A3000F5FE0B46024690498C4803F079FB8B49D2
:107A400003A807F0CFF803AA00210220FFF76CFE7D
:107A500003A807F081F8894806F0E5FD8849024649
:107A6000824803F065FB814903A807F0BBF803AA2D
:107A700000210320FFF758FE03A807F06DF88148A6
:107A800006F0D3FD7D2200FB02227F49774803F0F8
:107A90004FFB764903A807F0A5F803AA402103206D
:107AA000FFF742FE03A807F057F83A8877496F4876
:107AB00012B203F03DFB6D4903A807F093F803AA47
:107AC00000210420FFF730FE03A807F045F83278C4
:107AD0006F49664852B203F02BFB644903A807F0D4
:107AE00081F803AA40210420FFF71EFE03A807F037
:107AF00033F8FFF733FE6749674807F09BF9D8F87A
:107B000000203B883178644849B21BB20091634938
:107B100007F09AF9574806F084FD0646574806F0E4
:107B200082FD0446574806F080FD05463046FFF7C3
:107B3000F9F8FEF7F1FC4AA3D3E90023FEF76EFE45
:107B40007D2305FB0333CDE9004302460B46524833
:107B5000534907F079F94FE6022C40F00F81514A62
:107B600051494D48514FDFF86C8107F06DF932787B
:107B70004F4949484F4E07F067F94F49464807F0CB
:107B800063F9642010F07CFE0121084607F09FF99C
:107B90002B78002B44D04949344803F0E9FA3349A3
:107BA00003A807F01FF80021084603AAFFF7BCFD51
:107BB00003A806F0D1FF3A6841492C4803F0B8FA0F
:107BC0002A4903A807F00EF803AA00210120FFF7B5
:107BD000ABFD03A806F0C0FF3A683A49D8F8003078
:107BE000224803F0A5FA214903A806F0FBFF03AAE7
:107BF00040210120FFF798FD03A806F0ADFF326891
:107C000031491A4803F094FA184903A806F0EAFF2C
:107C1000204603AA0021FFF787FD03A806F09CFF7A
:107C200026491D4807F006F93A6828491A4807F01E
:107C30000BF932682649184807F006F93368013B0A
:107C40000F2B00F29980DFE803F047797B7D7F817D
:107C5000838587898B8D8F91939500BFAFF30080CB
:107C60000000000080842E41AD060308EF0E0020C6
:107C7000BB060308071F0020CF060308081F0020CB
:107C8000D6060308091F0020DC0603086F06030858
:107C9000E2060308E90603081C1E00208A06030802
:107CA000F60603083306030837060308F80F00201A
:107CB0000A070308FC0F00206D2A03084A06030880
:107CC000570603085F060308170703083007030871
:107CD0003B070308F40F00205149524803F048FACB
:107CE000504A5149514807F0AFF8D8F800205049A0
:107CF0004E4807F0A9F82B78002B3FF47DAD494999
:107D000003A806F06FFF03AA00210320FFF70CFD74
:107D100003A806F021FF4749424803F029FA4149E8
:107D200003A806F05FFF03AA00210420FFF7FCFC74
:107D300003A806F011FFFFF711FD5DE53E49CCE712
:107D40003E49CAE73E49C8E73E49C6E73E49C4E75F
:107D50003E49C2E73E49C0E73E49BEE73E49BCE76F
:107D60003E49BAE73E49B8E73E49B6E73E49B4E77F
:107D70003E49B2E73E49B0E73E49AEE7032C40F04A
:107D800087803D4A3D49294807F05EF832783C49F2
:107D9000264807F059F83B49244807F055F8642075
:107DA00010F06EFD2B78002B3FF426AD36491D48B0
:107DB00003F0DEF91B4903A806F014FF002103AA13
:107DC0000846FFF7B1FC03A806F0C6FE2F4903A83A
:107DD00006F008FF03AA00210120FFF7A5FC03A875
:107DE00006F0BAFE294903A806F0FCFE03AA00210A
:107DF0000220FFF799FC03A806F0AEFE13490948DC
:107E000003F0B6F9074903A806F0ECFE002103AA27
:107E10002046FFF789FC03A806F09EFE1B497FE77A
:107E200055070308EF0E0020532203081C1E0020F4
:107E30003D0803087F060308630703086E0703086D
:107E40007A07030886070308900703089A070308C0
:107E5000A6070308BA070308CD070308DD070308D0
:107E6000EA070308F40703080408030812080308D4
:107E70001E0803082F080308330603083706030803
:107E80004E0803086D2A03085D0803086608030806
:107E9000042C7FF4B1ACA44AA449A548DFF82CA374
:107EA000DFF82C93A34F06F0CFFF3278A249A04809
:107EB000A24E06F0C9FFA2499D4806F0C5FF642006
:107EC00010F0DEFC2B789F4D002B00F0A0809E4B25
:107ED00029789E4A9E48DFF8FCB2002918BF1A464E
:107EE0009C4903F025F99A4903A806F07BFE00217E
:107EF00003AA0846FFF718FC03A806F02DFE2A780F
:107F000002F0FF08002A40F0A1803A789249904898
:107F100003F00EF98E4903A806F064FE03AA414659
:107F20000120FFF701FC03A806F016FE32688B491A
:107F3000874803F0FDF8864903A806F053FE03AA1C
:107F400041460220FFF7F0FB03A806F005FEDBF830
:107F5000002083497E4803F0EBF87D4903A806F032
:107F600041FE03AA40210220FFF7DEFB03A806F032
:107F7000F3FD7C4B7C491A78754803F0D9F87449B5
:107F800003A806F02FFE03AA41460320FFF7CCFB0F
:107F900003A806F0E1FD754806F062FC744902464C
:107FA0006B4803F0C5F86A4903A806F01BFE03AA54
:107FB00040210320FFF7B8FB03A806F0CDFDBAF877
:107FC00000206C49624812B203F0B2F8604903A87D
:107FD00006F008FE03AA41462046FFF7A5FB03A8CA
:107FE00006F0BAFD99F800206349594852B203F0EF
:107FF0009FF8574903A806F0F5FD03AA4021204643
:10800000FFF792FB03A806F0A7FDFFF7A7FB29786F
:108010004D4B4E4A4648002918BF1A46574906F0AC
:1080200013FF3268BAF8003099F80010404849B29E
:1080300000911BB2524906F007FF4A4B51491A788A
:108040003B483B7806F000FFFFF7D6BB3268434958
:108050003F4803F06DF83E4903A806F0C3FD03AAAC
:1080600000210120FFF760FB03A806F075FDDBF897
:1080700000203B49364803F05BF8354903A806F079
:10808000B1FD03AA40210120FFF74EFB03A806F033
:1080900063FD2A783C492E4803F04AF82C4903A88E
:1080A00006F0A0FD03AA00210220FFF73DFB03A874
:1080B00006F052FD2B78013B0F2B00F28D80DFE89C
:1080C00003F0081416181A1C1E20222426282A2C15
:1080D0002E302E491E4803F04BF81D4903A806F028
:1080E00081FD03AA002103208AE72949F2E72949F3
:1080F000F0E72949EEE72949ECE72949EAE7294968
:10810000E8E72949E6E72949E4E72949E2E7294977
:10811000E0E72949DEE72949DCE72949DAE7294987
:10812000D8E72949D6E700BF330603083706030816
:108130001C1E0020EF0F00207A080308F80F002013
:108140006D2A0308F10F002007060308080603083C
:10815000EF0E0020890803089A0803085706030851
:108160005F060308F00F0020AD080308E71E00209B
:10817000B60803086F060308E2060308D1080308DF
:108180008A060308DF080308BC080308550703082C
:10819000630703086E0703087A07030886070308C6
:1081A000900703089A070308A6070308BA070308FD
:1081B000CD070308DD070308EA070308F4070308EF
:1081C00004080308120803081E080308EC0E002028
:1081D000EE0E0020F40F002000497BE72F08030873
:1081E0001FB504AB03E907000121002006F06FFE74
:1081F0000A4BBDF90A201A80094B9DF90C201A7010
:10820000084A0948136801331360084B0121FA2218
:10821000197005B05DF804EB06F045BCEC0E0020CB
:10822000EE0E0020F80F0020D51E0020E80E0020E2
:1082300010B5184A18490446184806F005FE1849B2
:10824000164806F001FE1749144806F0FDFD6420AB
:1082500010F016FB144B94F906201A70134BB4F966
:1082600004201A80124A23781370124A6178117020
:10827000114AA17811701BB1104A136801331360C1
:108280000F4B104804221A70BDE81040FA22012159
:1082900006F009BC33060308370603081C1E00203D
:1082A000F80803086D2A0308EE0E0020EC0E0020EB
:1082B000F10F0020EF0F0020F00F0020F40F00203E
:1082C000E80E0020D51E00201FB51F4806F0C6FA94
:1082D0001E4A1F4940B31F4806F0B6FD1E491D48FF
:1082E00006F0B2FD1D491B4806F0AEFD642010F0FB
:1082F000C7FA1B4B03931B4B1B7853B1002300930E
:108300001948022303AA042106F011FA05B05DF80A
:1083100004FB01230822CDE900320421022303AA31
:10832000114806F0DFF9F1E70A4806F08DFD0F4924
:10833000084806F089FD0949064806F085FD6420D5
:1083400010F09EFAE2E700BFE31E002033060308A8
:10835000370603081C1E00200A0903086D2A0308BB
:108360000102030405000020D81E0020160903089E
:1083700038B1044B044803221A700121FA2206F096
:1083800092BB7047E80E0020D51E002010B50121D9
:108390000446002006F09BFD0D4BB4F90A201A801C
:1083A0000C4B94F90C201A700B4B62781A700B4A24
:1083B0001368013313600A4B1B7843B9094B0A4811
:1083C00001211970BDE81040FA2206F06CBB10BD07
:1083D000EC0E0020EE0E0020EA0E0020F80F002028
:1083E00005000020E80E0020D51E002010B5044630
:1083F00018B3124A1249134806F026FD002212490A
:10840000104806F021FD11490E4806F01DFD6420BC
:1084100010F036FA0E4B1C600E4B1B786BB90E4AEF
:108420000E481368013313600D4B02221A70BDE829
:108430001040FA22012106F036BB10BD33060308B6
:10844000370603081C1E0020340903086D2A0308A0
:10845000FC0F002005000020F40F0020D51E002096
:10846000E80E0020014806F00ABD00BF6C1E002087
:1084700037B5254A2549264806F0E6FC2549244813
:1084800006F0E2FC2449224806F0DEFC642010F0ED
:10849000F7F9224B224800251D70224B01241C7045
:1084A00006F0FFF92049214806F064F920491F48E9
:1084B00006F070F91F491D4806F064F921461E4870
:1084C00006F0B6F929461D4806F0D8F93223009384
:1084D00016480A232246214606F0E9F890B90A4ACE
:1084E0000A490B4806F0B0FC1549094806F0ACFCF7
:1084F0000949074806F0A8FC642003B0BDE83040F5
:1085000010F0BEB903B030BD3306030837060308C8
:108510001C1E0020430903086D2A030805000020E3
:10852000FB1E0020040000208D830008D81E0020C0
:10853000ED83000871830008E01E0020FA1E002071
:108540005209030813B5274A2749284806F07CFC3E
:108550002749264806F078FC2649244806F074FC92
:10856000642010F08DF9244B244801241C70244B06
:108570001C7006F096F92349234806F0FBF82349BE
:10858000214806F007F922491F4806F0FBF8214967
:108590001D4806F007F900211F4806F049F902219D
:1085A0001E4806F06BF93223009317480A2322462F
:1085B000214606F07CF890B90A4A0B490B4806F0B0
:1085C00043FC1749094806F03FFC0A49074806F0F2
:1085D0003BFC642002B0BDE8104010F051B902B07D
:1085E00010BD00BF33060308370603081C1E002019
:1085F000670903086D2A030805000020FB1E002000
:10860000040000208D830008D81E0020ED830008A0
:108610007183000831820008E01E0020FA1E00204D
:108620005209030807B5304A3049314806F00CFCBE
:1086300030492F4806F008FC2F492D4806F004FC6D
:10864000642010F01DF92D4B2D4800221A703223A2
:10865000009311460A2306F02AF878B9224A2349E2
:10866000234806F0F1FB2749214806F0EDFB22499B
:108670001F4806F0E9FB642010F002F922480021AF
:1086800005F0DBFF78B9184A1849194806F0DCFBF9
:108690001E49174806F0D8FB1749154806F0D4FBC9
:1086A000642010F0EDF81A4805F0DAFF78B90E4AA8
:1086B0000E490F4806F0C8FB16490D4806F0C4FBEA
:1086C0000D490B4806F0C0FB642010F0D9F81249A0
:1086D0000D4805F0D2FF0C484FF6FD7103B05DF870
:1086E00004EB05F0AABF00BF3306030837060308F2
:1086F0001C1E00207C0903086D2A030804000020CA
:10870000D81E00208B090308FC1E00209F090308C7
:10871000121F0020B5090308E18100082DE9F04788
:10872000012186B0002006F0BBFB0121084606F0BF
:10873000B7FB9548954C022306224FF4E13105F032
:1087400009FF0122009200239149924802F0F0FCB7
:10875000904903A806F046FA03A98F4806F04EF99F
:1087600003A806F0F9F98D4806F0E4FAFEF758FF81
:10877000207068B18A4806F063F9FDF7CDFE024625
:108780000B468448874902F0D3FC8248FEF77AFF03
:108790000121002006F09BFB06F0A5FB7A4F064660
:1087A0004FF0000A384605F0BBFE0546C8B906F092
:1087B0009AFB41F28732B0EB06086AEB4A090023C4
:1087C000424573EB09030CDB642010F059F828468E
:1087D00006F082FBB0FA80F14909284606F077FBE3
:1087E000E0E70021084606F072FB0021012006F0B8
:1087F0006EFB23787BB96C4A6C49634806F024FB16
:108800006B49614806F020FB6A495F4806F01CFB93
:10881000642010F035F800F005FC78B9624A63492D
:10882000594806F011FB6449574806F00DFB6149B1
:10883000554806F009FB642010F022F800F0C6FB52
:1088400078B9594A5949504806F0FEFA5B494E48F2
:1088500006F0FAFA57494C4806F0F6FA642010F090
:108860000FF800F0C9FB78B94F4A5049464806F066
:10887000EBFA5349444806F0E7FA4E49424806F0FD
:10888000E3FA64200FF0FCFF00F0C8FD78B9464A17
:1088900046493D4806F0D8FA4A493B4806F0D4FA22
:1088A0004449394806F0D0FA64200FF0E9FF464DFC
:1088B0002A7A012A62D0022A63D03AB34349324865
:1088C00006F0B8FA23780BB34149324802F050FC65
:1088D000304903A806F086F9002103AA0846FEF7EE
:1088E00023FF03A806F038F93A492A4802F040FC71
:1088F000284903A806F076F903AA00210120FEF713
:1089000013FF03A806F028F9FEF728FFFFF71AFE69
:10891000314C227862B1314A31480123002106F0FE
:10892000B8F86A6822B100232D48194606F0BBF852
:1089300000232C4A2A48012106F0ABF8237833B1F2
:10894000294805F08BFF10B9284805F09FFE164A0C
:1089500016490D4806F078FA25490B4806F074FAD6
:108960001449094806F070FA64200FF089FF0121CC
:10897000204806F08CFA06B0BDE8F087FFF778FDD6
:10898000C6E7FFF74FFEC3E71C1E0020E90E0020DC
:10899000CC090308EF0E00207C1E0020141F0020CD
:1089A000D11E00200B060308330603083706030810
:1089B000E20903086D2A0308F0090308170A0308EF
:1089C000450A03086F0A030808000020940A0308F8
:1089D000B50A0308C70A030804000020C98200087A
:1089E000D51E0020C1770008E31E0020D81E0020FD
:1089F000D70A03086D1E002010B598B01446A84988
:108A00000EA806F0EFF80023CDE91433CDE91633B4
:108A1000636E012B06D1A3492068FDF7B1FB18B1A5
:108A200002241EE2002BFBD19F49A048A04C06F077
:108A30000BFAA0499D4806F007FA64200FF020FFCA
:108A40009D4B227A9D4953F82220984806F0FCF964
:108A50009849964806F0F8F964200FF011FF9849FC
:108A600011A805F0D5FF11A90EA806F0CDF811A8A0
:108A700006F072F80EA806F009F90E9A91498B4893
:108A800006F0E2F98B49894806F0DEF964200FF020
:108A9000F7FE8D4911A805F09BFF119A8B49834879
:108AA00006F0D2F911A806F057F882497F4806F07F
:108AB000CBF964200FF0E4FE4FF47A7362688449C6
:108AC000B2FBF3F2794806F0BFF97A49774806F02D
:108AD000BBF964200FF0D4FE7E4805F0DEFE7E4B2D
:108AE0007E4953F820200446704806F0ADF97149DC
:108AF0006E4806F0A9F964200FF0C2FE012C40F088
:108B0000B681774805F0AAFE764B774A7749002868
:108B100008BF1A46654806F097F96649634806F0AB
:108B200093F964200FF0ACFE714805F09BFE71498B
:108B3000024604465D4806F087F95E495B4806F048
:108B400083F964200FF09CFE6B4B6C4953F8242092
:108B5000564806F079F95749544806F075F96420EB
:108B60000FF08EFE664805F072FE0446002800F005
:108B7000D78064494D4806F067F94E494B4806F0E6
:108B800063F964200FF07CFE082214A95E4805F00A
:108B90003DFE9DF8573005939DF8563004939DF89F
:108BA000553003939DF8543002939DF85330019350
:108BB0009DF852309DF85020544900933B489DF851
:108BC000513006F041F93B49384806F03DF9642040
:108BD0000FF056FE082214A94D4805F0EBFD9DF854
:108BE000573005939DF8563004939DF85530039304
:108BF0009DF8543002939DF8533001939DF8523004
:108C00009DF850204349009328489DF8513006F0C4
:108C10001BF92849254806F017F964200FF030FEAB
:108C2000102214A93C4805F0CEFD9DF85F300D934D
:108C30009DF85E300C939DF85D300B939DF85C3091
:108C40000A939DF85B3009939DF85A3008939DF87C
:108C5000593007939DF8583006939DF85730059387
:108C60009DF8563004939DF8553003939DF8543089
:108C700002939DF8533001939DF8523000939DF874
:108C800050209DF851302549084806F0DDF8094983
:108C9000064806F0D9F864200FF0F2FD0024E0E069
:108CA0006E2A0308DA490308F00A03081C1E002094
:108CB000080000206C2A030850000020FF0A030867
:108CC000AC1E00200D0B0308701E0020180B0308BB
:108CD000240B0308FB1E002014000020340B0308A3
:108CE000E31E0020E50A03085E270308440B03087F
:108CF000F91E00204F0B0308200000205A0B030828
:108D0000E21E0020650B0308DD1E00206F0B030828
:108D1000D91E0020990B0308DA1E0020C30B03089C
:108D20009149924806F090F89149904806F08CF8E5
:108D300064200FF0A5FD102214A98E4805F04CFD0B
:108D40009DF85F300D939DF85E300C939DF85D307B
:108D50000B939DF85C300A939DF85B3009939DF866
:108D60005A3008939DF8593007939DF85830069370
:108D70009DF8573005939DF8563004939DF8553073
:108D800003939DF8543002939DF8533001939DF85E
:108D900052309DF850207849009374489DF8513026
:108DA00006F052F87249714806F04EF864200FF050
:108DB00067FD102214A9714805F031FD9DF85F3060
:108DC0000D939DF85E300C939DF85D300B939DF8EC
:108DD0005C300A939DF85B3009939DF85A300893F4
:108DE0009DF8593007939DF8583006939DF85730F9
:108DF00005939DF8563004939DF8553003939DF8E4
:108E0000543002939DF8533001939DF852309DF8F1
:108E100050205B49009355489DF8513006F014F8F6
:108E20005349524806F010F864200FF029FD04223F
:108E300014A9544805F0D9FC9DF8533001939DF8CE
:108E4000523000939DF850209DF851304E494748CC
:108E500005F0FAFF4649454805F0F6FF64200FF09B
:108E60000FFD0EA805F078FE204618B010BD47484B
:108E7000002C52D105F0D5FB454902463B4805F090
:108E8000E3FF3B49394805F0DFFF64200FF0F8FCB1
:108E9000404805F0C8FB40490246344805F0D4FF7D
:108EA0003349324805F0D0FF64200FF0E9FC3B481D
:108EB00005F0BBFB3A4902462C4805F0C5FF2C499A
:108EC0002A4805F0C1FF64200FF0DAFC354805F0B0
:108ED000AEFB35490246254805F0B6FF2449234834
:108EE00005F0B2FF64200FF0CBFC304805F0A1FB89
:108EF0002F4902461D4805F0A7FF1D491B4805F0F4
:108F0000A3FF64200FF0BCFC2A4805F094FB2A491B
:108F10000246164805F098FF9CE705F082FB1C49C5
:108F20000246124805F090FF1149104805F08CFFE9
:108F300064200FF0A5FC214805F08EFB2049024675
:108F40000A4805F081FF0A49084805F07DFF6420C2
:108F50000FF096FC1B4805F081FB1B4902460348B5
:108F600005F072FF93E600BF0D0C03081C1E0020E5
:108F70006C2A0308DB1E0020160C0308DF1E0020ED
:108F8000610C0308DC1E0020AB0C0308071F002047
:108F9000C60C0308081F0020D50C0308091F002079
:108FA000DD0C03080A1F0020E50C03080B1F00203E
:108FB000ED0C03080C1F0020020D0308101F0020F9
:108FC000100D0308111F00201D0D030807B5032312
:108FD0000193054B0093054B054A0648194605F0D9
:108FE00037FD03B05DF804FB159100082B0D030855
:108FF000330D0308D21E002007B503230193054B50
:109000000093054B054A0648194605F021FD03B0BB
:109010005DF804FB65920008860D03088B0D0308BC
:10902000D21E002007B502230193054B0093054B88
:10903000054A0648194605F00BFD03B05DF804FB30
:10904000F9890008D30D0308DA0D0308D21E0020A9
:109050001FB5AA238DF80430254B26495A68029281
:109060001B7A254A25488DF80C3005F0EDFE9DF859
:1090700004202349214805F0E7FE22491F4805F056
:10908000E3FE64200FF0FCFB1B4A1A491B4805F065
:10909000DBFE029A1C49194805F0D6FE194917480B
:1090A00005F0D2FE64200FF0EBFB134A1149134880
:1090B00005F0CAFE9DF80C201449104805F0C4FEC6
:1090C00010490E4805F0C0FE64200FF0D9FB10488F
:1090D0000C2301AA002105F0D2FC28B901460C237B
:1090E0000B4801AA05F0CBFC05B05DF804FB00BFFE
:1090F0000800002037060308F10D03081C1E00209D
:10910000F80D03086D2A03080B0E0308290E030847
:10911000D31E0020536E012B70B50E46154646D166
:1091200043491068FDF72CF8044698B9414B424971
:109130005A6842484FF47A73B2FBF3F3324605F0B3
:1091400083FE3F493D4805F07FFE64200FF098FB09
:10915000204670BD3B4A3C49384805F075FE2A68F8
:109160003A49364805F070FE3949344805F06CFE3E
:1091700064200FF085FB2D682846FDF70BF80024CE
:10918000844218D02B5D303B092B12D92D4A2E4931
:109190002A4805F059FE2F492848224605F054FE7A
:1091A0002B49264805F050FE64200FF069FB02248D
:1091B000CEE70134E4E70A220021284602F0AEF8A7
:1091C000204A21491B4D04461C4805F03DFE22461D
:1091D00021491A4805F038FE1D49184805F034FEAB
:1091E00064200FF04DFB4FF47A70164A1649444341
:1091F00012486C6005F028FE6A6818490F4805F0AF
:1092000023FE13490D4805F01FFE64200FF038FBC4
:109210001348002105F051FC6A6822B10023104870
:10922000194605F040FCFFF713FF002490E700BF4C
:10923000DA490308080000203F0E03081C1E002026
:109240006C2A0308F10D030837060308460E0308CD
:109250006D2A03085B0E03086A0E0308810E0308DB
:10926000D51E0020536E012B70B50E46154601D059
:10927000022413E05A491068FCF782FF044678B9CB
:10928000584B59491B7A5948324605F0DDFD58497B
:10929000564805F0D9FD64200FF0F2FA204670BD63
:1092A000544A5549514805F0CFFD2A6853494F4863
:1092B00005F0CAFD52494D4805F0C6FD64200FF087
:1092C000DFFA2D682846FCF765FF0024844217D09A
:1092D0002B5D303B092B11D9464A4749434805F0DD
:1092E000B3FD22464749414805F0AEFD44493F4899
:1092F00005F0AAFD64200FF0C3FAB9E70134E5E7F1
:109300000A220021284602F009F8364E394A3A4925
:10931000347A0546354805F097FD2A463A493348E0
:1093200005F092FD3649314805F08EFD64200FF0BE
:10933000A7FA022D9CD8A54201D10024AEE71CB9A2
:10934000012D04D0012413E0012CFBD185B9294A59
:109350002949264805F078FD2C49244805F074FD7C
:109360002749224805F070FD64200FF089FA002497
:10937000204A21491D48357205F066FD327A24499C
:109380001A4805F061FD1E49184805F05DFD64208E
:109390000FF076FAFFF75CFE337A012B19D0022B1F
:1093A0001AD00BB9FFF7CEF8002CC6D019490F48D8
:1093B00005F04AFD0E490D4805F046FD64200FF00A
:1093C0005FFA41F288300FF05BFA134805F036FB84
:1093D000B3E7FFF74DF8E7E7FFF724F9E4E700BF4D
:1093E000DA49030808000020920E03081C1E002022
:1093F0006C2A0308F10D030837060308460E03081C
:109400006D2A03085B0E0308980E0308AB0E0308D1
:10941000C50E0308D70E03086C1E00207FB500257B
:10942000AA238DF8043001AA2946484802950C2346
:109430008DF80C5005F019FB0646454A454946484B
:109440006EB905F001FD4549434805F0FDFC44496E
:10945000414805F0F9FC64200FF012FA3AE005F0FB
:10946000F3FC9DF804203F493B483F4C05F0ECFCE1
:109470003B49394805F0E8FC64200FF001FA344A12
:109480003449354805F0E0FC029A3849324805F085
:10949000DBFC3349304805F0D7FC64200FF0F0F9CD
:1094A0009DF80430AA2B18D0294A2A492A4805F0E9
:1094B000CBFC029A2E49284805F0C6FC28492648CC
:1094C00005F0C2FC64200FF0DBF965602572FFF740
:1094D000BFFD2E46304604B070BD029B63609DF810
:1094E0000C30022B30D91A4A1A491B4805F0ACFC43
:1094F0009DF80C201F49184805F0A6FC184916488D
:1095000005F0A2FC64200FF0BBF92572FFF7A0FD67
:109510000F4A1049104805F097FC626816490E483A
:1095200005F092FC0E490C4805F08EFC64200FF00B
:10953000A7F9074A0749084805F086FC227A0F492F
:10954000054805F081FC82E72372E1E7D31E002085
:10955000F10D0308370603081C1E0020F40E030853
:109560006D2A03081C0F0308080000202B0F0308B6
:10957000430F0308780F0308930F0308AB0F03088A
:10958000704700207047000010F0800F0B4A02D196
:1095900000231370704713781070C22B0CD0C32BAC
:1095A00003D0822B04D00020704740F0C0007047E9
:1095B000AC280CBF80200020704700BF00100020A6
:1095C000F8B504460846238CC3B10D2916D0E36ACA
:1095D0009847054690B1628C268CA38CE18CB242F0
:1095E0000ED28B420ED2A36A9854638C0A2803F1E0
:1095F0000103638402D1A38C0133A3840120F8BD4D
:109600008B4201D3013BA384002399B28A4213D930
:10961000A06AC75C01310A2F89B203F10103F4D1BA
:10962000521A92B26284014401F058F82368294624
:109630001B6820469847E1E7B24224BF00236384B9
:10964000F4E7000009490160802141820849416135
:109650004FF4807101830749C161002206494260CD
:10966000C0E902220274C162704700BFDC1A03081D
:10967000400000042910030889950008002370B5F4
:10968000C0E9083383620368DB69044698470546EE
:1096900010B90025284670BDA368F3B1E368002B1C
:1096A000F8D12368E68A5B6920469847304401F088
:1096B00005F82368E0605B6920469847E668064441
:1096C000E660002EE6D12368A5685B6920469847CE
:1096D000281A00F0FBFF3546DCE72368E68A5B6961
:1096E00020469847304400F0E9FF2368A0605B699A
:1096F00020469847A3681844A0600028CED1C8E748
:1097000038B5856804463DB103685B699847281AF7
:1097100000F0DCFF0023A360E56845B12368204624
:109720005B699847281A00F0D1FF0023E360A06A24
:1097300018B100F0CBFF0023A36238BD10B5034B76
:1097400003600446FFF7DCFF204610BDDC1A030867
:1097500041767047002930B524DB448AA14221DAE2
:10976000002A1FDB838A9A421CDA437E012B0FD02A
:10977000022B18D0B3B9D31004FB0311806802F098
:10978000070201239340425C22EA0302425409E0AB
:10979000D510806804FB051102F007029340425C7B
:1097A0001343435430BDD31004FB031180680123DD
:1097B00002F0070203FA02F2435C5A40E6E72DE9A1
:1097C000F74FBDF93070A7EB0208A3EB0109B8F120
:1097D000000FB8BFC8F10008B9F1000FB8BFC9F158
:1097E0000009C84583460C46154604DD1A462C463A
:1097F0003B460D4617469C4205DD2A463D46174628
:1098000022461C4613461E1BB2B2A7EB050A009265
:10981000C6F3C032BAF1000F02FA86F6B8BFCAF139
:10982000000A7610BD42B4BF01274FF0FF379C42BB
:1098300018DCC845CBBF2946214622462A46A6EB5E
:109840000A0658460193FFF785FFB1B236B2002EE3
:10985000019B04DA009A3D4456182DB236B2013409
:1098600024B2E4E703B0BDE8F08F0029F0B571DB66
:10987000458AA9426EDA002ABEBF9B181BB200229D
:10988000848A9E18A642C4BFA31A1BB2002B61DDB6
:10989000D410866805FB041112F0070206EB0105DF
:1098A0006CD0C2F10802FF27D2B29A4247FA02F402
:1098B000C8BFA2EB030C6FEA0404C8BF47FA0CF759
:1098C000E4B2C8BF3C40477E012F06D0022F26D00D
:1098D00037B9775C27EA040401E0775C3C437454B1
:1098E0009A4237DC9B1A1BB2428A072B15442FDDA4
:1098F000427E012A16D9022A2DD003F00702012345
:109900009340417EDBB25A1E0129D2B22FD00229E8
:1099100031D0F9B92A785B4213402B701AE0775C9A
:109920007C40DCE75242D2B219462A70448A083998
:1099300025448CB2072C09B2F7D89BB2A3F10802D8
:10994000C2F3CC02C2EB423203EBC203083B1BB2B0
:10995000002BD2DCF0BD1A462978C9432970418A10
:10996000083A0D4491B2072912B2F5D8E5E72B78F1
:109970001A432A70EEE72B785A40FAE7072BB7DC38
:10998000BBE7F8B5BDF9187015460C46CE18B442C1
:1099900007DA21463B462A460134FFF766FF24B228
:1099A000F5E7F8BD2DE9F04F04461746227E8DB04D
:1099B0009846C369BDF85C505878022A0E4608D014
:1099C000032A03D0012A07D14E1B04E0A7EB50075E
:1099D0003FB2A6EB550636B2F54200F1E580628A49
:1099E000964200F3E180F84200F1DE80BA42C0F214
:1099F000DB809A78DB78029201380133C0109B003B
:109A000001300793C3B203930693FB100893BDF88C
:109A1000583007F0070A43440993CAF108034FF08E
:109A2000000B0193099B434500F0BE8018F8011B11
:109A3000029B8B42F6D8C91AC9B24FF0040EE069F6
:109A40001EFB01E311FB0EF510F803C00EFB010332
:109A50000EFB01015B7991F80790CDF810900CEAAC
:109A60000301FF2900F09B80A18A8F4200F39780B9
:109A70000BEB06018AB20FFA81FE09FA81F1002987
:109A80000592C0F28C80618A8E4500F3888005447F
:109A9000A97911B9069A49465143079A134403EB31
:109AA0000C2310FA83F34FF000090A931FFA89F38D
:109AB0008B4274D2059A039BB9FBF3F3D018039A37
:109AC000B4F812C002FB1393089A134413FB0CF36F
:109AD00085B213FA80F000B2002854DBE38A984282
:109AE00051DA2DB2002D4EDB65454CDA0A9B13F896
:109AF0000950637E012B0BD0022B2ED093B9D4F8E2
:109B000008E01EF8003005FA0AFC23EA0C0307E01F
:109B1000D4F808E01EF8003005FA0AFC43EA0C030A
:109B20000EF80030638AB4F816C0ACEB030C604545
:109B300025DA94F819C0BCF1010F17D0BCF1020F5F
:109B400024D0BCF1000F1AD11844A368019A13F86D
:109B500000C015412CEA050510E0D4F808E01EF815
:109B6000003005FA0AFC83EA0C03D9E71844A3681D
:109B7000019A13F800C0154145EA0C051D540B91DC
:109B800004F0A3FF0B9909F101098FE71844A368BA
:109B9000019A13F800C0154185EA0C05EEE7049B15
:109BA0009B441FFA8BFB3DE70DB0BDE8F08FF0B58D
:109BB000C5690020AF7803464FF6FF7C013A92B2A8
:109BC00062450DD08E5CF41B05EB84040A2EE4790B
:109BD00023449BB2F2D1984238BF18460023EDE7E8
:109BE000984238BF1846F0BD01767047C161704792
:109BF0000368AF219B6918470368AE219B6918472A
:109C00002DE9F0411D46036804460E469B69D921A3
:109C1000174698472368394620469B69984723682A
:109C200020469B69812198472368314620469B69DD
:109C30009847236820469B69DB219847236829467B
:109C400020469B699847236820469B69A421984732
:109C5000236820469B69A6219847236820469B6974
:109C6000BDE8F041AF21184770B5054608460C46DF
:109C7000FCF740FC0EA3D3E90023FCF7A5FC230668
:109C80000CD4FCF779FF002CC1B214BFF1220022E2
:109C9000E3082846BDE87040FFF7B2BF0022064B3C
:109CA000FCF7DAFAFCF768FFF122C1B2F0E700BF77
:109CB00023DBF97E6ABCF23F00804540C28A80689F
:109CC000002100F019BD10B50446FFF7F7FFE28A46
:109CD000E068012100F010FD236820461B69BDE803
:109CE00010401847012901740CD002290ED019B96F
:109CF0008023438240238382428A838A5343DB103A
:109D0000C3827047802343822023F4E7002A08BFE0
:109D10008022002B428208BF4023ECE7037C022B09
:109D200010B5044600F095800368AE219B69984702
:109D30002368D5219B69204698472368F0219B69B9
:109D4000204698472368A8219B6920469847217D93
:109D5000236801399B69C9B2204698472368D321FB
:109D60009B6920469847236800219B6920469847B5
:109D7000236840219B692046984723688D219B6971
:109D800020469847236814219B69204698472368FA
:109D900020219B6920469847236800219B69204623
:109DA00098472368A0219B69204698472368C021D3
:109DB0009B69204698472368DA219B69204698478B
:109DC000227C2368002A3AD19B69122120469847B9
:109DD000236881219B6920469847227C2368002ABA
:109DE00032D19B69CF2120469847236820469B6942
:109DF000D9219847236820469B69F1219847236819
:109E000020469B69DB219847236820469B694021B7
:109E10009847236820469B69A421984723682046D9
:109E20009B69A6219847236820469B692E21984765
:109E3000236820469B69BDE81040AF211847012ADE
:109E4000C6D19B690221C1E7012ACED19B698F212E
:109E5000C9E710BD38B50546FFF710FC044628B128
:109E60002846FFF75BFF2846FFF72DFF204638BD49
:109E70002DE9F843B1F8088008F10106B6B20746AB
:109E800030460D4600F01AFC044618B92C682046EE
:109E9000BDE8F883324601460023284604F0DEFE82
:109EA00000252E46ABB2984504EB060909D9FB6A9A
:109EB000605D984718B10136B6B289F800000135E7
:109EC000F0E7002389F80030E1E700002DE9F04FCA
:109ED000144687B0C2690646894603A819465778D2
:109EE00004F0A1FE03A93046FFF7C2FF804603A895
:109EF00004F032FE337E032BBA4631D100221346E2
:109F000091B2013218F8011021B10A2908BF0133BA
:109F10009BB2F5E75F43C7F34F071549DFF850B031
:109F2000404601F02DF9E41B0546A4B2D5B1284600
:109F3000FCF730F987B229463A463046FFF737FE3C
:109F40002B4622B2CDE9007049463046FFF72AFD84
:109F50005946002001F014F954440546A4B2E5E73F
:109F60000027DAE7404600F0B1FB07B0BDE8F08F0C
:109F70006D2A030803F04EBC03F051BC704700008B
:109F800070B5002386B0CDE904334FF0B0420F4DD9
:109F9000D16C41F00201D164D26C039302F0020251
:109FA0004FF48056009201A92846CDE90163009A3A
:109FB00011F00AF83146284611F026F931460446D8
:109FC000284611F0ADF8204606B070BD00040048E8
:109FD0000D2070474FF0B04382B0DA6C0243DA6470
:109FE000DB6C18400190019B02B070472DE9F041F5
:109FF00086B01422002101A800F07EFB0220FFF7AA
:10A00000E9FF144D144F0420FFF7E4FF4FF480766E
:10A0100001230024CDE9016301A903232846CDE9EA
:10A0200003434FF4005810F0CFFF01A93846CDF894
:10A03000048010F0C9FF22464146384611F0EAF884
:10A0400028462246314611F0E5F8204606B0BDE824
:10A05000F08100BF0004004800080048032810B544
:10A060000ED8012810D868B902460B484FF4807109
:10A0700011F0D0F8002209484FF4005111F0CAF84D
:10A08000002010BD0122F0E7002203484FF4807148
:10A0900011F0C0F80122EEE7000400480008004873
:10A0A00002207047002070470120704710B59AB019
:10A0B0004822002108A800F01FFB1822002102A856
:10A0C00000F01AFB11F062FF4FF0B0420024D2F80A
:10A0D000903023F01803C2F89030D2F8003423F403
:10A0E000C06343F40073C2F80034D2F80034119412
:10A0F00003F4C06301934FF48072019B0C922E23F2
:10A100004022089381230B930D920123B02208A8CB
:10A11000CDE90E3410931292139412F089F808B11D
:10A1200003F0A2FD4F23022102A8CDE90234CDE9BC
:10A130000444CDE9064412F01BFB08B103F094FD82
:10A140001AB010BD13B50378082B11D8DFE803F05F
:10A15000128287108E8E05109200047920460DF031
:10A16000D9F920460DF080F9002120460DF0DAF9EA
:10A1700002B010BD00200DF0CDF9012839D1012029
:10A180000DF0C8F9012804D001200EF08FFF00283F
:10A190003DDC02200DF0BEF90128E9D002200EF0CE
:10A1A00085FF0028E4DD012201A902200EF048FE0F
:10A1B00002200DF0AFF90028F0D102200EF054FF7C
:10A1C00000283FD19DF8041002200DF0B9F8E5E712
:10A1D000012201A900200EF033FE00200DF09AF9B3
:10A1E000044630B90EF040FF48B99DF804100DF058
:10A1F000A7F800200EF05AFF0028E9DCBFE701288D
:10A20000F7D19DF8041020460EF086FEF1E70122FA
:10A2100001A910460EF014FE01200DF07BF9002874
:10A22000B2D101200EF020FF28B99DF804100120C2
:10A230000DF086F8A8E70128A6D19DF804100EF0CD
:10A240006BFEA1E70128A9D19DF8041002200EF0B1
:10A2500063FEA3E717F01CFB05F00CFF88E7074B34
:10A260001B68002B84D04068984781E740680EF057
:10A27000CBFF7DE740680EF06BFC79E76468002057
:10A2800030B5284B284A9A6085B00FF033F8FFF7B5
:10A290000DFF4FF0B0430B209A6C42F004029A6419
:10A2A0009A6C02F004020392039A9A6C42F0010243
:10A2B0009A649B6C002203F0010311460293029BF7
:10A2C0000FF080FC0B200FF0AFFC0EF07FFF0EF0C4
:10A2D0007FFA0DF029FA00240146054623460322A1
:10A2E0000120CDE900440EF0EDFC2346032229466F
:10A2F0000220CDE900440EF0E5FC0DF0C3FA06F0B3
:10A30000E9FCE5B228460DF005F910B928460DF034
:10A31000ABF80134032CF4D105B0BDE830400EF0A9
:10A3200039BF00BF00ED00E0006000080EF040BF44
:10A33000F7B5FFF7A5FF4FF0B0432E4EDA6C2E4C69
:10A3400042F00202DA64DB6C03F002030193019B2A
:10A3500008F024FF294B341B1427474300251C44D5
:10A36000BD4223D302F055FBFFF70AFE98B3244801
:10A3700004F00CFE234B24481A68244B196804F09F
:10A3800005FE23480EF020FD05F0A0F8012824D09A
:10A39000022824D010B91F480EF016FD1E4C0EF0F6
:10A3A00007FF2378EBB902F036FBF8E76A46042191
:10A3B00060190EF07FFA69463246042312F801CB89
:10A3C00011F8010B844518BF02F8010C013BF5D1CF
:10A3D00004350436C4E71148CAE71148DCE71148E0
:10A3E000DAE70DF0DDF80028D9D000200EF034FCBB
:10A3F000D5E700BFFC0300200000002088500308C0
:10A40000FC1A0308C8000020121B0308E00000200B
:10A41000221B0308361B030801100020071B03083A
:10A42000421B03084D1B0308054808B508230360B9
:10A4300012F06CFD18B1BDE8084003F015BC08BD72
:10A44000006100204FF0B04307B55A6E42F00102A0
:10A450005A665B6E002203F001030193114632201D
:10A46000019B0FF0AFFB322003B05DF804EB0FF05F
:10A47000DBBB0000024B9868024BC043186070477A
:10A480000028004004100020014B1868704700BFEE
:10A4900004100020034B044A9B681068DB43181A21
:10A4A000704700BF0028004004100020034B1878BC
:10A4B00010B1034B9868C043704700BF02100020E2
:10A4C000002800400320704708B501464FF47A7217
:10A4D0000023C003490CFCF743FE08BD4FF47A7219
:10A4E000A0FB0223D00B40EA4340704710B5074B56
:10A4F000074C0122DA654FF48071204612F036FADB
:10A500004FF0FF332363002010BD00BF0028004040
:10A510004C63002002460021014812F03CBC00BF01
:10A520004C63002002460121014812F034BC00BFF8
:10A530004C63002010B58CB02C220021044601A8E9
:10A5400000F0DAF8FFF7D2FF0C4B18680023044440
:10A55000089306934FF00053E4430793084802948E
:10A560004FF48073012201A90B9312F015FB08B17F
:10A5700003F07AFB00200CB010BD00BF04100020D7
:10A580004C6300200C4B70B59C68064602210B48BA
:10A5900012F008FCE44300221219C2F30E044FF437
:10A5A0007A71A4FB014540F10003E40BD00B348029
:10A5B00040EA434070BD00BF002800404C630020CB
:10A5C0000148002112F0EEBB4C630020014801213C
:10A5D00012F0E8BB4C630020F8B5114E3578E5B9B0
:10A5E000104C2A4629464FF0FF372846276303F0D0
:10A5F0007BF8FFF77BFF4FF48071204612F0B6F92D
:10A600002046276312F072FB2A460221204612F0F0
:10A61000C2FBFFF72FFF012333700020F8BD00BFFE
:10A62000021000204C63002015F0F2BE10B5064C5D
:10A630000221204612F0B6FB0221421C2046BDE852
:10A64000104012F0A8BB00BF4C6300200B4601462F
:10A65000184600F001B8000010B50446044813463F
:10A6600020B10A4602202146AFF3008010BD00BF92
:10A670000000000070B50D4D0D4C641BA4100026A9
:10A68000A64209D10B4D0C4C25F09EF9641BA41079
:10A690000026A64205D170BD55F8043B9847013607
:10A6A000EEE755F8043B98470136F2E76850030897
:10A6B00068500308685003087C500308024B0146A9
:10A6C000186800F06FB800BFE4000020024B01469C
:10A6D000186800F019B800BFE40000200A44914255
:10A6E00000F1FF3300D1704710B511F8014B03F8AA
:10A6F000014F9142F9D110BD02440346934200D16B
:10A70000704703F8011BF9E738B50546002945D025
:10A7100051F8043C0C1F002BB8BFE41801F06AFC90
:10A720001F4A1368104633B9636014602846BDE8B9
:10A73000384001F065BCA3420BD9216862189342EE
:10A7400004BF1A685B68636004BF5218226004602B
:10A75000ECE71A465B680BB1A342FAD911685018AE
:10A76000A0420BD120680144501883421160DDD112
:10A7700018685B68536001441160D7E702D90C2365
:10A780002B60D3E7206821188B4204BF19685B68EF
:10A79000636004BF091821605460C7E738BD00BF7B
:10A7A00008100020F8B5CD1C25F0030508350C2D48
:10A7B00038BF0C25002D064601DBA94203D90C2326
:10A7C00033600020F8BD01F015FC21490A681446E9
:10A7D0009CB9204F3B6823B92146304600F098FCD5
:10A7E00038602946304600F093FC431C23D10C23EB
:10A7F0003360304601F004FCE3E723685B1B17D4A9
:10A800000B2B03D923601C44256004E06368A2423B
:10A810000CBF0B605360304601F0F2FB04F10B00FB
:10A82000231D20F00700C21ACCD01B1AA350C9E781
:10A8300022466468CCE7C41C24F00304A042E3D0A1
:10A84000211A304600F064FC0130DDD1CFE700BFB3
:10A85000081000200C1000202DE9F04788B0002BD4
:10A860001F461446B8BF03F10043129A109DDDF84D
:10A870004CA0B6BF1F4600232D231370149B23F05A
:10A880002008B8F1460F05D0B8F1450F00D10135C9
:10A89000022300E0032307AA049206AACDE902A23C
:10A8A000CDE9003522463B4600F0CEFDB8F1470F1A
:10A8B000064602D1119BDB0722D5B8F1460F06EB05
:10A8C000050910D13378302B0AD10022002320460D
:10A8D0003946FCF7E1F818B9C5F10105CAF800508E
:10A8E000DAF8003099440022002320463946FCF76C
:10A8F000D3F808B1CDF81C903022079B4B4507D305
:10A90000079B159A9B1B3046136008B0BDE8F08783
:10A91000591C07911A70F0E7F7B503460029B8BF34
:10A92000494203F8022BB4BF2D222B220929427081
:10A930002ADD0DF10704A4460A27A6460A4691FB24
:10A94000F7F607FB16153035632A04F1FF340EF8CD
:10A95000015C3146F1DC3031AEF1020504F8011C36
:10A96000441C294661450AD30DF10902A2EB0E02EF
:10A97000654588BF00221344181A03B0F0BD11F8D2
:10A98000012B04F8012FEDE7302330318370C170C3
:10A99000031DF1E72DE9F04F91B00C46DDF868801A
:10A9A00016461F46054601F021FB03680993184629
:10A9B000FBF7F0FB00230E93D8F800300A90073322
:10A9C00023F0070303F1080294F81890D4F800B0BC
:10A9D000C8F80020D3E90023C4E91223D4E9128A7D
:10A9E0002AF000430B930B999C4B4FF0FF324046EB
:10A9F000FCF784F870BB994B0B994FF0FF3240463F
:10AA0000FCF75EF830BB0022002340465146FCF7BD
:10AA10004DF810B12D2384F84330914B9148B9F192
:10AA2000470F94BF98468046032323612BF004030D
:10AA300023604FF0000A009733460FAA21462846AC
:10AA400000F0D2F9013040F08F804FF0FF3011B0AC
:10AA5000BDE8F08F4246534640465146FCF74EF85B
:10AA600040B1BAF1000FBCBF2D2384F843307E48BB
:10AA70007E4BD4E763685A1C09F0DF0142D10623FC
:10AA80006360002206920EAACDE904920DAA4BF44F
:10AA9000806303920DF13302CDE9013223606368D4
:10AAA00000934246534628460B91FFF7D5FE0B997B
:10AAB000472980460D9908D1C81C02DB636899427A
:10AAC00040DDA9F102095FFA89F9B9F1650F1FD8D4
:10AAD00001394A4604F150000D91FFF71DFF0E9A0F
:10AAE0001318012A8246236102DC2268D20701D5AD
:10AAF000013323619DF83330002B9CD02D2384F843
:10AB0000433098E74729BCD1002BBAD10123B7E7DE
:10AB1000B9F1660F18D1002963680BDD216113B903
:10AB20002268D00702D501330B442361A1654FF0A1
:10AB3000000ADFE713B92268D20701D50233F4E730
:10AB40000123F2E74FF067090E9B994205DB23686A
:10AB50002161D807EAD54B1CE7E70029D4BFC1F132
:10AB6000020201221344E0E723685A0507D423694F
:10AB7000424631462846B84701302BD165E7B9F146
:10AB8000650F40F2DC80D4E9120100220023FBF7BC
:10AB900083FF002833D0364A012331462846B84780
:10ABA00001303FF452AFDDE90D239A4202DB236806
:10ABB000D8070FD5DDE9092331462846B8470130CB
:10ABC0003FF443AF4FF0000804F11A090E9B013B1C
:10ABD000434509DC23689B0700F10181E0680F9B76
:10ABE0009842B8BF184632E701234A463146284604
:10ABF000B84701303FF429AF08F10108E6E70D9BA3
:10AC0000002B37DC1A4A012331462846B847013069
:10AC10003FF41BAFDDE90D23134302D12368D907AD
:10AC2000D8D5DDE9092331462846B84701303FF43D
:10AC30000CAF4FF0000904F11A0A0D9B5B424B4523
:10AC400001DC0E9B94E70123524631462846B84763
:10AC500001303FF4FAAE09F10109EEE7FFFFEF7FA3
:10AC60008D1C0308911C0308991C0308951C0308FC
:10AC7000D04903080E9AA36D9A42A8BF1A46002A2B
:10AC8000914637DC4FF0000B29EAE97904F11A020A
:10AC9000D4F858A0AAEB09035B4533DCDDE90D23AA
:10ACA0009A423BDB2368DA0738D40E9A0D99A2EB5F
:10ACB0000A03A2EB01099945A8BF9946B9F1000F13
:10ACC00034DC4FF0000829EAE97904F11A0ADDE9D9
:10ACD0000D239B1AA3EB090343457FF77BAF0123A9
:10ACE000524631462846B84701303FF4AEAE08F12F
:10ACF0000108ECE71346314642462846B847013082
:10AD0000C0D1A2E60123314628460B92B847013054
:10AD10003FF49BAE0B9A0BF1010BB9E7DDE9092378
:10AD200031462846B8470130BFD18EE64B4608EB86
:10AD30000A0231462846B8470130C2D185E60E9A4C
:10AD4000012A01DCDB0737D501234246314628467C
:10AD5000B84701303FF479AEDDE909233146284692
:10AD6000B84701303FF471AED4E91201002200234C
:10AD7000FBF792FED8B90E9B08F10102013B314668
:10AD80002846B84701300ED15FE601234A463146D6
:10AD90002846B84701303FF458AE08F101080E9B31
:10ADA000013B4345F1DC534604F15002E1E64FF02C
:10ADB000000804F11A09F2E701234246DFE7012304
:10ADC0004A4631462846B84701303FF43EAE08F1C6
:10ADD0000108E3680F995B1A4345F0DCFEE64FF08B
:10ADE000000804F11909F4E72DE9F04716469946E1
:10ADF0008A680B69DDF820809342B8BF1346336040
:10AE000091F8432007460C460AB1013333602368AA
:10AE1000990642BF336802333360256815F0060592
:10AE200006D104F1190AE36832689B1AAB4226DCAA
:10AE300094F84320131E226818BF012392062BD4D6
:10AE400004F1430249463846C04701301ED023680A
:10AE5000E568326803F00603042B08BFAD1AA36847
:10AE600022690CBF25EAE57500259342C4BF9B1AF1
:10AE7000ED1800261A34B5421AD1002008E001234B
:10AE8000524649463846C047013003D14FF0FF30A3
:10AE9000BDE8F0870135C6E7E1185A1C302081F87B
:10AEA0004300224494F8451082F843100233C7E768
:10AEB0000123224649463846C0470130E6D00136D4
:10AEC000D9E700002DE9FF470C469146277E0C99F3
:10AED000782F80469A4604F1430207D8622F0AD899
:10AEE000002F00F0D880582F00F0A38004F1420614
:10AEF00084F842703AE0A7F16303152BF6D801A05D
:10AF000050F823F05DAF000871AF0008EDAE000807
:10AF1000EDAE0008EDAE0008EDAE000871AF000820
:10AF2000EDAE0008EDAE0008EDAE0008EDAE000895
:10AF30007DB00008A1AF00085FB00008EDAE0008CA
:10AF4000EDAE00089FB00008EDAE0008A1AF00080C
:10AF5000EDAE0008EDAE000867B000080B681A1DE2
:10AF60001B680A6004F1420684F842300123A3E022
:10AF7000256808682E0600F104030AD505680B60F1
:10AF8000002D03DA2D236D4284F843305E480A23F6
:10AF900019E015F0400F05680B6018BF2DB2EFE700
:10AFA0000B682568181D0860280601D51D6802E099
:10AFB0006906FBD51D8854486F2F0CBF08230A2350
:10AFC000002184F843106668A660002EA2BF2168A5
:10AFD00021F0040121600DB9002E4DD01646B5FBBD
:10AFE000F3F103FB1157C75D06F8017D2F46BB4205
:10AFF0000D46F4D9082B0BD12368DF0708D5236948
:10B0000061689942DEBF302306F8013C06F1FF3645
:10B01000921B2261CDF800A04B4603AA2146404670
:10B02000FFF7E2FE01304CD14FF0FF3004B0BDE835
:10B03000F087354884F8457023680E681F0656F877
:10B04000045B0E6014D5D90744BF43F0200323608E
:10B050001DB9236823F0200323601023B0E7236881
:10B0600043F0200323607823284884F84530E3E741
:10B070005E0648BFADB2E6E71646BBE70B6826683A
:10B0800060691D1D0D6035061B6801D5186002E062
:10B090007106FBD51880002323611646BAE70B68BA
:10B0A0001A1D0A601E68626800213046FBF780F8AE
:10B0B00008B1801B606063682361002384F843301B
:10B0C000A8E72369324649464046D0470130ABD015
:10B0D00023689B0713D4E068039B9842B8BF1846C7
:10B0E000A4E70123324649464046D04701309BD071
:10B0F0000135E36803995B1AAB42F2DCEBE700250C
:10B1000004F11906F5E700BF9D1C0308AE1C0308F7
:10B1100038B5064D0023044608462B6001F052FC6A
:10B12000431C02D12B6803B1236038BD0C610020A1
:10B130000EB400B59CB01DAB029006906FF00041BC
:10B14000094807910491094953F8042B05910068B7
:10B15000019302A901F0CCFA029B00221A701CB0E4
:10B160005DF804EB03B07047E40000200802FFFF25
:10B17000034611F8012B03F8012B002AF9D170477F
:10B18000134B2DE9F0411F68BC6D05460E46B4B95E
:10B190005020FFF793FAB865C0E90044C0E90244C3
:10B1A000C0E90444C0E90A44C0E90C44C0E90E44C3
:10B1B000C0E91044C0E91244846104774462BA6D66
:10B1C000314628460123BDE8F04100F003B800BF36
:10B1D000E4000020F0B508B9106888B104462046A4
:10B1E00014F8015B0F4617F8016B1EB965B91560BD
:10B1F000284605E0B542F6D1002BF0D1146003706B
:10B20000F0BD1C460CE015B914F8013B0E4616F8CB
:10B21000015BAB42F7D1002BF3D0002304F8013CD3
:10B220001460EDE72DE9F0433B4E86468C466046C0
:10B230001CF8014BA55D15F00805F8D12D2C34D173
:10B240009CF800404FF0010800F1020C002B5ED08A
:10B25000102B0CD1302C0AD19CF8000000F0DF003C
:10B2600058284FD19CF8014010230CF1020C4FF0EC
:10B27000FF370025B7FBF3F703FB07F96FEA09096E
:10B280002846A4F13006092E18D83446A34224DDFE
:10B29000002D1FDB87421DD301D1A1451ADB00FB26
:10B2A000034001251CF8014BEBE72B2C08BF9CF851
:10B2B0000040A84608BF00F1020CC7E7A4F1410610
:10B2C000192E01D8373CE1E7A4F16106192E04D804
:10B2D000573CDBE74FF0FF35E4E7002D07DA222388
:10B2E000CEF800304FF0FF3042B9BDE8F083B8F13E
:10B2F000000F00D04042002AF7D00DB10CF1FF3111
:10B300001160F2E73024002BB1D10823AFE7302CD5
:10B31000A2D00A23ABE700BFC01C030813460A46AD
:10B32000014602480068FFF77DBF00BFE40000202F
:10B330002DE9F74F03690C69A3420746C0F28180EB
:10B34000013C01F1140800F1140505EB840301939D
:10B3500058F8243055F8242001339A424FEA840BE0
:10B3600008EB8409B2FBF3F631D34FF0000E4046F0
:10B37000AC46F24650F8042B93B206FB03E34FEAC7
:10B38000134E9BB2AAEB0303120CDCF800A006FBE1
:10B3900002E213FA8AF34FEA124E1FFA82FADCF83D
:10B3A0000020CAEB124202EB23429BB243EA024363
:10B3B00081454CF8043B4FEA224ADBD255F80B306A
:10B3C0002BB9019B043B9D421A462ED33C61384663
:10B3D00001F045F8002824DB013628464FF0000C28
:10B3E00058F8042BD0F800E093B2ACEB0303120C36
:10B3F00013FA8EF3C2EB1E4202EB23429BB243EAE6
:10B400000243C14540F8043B4FEA224CE8D255F8CC
:10B41000242005EB840322B9043B9D421A460AD33B
:10B420003C61304603B0BDE8F08F1268043B002A4F
:10B43000CCD1013CC7E71268043B002AF0D1013CA3
:10B44000EBE70020EEE700002DE9F04F446A99B0E9
:10B4500016461F46CDE90467DDF8948005463CB9E1
:10B460001020FFF72BF9C0E9014468620460C46052
:10B470006B6A196851B15A684A60012393408B6026
:10B48000284600F0F7FD6B6A00221A603B1EB9BF28
:10B4900023F0004305930023C8F80030DDF8149032
:10B4A000A74BBCBF0122C8F8002033EA090319D119
:10B4B000249A42F20F731360C9F31303334300F06D
:10B4C0006D85269B53B99F4B23E09F4B0393083315
:10B4D000269A1360039819B0BDE8F08F994B039337
:10B4E0000333F5E7DDE90434CDE90C34DDE90C0183
:10B4F00000220023FBF7D0FA804660B1249A012392
:10B500001360269B002B00F04685904B269A136013
:10B51000013B0393DEE716AB019317AB009328467C
:10B52000DDE90C2301F02CF8C9F30A548346002C02
:10B530007ED00D9BCDF84C80C3F31303DDE90C01E5
:10B5400043F07F5141F44011A4F2FF34804B0022BC
:10B55000FAF782FE74A3D3E90023FBF735F874A34E
:10B56000D3E90023FAF77AFE064620460F46FAF79B
:10B57000C1FF71A3D3E90023FBF726F802460B466F
:10B5800030463946FAF76AFE06460F46FBF7CCFA14
:10B5900000228246002330463946FBF787FA48B13D
:10B5A0005046FAF7A7FF32463B46FBF775FA08B953
:10B5B0000AF1FF3ABAF1160F57D8664B03EBCA03EC
:10B5C000D3E90023DDE90C01FBF770FA00284ED027
:10B5D0000AF1FF3A00230F93169B1C1B631E09936D
:10B5E00045BFC4F101030693002300234CBF099318
:10B5F0000693BAF1000F3CDB099BCDF838A0534409
:10B60000099300230A93229B092B00F2B580052B96
:10B61000C4BF043B2293229BA3F10203CCBF0024AE
:10B620000124032B00F2B480DFE803F02D987AA404
:10B63000DDE916431C4404F23243202BC3BFC3F19F
:10B64000400304F2124009FA03F3C3F12003C6BF1A
:10B6500026FA00F0184306FA03F0FAF73BFF01233D
:10B66000A1F1F871013C139370E70123B3E70F9048
:10B67000B2E7069BA3EB0A030693CAF100030A9301
:10B6800000230E93BFE700230B93239B002B00F3B3
:10B6900082804FF00109CDF820904B46CDF88C9078
:10B6A0006E6A00227260042202F1140098427168EE
:10B6B00077D9284600F0AAFC6B6A30601B680393B8
:10B6C000089B0E2B00F2EE80002C00F0EB80BAF10C
:10B6D000000F7ADD1F4A0AF00F0302EBC303D3E920
:10B6E00000341AF4807FCDE910344FEA2A145CD07C
:10B6F000194BDDE90C01D3E90823FBF78FF8CDE9FD
:10B70000040104F00F040327134E002C4FD1DDE990
:10B710001023DDE90401FBF781F8CDE904016EE0B7
:10B720000123B1E7AFF3008061436F63A787D23F86
:10B73000B3C8608B288AC63FFB799F501344D33F20
:10B740000000F07FC91D0308C01D0308D14903088C
:10B750000000F83FF81D0308D01D030800230B93D9
:10B76000239B0AEB030909F10103012B0893B8BFDE
:10B77000012395E70123F2E70124002322930B9490
:10B780004FF0FF390022CDF820901223239287E753
:10B7900001230B93F4E7DDF88C90CDF820904B4615
:10B7A0007EE70131716052007EE70227ACE7E107D6
:10B7B00008D5DDE91001D6E90023FAF705FFCDE948
:10B7C00010010137641008369FE700F0A580CAF128
:10B7D0000004A44BA44E04F00F0203EBC203D3E910
:10B7E0000023DDE90C01FAF7EFFECDE90401241195
:10B7F00000230227002C40F08480002B8DD10F9B6A
:10B80000002B00F08B80DDE90434CDE91034DDE954
:10B810001001964B0022FBF749F900287ED0089BC7
:10B82000002B7BD0B9F1000F38DDDDE91001904B22
:10B830000022FAF7C9FECDE904010AF1FF38013709
:10B840004C463846FAF756FEDDE90423FAF7BCFE0B
:10B85000884B0022FAF702FDA1F15076CDE91001E4
:10B860001196002C5DD1DDE90401834B0022FAF72B
:10B87000F3FC02460B46CDE90423109A3346FBF74E
:10B8800033F9002840F09782DDE90401109A06F1AF
:10B890000043FBF70BF9002840F08B82DDE90C3404
:10B8A000CDE90434179B002BC0F25181BAF10E0F81
:10B8B00000F34D816B4B03EBCA03D3E90034CDE9B0
:10B8C0000634239B002B80F2DB80089B002B00F3C7
:10B8D000D78040F06D82684B0022DDE90601FAF75F
:10B8E00073FEDDE90423FBF7F5F8089C26460028E3
:10B8F00040F04382039F312307F8013B0AF1010A1C
:10B900003FE2E20705D5D6E90023FAF75DFE0137ED
:10B910000123641008366DE7022770E7089CD046C3
:10B920008FE703994F4B214412910B9903EBC4030A
:10B93000DDE9106753E90223002946D04F49002072
:10B94000FAF76CFF3B463246FAF786FCCDE9100168
:10B95000039FDDE90401FBF7E7F80446FAF7CAFDA7
:10B9600002460B46DDE90401FAF776FC3034024664
:10B970000B46CDE9042307F8014BDDE91023FBF763
:10B9800095F8002865D1DDE9042338490020FAF74D
:10B9900063FCDDE91023FBF789F8002840F0B6804E
:10B9A000129B9F423FF47AAFDDE91001304B002239
:10B9B000FAF70AFE2E4BCDE910010022DDE9040161
:10B9C000FAF702FECDE90401C3E730463946FAF73B
:10B9D000FBFDCDE91001129B039C1493DDE90401EA
:10B9E000FBF7A2F81590FAF785FD02460B46DDE954
:10B9F0000401FAF731FC159B303304F8013B129B2C
:10BA00009C4206460F464FF0000224D11B4BDDE955
:10BA10001001FAF723FC02460B4630463946FBF785
:10BA200063F8002871D1DDE9102314490020FAF7EA
:10BA300013FC02460B4630463946FBF737F8002820
:10BA40003FF42CAF149F7B1E149317F8013C302B4E
:10BA5000F8D0C24649E0064BFAF7B6FDCDE904013D
:10BA6000BCE700BFF81D0308D01D03080000F03F2D
:10BA70000000244000001C40000014400000E03F93
:10BA8000DDE90489039FDDE9062340464946FAF7CC
:10BA9000C5FEFBF749F80446FAF72CFDDDE906235D
:10BAA000FAF792FD04F130060B460246494640463D
:10BAB000FAF7D2FB07F8016B039E089BBE1BB3424B
:10BAC00038D102460B46FAF7C9FBDDE9062380466A
:10BAD0008946FBF709F858BBDDE90623404649468D
