:020000040800F2
:1060000000FC0020A5B5000821B60008ADB60008C8
:1060100019B700081BB700081DB7000800000000F2
:106020000000000000000000000000001FB7000892
:1060300021B700080000000023B7000823B70008BC
:10604000F5B50008F5B5000841B70008F5B500083A
:10605000F5B50008F5B5000897B700089DB700082A
:10606000A3B70008A9B70008AFB700084DB70008EC
:1060700059B7000865B7000871B70008F5B5000802
:10608000F5B50008F5B50008F5B50008F5B5000848
:10609000F5B50008F5B50008B5B70008F5B5000876
:1060A000F5B50008F5B50008F5B50008F5B5000828
:1060B000F5B50008F5B50008F5B50008F5B5000818
:1060C00061B800086DB80008F5B50008F5B500081E
:1060D0007DB7000895B7000849B80008F5B5000875
:1060E000F5B50008F5B7000829B70008F5B50008B0
:1060F000F5B50008F5B50008F5B50008F5B50008D8
:10610000F5B50008F5B5000835B7000879B80008FE
:10611000F5B50008F5B50008F5B50008F5B50008B7
:10612000F5B50008F5B50008F5B50008F5B50008A7
:08613000F5B50008F5B5000803
:1061400010B5054C237833B9044B13B10448AFF3B1
:1061500000800123237010BD380E002000000000D5
:10616000C0E3020808B5034B1BB103490348AFF372
:10617000008008BD000000003C0E0020C0E30208C3
:10618000034613F8012B002AFBD1181A0138704777
:1061900001F0FF01102A2BDB10F0070F08D010F8D8
:1061A000013B013A8B422DD010F0070F42B3F6D1DC
:1061B000F0B441EA012141EA014122F007047FF0F5
:1061C00000070023F0E80256083C85EA010586EA4C
:1061D000010685FA47F5A3FA87F586FA47F6A5FA88
:1061E00087F68EB9EED1F0BC01F0FF0102F0070294
:1061F00032B110F8013B013A83EA010313B1F8D13F
:106200000020704701387047002D06BF354603381F
:10621000073815F0010F07D1013015F4807F02BF58
:10622000013015F4C03F0130F0BC0138704700BFA9
:1062300010F8012B11F8013B012A28BF9A42F7D030
:10624000D01A704781F0004102E000BF83F00043A4
:1062500030B54FEA41044FEA430594EA050F08BF01
:1062600090EA020F1FBF54EA000C55EA020C7FEAC5
:10627000645C7FEA655C00F0E2804FEA5454D4EB42
:106280005555B8BF6D420CDD2C4480EA020281EA0C
:10629000030382EA000083EA010180EA020281EA44
:1062A0000303362D88BF30BD11F0004F4FEA013196
:1062B0004FF4801C4CEA113102D0404261EB4101A5
:1062C00013F0004F4FEA03334CEA133302D052422B
:1062D00063EB430394EA050F00F0A780A4F10104E7
:1062E000D5F1200E0DDB02FA0EFC22FA05F2801821
:1062F00041F1000103FA0EF2801843FA05F3594107
:106300000EE0A5F120050EF1200E012A03FA0EFC85
:1063100028BF4CF0020C43FA05F3C01851EBE371AF
:1063200001F0004507D54FF0000EDCF1000C7EEBCC
:1063300000006EEB0101B1F5801F1BD3B1F5001F0A
:106340000CD349085FEA30004FEA3C0C04F1010429
:106350004FEA445212F5800F80F09A80BCF1004F52
:1063600008BF5FEA500C50F1000041EB045141EAD4
:10637000050130BD5FEA4C0C404141EB0101013C9D
:1063800028BFB1F5801FE9D291F0000F04BF01468C
:106390000020B1FA81F308BF2033A3F10B03B3F15E
:1063A00020020CDA0C3208DD02F1140CC2F10C02EE
:1063B00001FA0CF021FA02F10CE002F11402D8BF4C
:1063C000C2F1200C01FA02F120FA0CFCDCBF41EA18
:1063D0000C019040E41AA2BF01EB0451294330BDE7
:1063E0006FEA04041F3C1CDA0C340EDC04F11404C4
:1063F000C4F1200220FA04F001FA02F340EA03009B
:1064000021FA04F345EA030130BDC4F10C04C4F1E0
:10641000200220FA02F001FA04F340EA03002946C0
:1064200030BD21FA04F0294630BD94F0000F83F40A
:10643000801306BF81F480110134013D4EE77FEAED
:10644000645C18BF7FEA655C29D094EA050F08BF39
:1064500090EA020F05D054EA000C04BF194610461A
:1064600030BD91EA030F1EBF0021002030BD5FEA5E
:10647000545C05D14000494128BF41F0004130BD86
:1064800014F580043CBF01F5801130BD01F00045DA
:1064900045F0FE4141F470014FF0000030BD7FEA4D
:1064A000645C1ABF194610467FEA655C1CBF0B4648
:1064B000024650EA013406BF52EA033591EA030F5F
:1064C00041F4002130BD00BF90F0000F04BF002157
:1064D000704730B54FF4806404F132044FF000058A
:1064E0004FF0000150E700BF90F0000F04BF002103
:1064F000704730B54FF4806404F1320410F0004569
:1065000048BF40424FF000013EE700BF42004FEA63
:10651000E2014FEA31014FEA02701FBF12F07F43E0
:1065200093F07F4F81F06051704732F07F4208BF97
:10653000704793F07F4F04BF41F40021704730B59E
:106540004FF4607401F0004521F000411CE700BFEA
:1065500050EA010208BF704730B54FF000050AE06D
:1065600050EA010208BF704730B511F0004502D56E
:10657000404261EB41014FF4806404F132045FEA70
:10658000915C3FF4D8AE4FF003025FEADC0C18BF19
:1065900003325FEADC0C18BF033202EBDC02C2F10B
:1065A000200300FA03FC20FA02F001FA03FE40EA9D
:1065B0000E0021FA02F11444BDE600BF70B54FF0A1
:1065C000FF0C4CF4E06C1CEA11541DBF1CEA13557F
:1065D00094EA0C0F95EA0C0F00F0DEF82C4481EAE7
:1065E000030621EA4C5123EA4C5350EA013518BF07
:1065F00052EA033541F4801143F4801338D0A0FBF4
:1066000002CE4FF00005E1FB02E506F00042E0FBA0
:1066100003E54FF00006E1FB03569CF0000F18BFA6
:106620004EF0010EA4F1FF04B6F5007F64F540744E
:1066300004D25FEA4E0E6D4146EB060642EAC621E1
:1066400041EA55514FEAC52040EA5E504FEACE2E4E
:10665000B4F1FD0C88BFBCF5E06F1ED8BEF1004F51
:1066600008BF5FEA500E50F1000041EB045170BDCD
:1066700006F0004646EA010140EA020081EA030111
:10668000B4EB5C04C2BFD4EB0C0541EA045170BD0D
:1066900041F480114FF0000E013C00F3AB8014F187
:1066A000360FDEBF002001F0004170BDC4F10004D0
:1066B000203C35DA0C341BDC04F11404C4F1200551
:1066C00000FA05F320FA04F001FA05F240EA0200AC
:1066D00001F0004221F0004110EBD37021FA04F6E2
:1066E00042EB06015EEA430E08BF20EAD37070BD9C
:1066F000C4F10C04C4F1200500FA04F320FA05F0FB
:1067000001FA04F240EA020001F0004110EBD370FC
:1067100041F100015EEA430E08BF20EAD37070BD6C
:10672000C4F1200500FA05F24EEA020E20FA04F345
:1067300001FA05F243EA020321FA04F001F00041F4
:1067400021FA04F220EA020000EBD3705EEA430E65
:1067500008BF20EAD37070BD94F0000F0FD101F094
:106760000046400041EB010111F4801F08BF013CCD
:10677000F7D041EA060195F0000F18BF704703F00B
:106780000046520043EB030313F4801F08BF013D92
:10679000F7D043EA0603704794EA0C0F0CEA13554E
:1067A00018BF95EA0C0F0CD050EA410618BF52EA08
:1067B0004306D1D181EA030101F000414FF000000E
:1067C00070BD50EA410606BF1046194652EA43061C
:1067D00019D094EA0C0F02D150EA013613D195EA90
:1067E0000C0F05D152EA03361CBF104619460AD1D8
:1067F00081EA030101F0004141F0FE4141F47001E2
:106800004FF0000070BD41F0FE4141F4780170BDD1
:1068100070B54FF0FF0C4CF4E06C1CEA11541DBF36
:106820001CEA135594EA0C0F95EA0C0F00F0A7F838
:10683000A4EB050481EA030E52EA03354FEA013165
:1068400000F088804FEA03334FF0805545EA131378
:1068500043EA12634FEA022245EA111545EA106540
:106860004FEA00260EF000419D4208BF964244F1D7
:10687000FD0404F5407402D25B084FEA3202B61AF6
:1068800065EB03055B084FEA32024FF480104FF4CA
:10689000002CB6EB020E75EB030E22BFB61A75463E
:1068A00040EA0C005B084FEA3202B6EB020E75EBD1
:1068B000030E22BFB61A754640EA5C005B084FEA39
:1068C0003202B6EB020E75EB030E22BFB61A754606
:1068D00040EA9C005B084FEA3202B6EB020E75EB11
:1068E000030E22BFB61A754640EADC0055EA060ED2
:1068F00018D04FEA051545EA16754FEA06164FEA15
:10690000C30343EA52734FEAC2025FEA1C1CC0D1C0
:1069100011F4801F0BD141EA00014FF000004FF04D
:10692000004CB6E711F4801F04BF01430020B4F10E
:10693000FD0C88BFBCF5E06F3FF6AFAEB5EB030CC6
:1069400004BFB6EB020C5FEA500C50F1000041EBC3
:10695000045170BD0EF0004E4EEA113114EB5C0490
:10696000C2BFD4EB0C0541EA045170BD41F4801163
:106970004FF0000E013C90E645EA060E8DE60CEA6B
:10698000135594EA0C0F08BF95EA0C0F3FF43BAF88
:1069900094EA0C0F0AD150EA01347FF434AF95EA3F
:1069A0000C0F7FF425AF104619462CE795EA0C0F23
:1069B00006D152EA03353FF4FDAE1046194622E7F0
:1069C00050EA410618BF52EA43067FF4C5AE50EACA
:1069D00041047FF40DAF52EA43057FF4EBAE12E7BA
:1069E0004FF0FF3C06E000BF4FF0010C02E000BF9B
:1069F0004FF0010C4DF804CD4FEA410C7FEA6C5C7E
:106A00004FEA430C18BF7FEA6C5C1BD001B050EA20
:106A1000410C0CBF52EA430C91EA030F02BF90EA0B
:106A2000020F0020704710F1000F91EA030F58BFCA
:106A3000994208BF90422CBFD8176FEAE37040F02C
:106A4000010070474FEA410C7FEA6C5C02D150EACA
:106A5000013C07D14FEA430C7FEA6C5CD6D152EA85
:106A6000033CD3D05DF8040B704700BF844610464A
:106A700062468C461946634600E000BF01B5FFF749
:106A8000B7FF002848BF10F1000F01BD4DF808ED19
:106A9000FFF7F4FF0CBF012000205DF808FB00BFEA
:106AA0004DF808EDFFF7EAFF34BF012000205DF844
:106AB00008FB00BF4DF808EDFFF7E0FF94BF012091
:106AC00000205DF808FB00BF4DF808EDFFF7CEFF92
:106AD00094BF012000205DF808FB00BF4DF808EDD1
:106AE000FFF7C4FF34BF012000205DF808FB00BFA2
:106AF0004FEA410C7FEA6C5C02D150EA013C0AD1BA
:106B00004FEA430C7FEA6C5C02D152EA033C02D1AB
:106B10004FF0000070474FF0010070474FEA41020C
:106B200012F5001215D211D56FF47873B3EB6252DF
:106B300012D94FEAC12343F0004343EA505311F006
:106B4000004F23FA02F018BF404270474FF0000098
:106B5000704750EA013005D111F0004008BF6FF0D6
:106B6000004070474FF00000704700BF4A0011D24C
:106B700012F5001211D20DD56FF47873B3EB625297
:106B80000ED44FEAC12343F0004343EA505323FAA3
:106B900002F070474FF00000704750EA013002D118
:106BA0004FF0FF3070474FF00000704780F000401A
:106BB00002E000BF81F0004142001FBF5FEA4103D5
:106BC00092EA030F7FEA226C7FEA236C6AD04FEAD5
:106BD0001262D2EB1363C1BFD2184140484041401A
:106BE000B8BF5B42192B88BF704710F0004F40F4CC
:106BF000000020F07F4018BF404211F0004F41F4E8
:106C0000000121F07F4118BF494292EA030F3FD0B3
:106C1000A2F1010241FA03FC10EB0C00C3F12003C6
:106C200001FA03F100F0004302D5494260EB400055
:106C3000B0F5000F13D3B0F1807F06D340084FEAC0
:106C4000310102F10102FE2A51D2B1F1004F40EBB5
:106C5000C25008BF20F0010040EA0300704749001D
:106C600040EB0000013A28BFB0F5000FEDD2B0FABA
:106C700080FCACF1080CB2EB0C0200FA0CF0AABFDD
:106C800000EBC25052421843BCBFD040184370477B
:106C900092F0000F81F4000106BF80F40000013281
:106CA000013BB5E74FEA41037FEA226C18BF7FEA58
:106CB000236C21D092EA030F04D092F0000F08BF9A
:106CC0000846704790EA010F1CBF0020704712F081
:106CD0007F4F04D1400028BF40F00040704712F1C0
:106CE00000723CBF00F50000704700F0004343F025
:106CF000FE4040F4000070477FEA226216BF08465B
:106D00007FEA23630146420206BF5FEA412390EA1D
:106D1000010F40F4800070474FF0000304E000BF13
:106D200010F0004348BF40425FEA000C08BF7047C4
:106D300043F0964301464FF000001CE050EA010288
:106D400008BF70474FF000030AE000BF50EA01029D
:106D500008BF704711F0004302D5404261EB41018A
:106D60005FEA010C02BF84460146002043F0B643AF
:106D700008BFA3F18053A3F50003BCFA8CF2083AD4
:106D8000A3EBC25310DB01FA02FC634400FA02FCDD
:106D9000C2F12002BCF1004F20FA02F243EB0200E4
:106DA00008BF20F00100704702F1200201FA02FC46
:106DB000C2F1200250EA4C0021FA02F243EB020039
:106DC00008BF20EADC7070474FF0FF0C1CEAD0527D
:106DD0001EBF1CEAD15392EA0C0F93EA0C0F6FD03E
:106DE0001A4480EA010C400218BF5FEA41211ED01C
:106DF0004FF0006343EA501043EA5111A0FB013108
:106E00000CF00040B1F5000F3EBF490041EAD371DC
:106E10005B0040EA010062F17F02FD2A1DD8B3F158
:106E2000004F40EBC25008BF20F00100704790F0C7
:106E3000000F0CF0004C08BF49024CEA502040EA19
:106E400051207F3AC2BFD2F1FF0340EAC2507047DF
:106E500040F400004FF00003013A5DDC12F1190F1D
:106E6000DCBF00F000407047C2F10002410021FA8F
:106E700002F1C2F1200200FA02FC5FEA310040F1A7
:106E8000000053EA4C0308BF20EADC70704792F020
:106E9000000F00F0004C02BF400010F4000F013A58
:106EA000F9D040EA0C0093F0000F01F0004C02BF53
:106EB000490011F4000F013BF9D041EA0C018FE7C2
:106EC0000CEAD15392EA0C0F18BF93EA0C0F0AD0C8
:106ED00030F0004C18BF31F0004CD8D180EA0100EE
:106EE00000F00040704790F0000F17BF90F0004F87
:106EF000084691F0000F91F0004F14D092EA0C0F69
:106F000001D142020FD193EA0C0F03D14B0218BFFB
:106F1000084608D180EA010000F0004040F0FE4041
:106F200040F40000704740F0FE4040F440007047DD
:106F30004FF0FF0C1CEAD0521EBF1CEAD15392EA5C
:106F40000C0F93EA0C0F69D0A2EB030280EA010C4C
:106F500049024FEA402037D04FF0805343EA1111E5
:106F600043EA10130CF000408B4238BF5B0042F143
:106F70007D024FF4000C8B4224BF5B1A40EA0C00E8
:106F8000B3EB510F24BFA3EB510340EA5C00B3EB1A
:106F9000910F24BFA3EB910340EA9C00B3EBD10F08
:106FA00024BFA3EBD10340EADC001B0118BF5FEA5A
:106FB0001C1CE0D1FD2A3FF650AF8B4240EBC25083
:106FC00008BF20F0010070470CF0004C4CEA502044
:106FD0007F32C2BFD2F1FF0340EAC250704740F493
:106FE00000004FF00003013A37E792F0000F00F085
:106FF000004C02BF400010F4000F013AF9D040EA03
:107000000C0093F0000F01F0004C02BF490011F496
:10701000000F013BF9D041EA0C0195E70CEAD1538E
:1070200092EA0C0F08D142027FF47DAF93EA0C0F75
:107030007FF470AF084676E793EA0C0F04D14B0259
:107040003FF44CAF08466EE730F0004C18BF31F00B
:10705000004CCAD130F000427FF45CAF31F0004305
:107060007FF43CAF5FE700BF4FF0FF3C06E000BF9E
:107070004FF0010C02E000BF4FF0010C4DF804CDC1
:107080004FEA40024FEA41037FEA226C18BF7FEAD1
:10709000236C11D001B052EA530C18BF90EA010FD3
:1070A00058BFB2EB030088BFC81738BF6FEAE17062
:1070B00018BF40F0010070477FEA226C02D15FEAFE
:1070C000402C05D17FEA236CE4D15FEA412CE1D06A
:1070D0005DF8040B704700BF844608466146FFE731
:1070E0000FB5FFF7C9FF002848BF10F1000F0FBD13
:1070F0004DF808EDFFF7F4FF0CBF012000205DF80C
:1071000008FB00BF4DF808EDFFF7EAFF34BF012090
:1071100000205DF808FB00BF4DF808EDFFF7E0FF29
:1071200094BF012000205DF808FB00BF4DF808ED7A
:10713000FFF7D2FF94BF012000205DF808FB00BFDD
:107140004DF808EDFFF7C8FF34BF012000205DF8BF
:1071500008FB00BF53B94AB9002908BF00281CBF6B
:107160004FF0FF314FF0FF3000F06CB9ADF1080C7B
:107170006DE904CE00F006F8DDF804E0DDE9022355
:1071800004B070472DE9F047089E0D4604468E4630
:10719000002B40F082808A42174646D9B2FA82F22A
:1071A0004AB1C2F1200105FA02F320FA01F1974039
:1071B00041EA030E94404FEA1748230CBEFBF8FC4B
:1071C000B9B208FB1CEE43EA0E430CFB01F09842F7
:1071D0000AD9FB180CF1FF3580F01681984240F275
:1071E0001381ACF1020C3B441B1AA4B2B3FBF8F0C0
:1071F00008FB103344EA034400FB01F1A14209D922
:107200003C1900F1FF3380F00181A14240F2FE8081
:1072100002383C44641A40EA0C4000211EB1D440BC
:107220000023C6E90043BDE8F08702B9FFDEB2FAE9
:1072300082F2002A4FD1CB1B4FEA174E1FFA87F874
:107240000121B3FBFEFC250C0EFB1C3345EA034574
:1072500008FB0CF3AB4207D97D190CF1FF3002D2C9
:10726000AB4200F2E7808446ED1AA3B2B5FBFEF014
:107270000EFB105543EA054408FB00F8A04507D96A
:107280003C1900F1FF3302D2A04500F2D780184626
:10729000A4EB080440EA0C40C0E78B4208D9002E5A
:1072A00000F0AF800021C6E900050846BDE8F08780
:1072B000B3FA83F100294BD1AB4202D3824200F2F0
:1072C000B780841A65EB030301209E46002EAAD0E6
:1072D000C6E9004EA7E7C2F1200C01FA02F397407D
:1072E00020FA0CF04FEA174E21FA0CFC1843BCFBB5
:1072F000FEF1050C0EFB11CC1FFA87F845EA0C4590
:1073000001FB08F3AB4204FA02F409D97D1901F13B
:10731000FF3C80F08B80AB4240F2888002393D44D4
:10732000EB1A85B2B3FBFEF00EFB103345EA0345C2
:1073300000FB08F3AB4207D97D1900F1FF3C71D285
:10734000AB426FD902383D44EB1A40EA014178E77D
:10735000C1F1200C8B4022FA0CF71F4320FA0CF4E9
:1073600005FA01F34FEA174E25FA0CF51C43230CDE
:10737000B5FBFEF91FFA87F80EFB195543EA0545E0
:1073800009FB08FAAA4502FA01F200FA01F308D94A
:107390007D1909F1FF3047D2AA4545D9A9F1020963
:1073A0003D44A5EB0A05A4B2B5FBFEF00EFB10555B
:1073B00044EA054400FB08F8A04507D93C1900F150
:1073C000FF352DD2A0452BD902383C4440EA094074
:1073D000A4EB0804A0FB02894C45C6464D4619D3D0
:1073E00016D05EB1B3EB0E0264EB050404FA0CFC9C
:1073F000CA404CEA0202CC40C6E900240021BDE8A4
:10740000F087314630460EE7AC46EDE6184601E718
:107410004345E6D2B8EB020E69EB07050138E0E719
:107420002846D3E760468FE78146BAE7614677E7AB
:1074300008464BE7ACF1020C3D4415E702383C44EA
:1074400026E700BF704700BF0020704738B590F8AE
:10745000333004460D4613B1406B06F041F994F801
:107460003010606B06F054F9606B802100F02DF84D
:10747000606B036829461B689847606B0121BDE873
:10748000384006F051B9000010B5034B03600446C4
:1074900000F066FF204610BD34E5020810B5044632
:1074A000406B06F01DF9606B024906F02DF90120D2
:1074B00010BD00BF801A060010B50446FFF7E4FFB8
:1074C000204604F053F8204610BD0368C9B21B687B
:1074D00018472DE9F84F90F83330044613B1406B4C
:1074E00006F0FEF8658AC5F180054FF0000A05EB4D
:1074F000D575FF276D10D146D0463E46A38A5FFA68
:107500008AF1B1EBD30F28DA4FF0000C638A5FFAEF
:107510008CF098421CDA11FB03F30344A2689BB27F
:1075200012F803E0E26812F803B0F3450BD08E4284
:1075300028BF0E46884538BF8846874228BF074681
:10754000814538BF814602F803E00CF1010CDDE70C
:1075500005F09CFF0AF1010AD0E7FF2E57D02368FF
:1075600021219B6920469847236857FA85F19B693A
:10757000C9B2204698475FFA85FA23680AEB0901E9
:107580009B69C9B220469847236822219B692046FF
:107590009847236831469B692046984723684146AF
:1075A0009B69204698470025B04529D3BA46CA456D
:1075B00021D845B994F83010606B06F0A9F8606BDB
:1075C0004021FFF782FFA268606B638A06FB0323FA
:1075D000026813F80A1012680135EDB29047102DB9
:1075E00004D1606B012106F09FF800250AF1010A21
:1075F0005FFA8AFADBE7013605F048FFF6B2D3E717
:107600002DB1606B0121BDE8F84F06F08DB8BDE8E3
:10761000F88F000038B51548154C06F061F84FF4A6
:10762000FA700FF0A9FD0125204684F8335001F0CF
:1076300025FA204601F0F2F8204601F053F92046E1
:1076400001F0E8F82046C82101F022F94023F12298
:107650002046642101F0E6F80649204601F0D8F8FA
:107660002046FFF736FF284638BD00BF7C1F0020AC
:10767000180F002054E5020870B51A4C1A4986B05C
:107680000646204601F0C4F82046002100F072FEB4
:107690000B250022114680232046009500F083FF31
:1076A0002046012100F066FE2046002101F0AEF8E0
:1076B000314603A805F078FF002203AB11462046AF
:1076C00001F018FA03A805F029FF80232A460021BB
:1076D0002046009500F085FE2046FFF7FAFE06B032
:1076E00070BD00BF180F002054E50208F0B51C481B
:1076F0001C4F1D4E1A4D87B0002100F03BFE402369
:107700000C22174800930021802300F04CFF1749FA
:10771000134801F07DF81248012100F02BFE1048BB
:10772000002101F073F800243B78A34213DD06EB3F
:10773000441103A805F038FF04EB840252000C3218
:1077400003AB12B20021284601F0D4F903A805F0DA
:10775000E5FE0134E8E70248FFF7BBFE07B0F0BDE5
:10776000180F0020540E0020550E002054E502088A
:1077700070B5274C274D2278052A034638D105F1EC
:107780002002294605F1400052F8046B41F8046BD1
:107790008242F9D1204AA2F1200102F1200052F8E0
:1077A000046B41F8046B8242F9D11C4AA2F120011A
:1077B00002F1200052F8046B41F8046B8242F9D1C7
:1077C000174AA2F1200102F1200052F8046B41F89F
:1077D000046B8242F9D1134AA2F1200102F1200088
:1077E00052F8046B41F8046B8242F9D104222270F2
:1077F00020780D4A05EB4010202102F0ADFA2378E5
:10780000052B1CBF01332370BDE87040FFF76EBF2E
:10781000540E0020550E0020950E0020B50E0020BD
:10782000D50E0020F50E0020702C030810B50E4C6C
:10783000204600F019FD0D4B236000231A4619461F
:10784000204684F8333001F061F840F63C3323865B
:107850000C2384F83230064B63632046054A064900
:10786000BDE8104001F006BD180F002034E5020805
:107870007C1F002000000020897400081FB50F49FC
:107880000F4805F0ADFF0F4B03930F4B1B7853B11F
:10789000002300930D48022303AA042105F0DDFC18
:1078A00005B05DF804FB01230822CDE90032042174
:1078B000022303AA054805F0ABFCF1E7FFEF02083D
:1078C000841E00200102030405000020401F002048
:1078D0002DE9F743A64C21680A2291FBF2F302FB43
:1078E0001313054683B9A34B1B786BB1A24805F06F
:1078F000B1FDFEF70BFE02460B46A048A04902F080
:107900005FFA9E48FFF7B8FE55B99E499E4805F0BC
:1079100067FF0021084603B0BDE8F04305F0ADBFA6
:107920002A78012A40F0BA8098499748984D994E94
:1079300005F060FF984B1A788E4B1B78002A3AD0DE
:10794000964F43B3226896498C4802F039FA8B4827
:10795000FFF70EFF3A789349884802F031FA8748DA
:10796000FFF706FFB5F900208F49844802F028FA96
:107970008248FFF7FDFE96F900208C497F4802F00F
:107980001FFA7E48FFF7F4FE89497C4802F038FA76
:107990007A48FFF7EDFE96F9003000932268B5F9BA
:1079A00000308449784805F025FF3A7882497648C6
:1079B00005F020FFADE7002B44D022687F496F48D7
:1079C00002F0FEF96D48FFF7D3FE7D4805F0EDFBB0
:1079D00081467C4805F0EBFB07467B4805F0E9FB58
:1079E00080464846FFF798F9FEF790FD5EA3D3E97D
:1079F0000023FEF70DFF7D2308FB03330246CDE98C
:107A000000735E480B46714902F0DAF95B48FFF7F4
:107A1000AFFEB5F900206449584802F0D1F9574843
:107A2000FFF7A6FE96F900206049544802F0C8F915
:107A30005248FFF79DFE5E49504802F0E1F94F4879
:107A4000FFF796FE96F900300093B5F900302268F2
:107A500058494D4805F0CEFE594805F0A6FB0646AC
:107A6000584805F0A4FB0446574805F0A2FB05461C
:107A70003046FFF751F9FEF749FD3BA3D3E9002358
:107A8000FEF7C6FE7D2305FB0333CDE90043024626
:107A90000B463D484E4905F0ADFE3AE7022A40F05C
:107AA000CF804C493848334D4B4E05F0A3FE0121A1
:107AB000084605F0E2FE2A787AB1226847492F4845
:107AC00002F07EF92D48FFF753FE326844492B48F7
:107AD00002F076F92948FFF74BFE226841492A480F
:107AE00005F088FE32684049274805F083FE336878
:107AF000013B0F2B00F2A280DFE803F0082E3032AA
:107B0000348A8C8E90929496989A9C9E37491B4802
:107B1000374C02F075F9194A36491B4805F06AFEE0
:107B200022683549184805F065FE2B78002B3FF494
:107B3000F0AE1248FFF71CFE226830490F4802F0F1
:107B40003FF90E48FFF714FE19490C4802F058F9A6
:107B50000A48FFF70DFEDCE62949D8E72949D6E7B0
:107B60002949D4E72949D2E70000000080842E414A
:107B700060100020510F0020391F0020570F0020F7
:107B80000FF002082AF00208841E002037F00208D5
:107B9000540F0020560F002004000020520F002038
:107BA00044F0020852F0020858F0020874F2020889
:107BB00060F002086BF0020887F002088EF00208FD
:107BC0006F1F0020701F0020711F00209CF0020812
:107BD000AFF00208C3F002086410002092F002081F
:107BE000D0F00208E9F00208F4F002080EF10208F1
:107BF0005C100020F3040308F6F1020807F2020803
:107C00001CF1020827F1020833F102083FF10208D3
:107C10005B497CE75B497AE75B4978E75B4976E754
:107C20005B4974E75B4972E75B4970E75B496EE764
:107C30005B496CE75B496AE75B4968E75B4966E774
:107C4000032A1AD15A495B4805F0D4FD5A4B1B78D8
:107C5000002B3FF45EAE5948FFF78AFD5748FFF707
:107C600087FD4849564802F0CBF85548FFF780FD9C
:107C70005248FFF77DFD51486BE7042A7FF449AE77
:107C800050494C48DFF88881DFF888914E4D4F4EBF
:107C90004F4F05F0AFFD484B1B78002B39D04848BB
:107CA000FFF766FD4B4B29784B4A4548002918BF22
:107CB0001A464A4902F084F84148FFF759FD2B78EB
:107CC000002B41D13378226845493D4802F078F8CD
:107CD0003B48FFF74DFD434805F013FB4249024680
:107CE000374802F06DF83648FFF742FDB8F900203A
:107CF0003E4999F90030324802F062F83048FFF707
:107D000037FD3A783A492E4802F05AF82C48FFF7E6
:107D10002FFD29782F4B304A2648002918BF1A46D4
:107D2000344905F067FD99F900300093B8F9003047
:107D3000226831491F4805F05DFD3B7832782F49B4
:107D40001C4805F057FDE4E52D4B2E491A681C48E8
:107D500002F036F81A48FFF70BFD2B49184802F0DD
:107D60004FF81748FFF704FD2749154802F048F877
:107D70001348FFF7FDFC2549114802F041F8C5E71B
:107D800049F1020853F102085FF1020873F1020899
:107D900086F1020896F10208A3F10208ADF102088B
:107DA000BDF10208CBF10208D7F10208E8F10208A0
:107DB00017F20208841E0020510F002026F202084C
:107DC000570F00203AF202085910002058100020E6
:107DD000571000200BF002080CF0020849F20208CC
:107DE00056F202084F1F002052F002086CF20208FF
:107DF0007BF202088BF202086BF0020899F202088B
:107E00005C10002007F202089D0C030860F00208D5
:107E1000540F0020560F00201FB504AB03E90700E4
:107E20000121002005F029FD0A4BBDF80A201A8027
:107E3000094B9DF80C201A70084A09481368013351
:107E40001360084B0121FA22197005B05DF804EBAC
:107E500005F012BB540F0020560F002060100020C8
:107E60003D1F0020500F00200B4B82791A700B4BE6
:107E700082881A800A4B02781A700A4B42781A706C
:107E8000094B82781A70094B094804221A700121A3
:107E9000FA2205F0F1BA00BF560F0020540F00205F
:107EA000591000205710002058100020500F0020BB
:107EB0003D1F002038B1044B044803221A700121F1
:107EC000FA2205F0D9BA7047500F00203D1F00205C
:107ED00010B501210446002005F0CFFC0C4B62894F
:107EE0001A800C4B227B1A700B4B62781A700B4A6B
:107EF0001368013313600A4B1B7843B9094B0A48D6
:107F000001211970BDE81040FA2205F0B5BA10BD84
:107F1000540F0020560F0020520F00206010002048
:107F200005000020500F00203D1F002080B1094AAD
:107F3000136801331360084B1860084B1B783BB97A
:107F4000074B084802221A700121FA2205F094BA60
:107F5000704700BF5C100020641000200500002066
:107F6000500F00203D1F0020014805F05EBC00BFFF
:107F7000D41E00202DE9F04F012189B0002005F02A
:107F800065FC0121084605F061FC6B4802230622CE
:107F90004FF4E13105F0A2F8012200230092674975
:107FA000674801F00DFF664905A805F0FDFA05A92F
:107FB000644805F045FA05A805F0B0FA624805F0F6
:107FC0008FFBFFF727FB614B0393187068B1604884
:107FD00005F040FAFEF79AFA02460B4658485D490A
:107FE00001F0EEFE5648FFF747FB0121002005F0A7
:107FF00044FC05F04EFCDFF840A105464FF0000BB5
:1080000041F287384FF00009504605F04DF804461C
:10801000A8B905F03EFC461B6BEB4B07B04579EB6E
:1080200007030CDB64200FF0A7F8204605F02AFCBC
:10803000B0FA80F14909204605F01FFCE4E7002171
:10804000084605F01AFC0021012005F016FC039BF0
:108050001B781BB94049384805F0C2FB3F48404CEB
:1080600005F0B8F801280CBF012200220546227055
:1080700052D13C483C4E05F046F9003818BF01206B
:1080800030703A493A4805F00BF93A49384805F05A
:1080900017F93949364805F00BF93678002E32D0F9
:1080A0000021364805F01CF902212E4805F02FF971
:1080B00033492F4805F00CF9324A33480123002197
:1080C00005F0D0F90023194643F698222E4805F012
:1080D000D3F92E4A2C480023012105F0C3F9237857
:1080E00033B12B4805F00BF910B9214805F07FF8A2
:1080F0002849114805F074FB0121274805F09DFB34
:1081000009B0BDE8F08F29461C4805F0E9F8314672
:10811000144805F0FCF8CFE71C4A1B480023012156
:1081200005F0A0F91D491E4805F058F84FF6FD71FD
:108130001B4805F040F8D2E7841E0020B2F2020886
:10814000570F0020E41E00207C1F0020510F00204C
:10815000391F00200FF00208C8F202087A1F002021
:1081600004000020621F002005000020D17E0008CE
:10817000401F00202D7F0008B57E0008481F00200A
:10818000697E00087D7800083D1F0020D178000836
:108190004B1F0020D6F20208D51E0020197E0008D1
:1081A000641F0020704700207047000010F0800F0F
:1081B0000B4A02D100231370704713781070C22B42
:1081C0000CD0C32B03D0822B04D00020704740F08A
:1081D000C0007047AC280CBF80200020704700BF53
:1081E00068100020F8B504460846238CC3B10D2959
:1081F00016D0E36A9847054690B1628C268CA38C12
:10820000E18CB2420ED28B420ED2A36A9854638C98
:108210000A2803F10103638402D1A38C0133A384F0
:108220000120F8BD8B4201D3013BA384002399B206
:108230008A4213D9A06AC75C01310A2F89B203F1BF
:108240000103F4D1521A92B26284014401F05AF847
:10825000236829461B6820469847E1E7B24224BFBD
:1082600000236384F4E70000094901608021418212
:10827000084941614FF4807101830749C1610022BF
:1082800006494260C0E902220274C162704700BF21
:1082900098FD020840000004E4F20208AD810008E5
:1082A000002370B5C0E9083383620368DB690446C4
:1082B0009847054610B90025284670BDA368F3B15C
:1082C000E368002BF8D12368E68A5B69204698476B
:1082D000304401F007F82368E0605B692046984766
:1082E000E6680644E660002EE6D12368A5685B696F
:1082F00020469847281A00F0FDFF3546DCE7236842
:10830000E68A5B6920469847304400F0EBFF23681B
:10831000A0605B6920469847A3681844A0600028C5
:10832000CED1C8E738B5856804463DB103685B69BE
:108330009847281A00F0DEFF0023A360E56845B1E6
:10834000236820465B699847281A00F0D3FF002372
:10835000E360A06A18B100F0CDFF0023A36238BD2E
:1083600010B5034B03600446FFF7DCFF204610BD49
:1083700098FD020841767047002930B524DB448A15
:10838000A14221DA002A1FDB838A9A421CDA437E4B
:10839000012B0FD0022B18D0B3B9D31004FB03115B
:1083A000806802F0070201239340425C22EA030244
:1083B000425409E0D510806804FB051102F0070261
:1083C0009340425C1343435430BDD31004FB03116C
:1083D0008068012302F0070203FA02F2435C5A406C
:1083E000E6E72DE9F74FBDF93070A7EB0208A3EBE4
:1083F0000109B8F1000FB8BFC8F10008B9F1000FCA
:10840000B8BFC9F10009C84583460C46154604DDCE
:108410001A462C463B460D4617469C4205DD2A4629
:108420003D46174622461C4613461E1BB2B2A7EB1A
:10843000050A0092C6F3C032BAF1000F02FA86F6BE
:10844000B8BFCAF1000A7610BD42B4BF01274FF091
:10845000FF379C4218DCC845CBBF2946214622463F
:108460002A46A6EB0A0658460193FFF785FFB1B2EC
:1084700036B2002E019B04DA009A3D4456182DB204
:1084800036B2013424B2E4E703B0BDE8F08F00292E
:10849000F0B571DB458AA9426EDA002ABEBF9B188F
:1084A0001BB20022848A9E18A642C4BFA31A1BB224
:1084B000002B61DDD410866805FB041112F0070261
:1084C00006EB01056CD0C2F10802FF27D2B29A4236
:1084D00047FA02F4C8BFA2EB030C6FEA0404C8BF5A
:1084E00047FA0CF7E4B2C8BF3C40477E012F06D0E4
:1084F000022F26D037B9775C27EA040401E0775CC5
:108500003C4374549A4237DC9B1A1BB2428A072BB5
:1085100015442FDD427E012A16D9022A2DD003F000
:10852000070201239340417EDBB25A1E0129D2B2D9
:108530002FD0022931D0F9B92A785B4213402B7031
:108540001AE0775C7C40DCE75242D2B219462A70CE
:10855000448A083925448CB2072C09B2F7D89BB25B
:10856000A3F10802C2F3CC02C2EB423203EBC20316
:10857000083B1BB2002BD2DCF0BD1A462978C94358
:108580002970418A083A0D4491B2072912B2F5D8F0
:10859000E5E72B781A432A70EEE72B785A40FAE782
:1085A000072BB7DCBBE7F8B5BDF9187015460C46CC
:1085B000CE18B44207DA21463B462A460134FFF77B
:1085C00066FF24B2F5E7F8BD2DE9F04F04461746E3
:1085D000227E8DB09846C369BDF85C505878022A57
:1085E0000E4608D0032A03D0012A07D14E1B04E00F
:1085F000A7EB50073FB2A6EB550636B2F54200F1A5
:10860000E580628A964200F3E180F84200F1DE8064
:10861000BA42C0F2DB809A78DB78029201380133EB
:10862000C0109B0001300793C3B203930693FB1065
:108630000893BDF8583007F0070A43440993CAF17C
:1086400008034FF0000B0193099B434500F0BE80E7
:1086500018F8011B029B8B42F6D8C91AC9B24FF019
:10866000040EE0691EFB01E311FB0EF510F803C0D8
:108670000EFB01030EFB01015B7991F80790CDF829
:1086800010900CEA0301FF2900F09B80A18A8F4221
:1086900000F397800BEB06018AB20FFA81FE09FA0C
:1086A00081F100290592C0F28C80618A8E4500F329
:1086B00088800544A97911B9069A49465143079A19
:1086C000134403EB0C2310FA83F34FF000090A93D1
:1086D0001FFA89F38B4274D2059A039BB9FBF3F31B
:1086E000D018039AB4F812C002FB1393089A1344EB
:1086F00013FB0CF385B213FA80F000B2002854DBB0
:10870000E38A984251DA2DB2002D4EDB65454CDAF2
:108710000A9B13F80950637E012B0BD0022B2ED03D
:1087200093B9D4F808E01EF8003005FA0AFC23EAF1
:108730000C0307E0D4F808E01EF8003005FA0AFC44
:1087400043EA0C030EF80030638AB4F816C0ACEBB1
:10875000030C604525DA94F819C0BCF1010F17D05D
:10876000BCF1020F24D0BCF1000F1AD11844A36849
:10877000019A13F800C015412CEA050510E0D4F861
:1087800008E01EF8003005FA0AFC83EA0C03D9E77A
:108790001844A368019A13F800C0154145EA0C0576
:1087A0001D540B9104F072FE0B9909F101098FE73A
:1087B0001844A368019A13F800C0154185EA0C0516
:1087C000EEE7049B9B441FFA8BFB3DE70DB0BDE831
:1087D000F08FF0B5C5690020AF7803464FF6FF7CF7
:1087E000013A92B262450DD08E5CF41B05EB840415
:1087F0000A2EE47923449BB2F2D1984238BF18463E
:108800000023EDE7984238BF1846F0BD0176704767
:10881000C16170470368AF219B6918470368AE21A7
:108820009B6918472DE9F0411D46036804460E4632
:108830009B69D921174698472368394620469B698A
:108840009847236820469B698121984723683146D1
:1088500020469B699847236820469B69DB219847FF
:108860002368294620469B699847236820469B69D0
:10887000A4219847236820469B69A621984723682E
:1088800020469B69BDE8F041AF2118470000000079
:1088900070B5054608460C46FDF726FE0EA3D3E943
:1088A0000023FDF78BFE23060CD4FEF75FF9002CA6
:1088B000C1B214BFF1220022E3082846BDE870408F
:1088C000FFF7B0BF0022064BFDF7C0FCFEF74EF9E4
:1088D000F122C1B2F0E700BF23DBF97E6ABCF23FB0
:1088E00000804540C28A8068002100F019BD10B5A3
:1088F0000446FFF7F7FFE28AE068012100F010FD6F
:10890000236820461B69BDE81040184701290174FF
:108910000CD002290ED019B98023438240238382D0
:10892000428A838A5343DB10C38270478023438289
:108930002023F4E7002A08BF8022002B428208BFD0
:108940004023ECE7037C022B10B5044600F0958031
:108950000368AE219B6998472368D5219B6920460F
:1089600098472368F0219B69204698472368A821EF
:108970009B6920469847217D236801399B69C9B2CC
:10898000204698472368D3219B692046984723684F
:1089900000219B6920469847236840219B69204617
:1089A000984723688D219B692046984723681421A6
:1089B0009B6920469847236820219B692046984759
:1089C000236800219B69204698472368A0219B6962
:1089D000204698472368C0219B6920469847236812
:1089E000DA219B6920469847227C2368002A3AD1E5
:1089F0009B69122120469847236881219B69204664
:108A00009847227C2368002A32D19B69CF212046D7
:108A10009847236820469B69D921984723682046B8
:108A20009B69F1219847236820469B69DB21984781
:108A3000236820469B6940219847236820469B690C
:108A4000A4219847236820469B69A621984723685C
:108A500020469B692E219847236820469B69BDE8E4
:108A60001040AF211847012AC6D19B690221C1E7F6
:108A7000012ACED19B698F21C9E710BD38B50546C3
:108A8000FFF70EFC044628B12846FFF75BFF284697
:108A9000FFF72DFF204638BD2DE9F843B1F80880D7
:108AA00008F10106B6B2074630460D4600F01AFC42
:108AB000044618B92C682046BDE8F88332460146C2
:108AC0000023284604F0ACFD00252E46ABB29845A5
:108AD00004EB060909D9FB6A605D984718B10136B5
:108AE000B6B289F800000135F0E7002389F80030BC
:108AF000E1E700002DE9F04F144687B0C269064651
:108B0000894603A81946577804F06FFD03A930463B
:108B1000FFF7C2FF804603A804F000FD337E032B5D
:108B2000BA4631D10022134691B2013218F8011031
:108B300021B10A2908BF01339BB2F5E75F43C7F3B0
:108B40004F071549DFF850B0404601F061F9E41BCA
:108B50000546A4B2D5B12846FDF712FB87B22946D7
:108B60003A463046FFF735FE2B4622B2CDE900707B
:108B700049463046FFF728FD5946002001F048F9E4
:108B800054440546A4B2E5E70027DAE7404600F082
:108B9000B1FB07B0BDE8F08F120D030803F0FEBB78
:108BA00003F001BC7047000070B5002386B0CDE92A
:108BB00004334FF0B0420F4DD16C41F00201D1644B
:108BC000D26C039302F002024FF48056009201A986
:108BD0002846CDE90163009A10F06CFE3146284624
:108BE00010F088FF31460446284610F00FFF20465B
:108BF00006B070BD000400480D2070474FF0B04330
:108C000082B0DA6C0243DA64DB6C18400190019B9D
:108C100002B070472DE9F04186B01422002101A86E
:108C200000F07EFB0220FFF7E9FF144D144F0420F3
:108C3000FFF7E4FF4FF4807601230024CDE90163C0
:108C400001A903232846CDE903434FF4005810F04F
:108C500031FE01A93846CDF8048010F02BFE2246E3
:108C60004146384610F04CFF28462246314610F067
:108C700047FF204606B0BDE8F08100BF0004004871
:108C800000080048032810B50ED8012810D868B98C
:108C900002460B484FF4807110F032FF0022094861
:108CA0004FF4005110F02CFF002010BD0122F0E71E
:108CB000002203484FF4807110F022FF0122EEE7FA
:108CC0000004004800080048022070470020704758
:108CD0000120704710B59AB04822002108A800F082
:108CE0001FFB1822002102A800F01AFB11F0C4FD9E
:108CF0004FF0B0420024D2F8903023F01803C2F8AD
:108D00009030D2F8003423F4C06343F40073C2F807
:108D10000034D2F80034119403F4C06301934FF48B
:108D20008072019B0C922E234022089381230B9387
:108D30000D920123B02208A8CDE90E3410931292AF
:108D4000139411F0EBFE08B103F052FD4F23022102
:108D500002A8CDE90234CDE90444CDE9064412F07D
:108D60007DF908B103F044FD1AB010BD13B50378C6
:108D7000082B11D8DFE803F0128287108E8E0510C1
:108D80009200047920460DF067F820460DF038F87F
:108D9000002120460DF068F802B010BD00200DF053
:108DA0005BF8012839D101200DF056F8012804D0D4
:108DB00001200EF0F7FD00283DDC02200DF04CF8FC
:108DC0000128E9D002200EF0EDFD0028E4DD0122AB
:108DD00001A902200EF0B0FC02200DF03DF80028A1
:108DE000F0D102200EF0BCFD00283FD19DF8041008
:108DF00002200CF071FFE5E7012201A900200EF02E
:108E00009BFC00200DF028F8044630B90EF0A8FDB8
:108E100048B99DF804100CF05FFF00200EF0C2FD71
:108E20000028E9DCBFE70128F7D19DF804102046AF
:108E30000EF0EEFCF1E7012201A910460EF07CFCD9
:108E400001200DF009F80028B2D101200EF088FDB4
:108E500028B99DF8041001200CF03EFFA8E7012876
:108E6000A6D19DF804100EF0D3FCA1E70128A9D1EA
:108E70009DF8041002200EF0CBFCA3E717F07EF95A
:108E800005F0CEFD88E7074B1B68002B84D04068B7
:108E9000984781E740680EF02DFE7DE740680EF0B0
:108EA000D3FA79E7CC68002030B5284B284A9A607D
:108EB00085B00EF095FEFFF70DFF4FF0B0430B208D
:108EC0009A6C42F004029A649A6C02F004020392D3
:108ED000039A9A6C42F001029A649B6C002203F0A0
:108EE000010311460293029B0FF0E2FA0B200FF0F0
:108EF00011FB0EF0E7FD0EF0E7F80DF091F80024FD
:108F000001460546234603220120CDE900440EF028
:108F100055FB2346032229460220CDE900440EF0EA
:108F20004DFB0DF02BF906F0ABFBE5B228460CF03B
:108F300093FF10B928460CF063FF0134032CF4D1E1
:108F400005B0BDE830400EF0A1BD00BF00ED00E06F
:108F5000006000080EF0A8BDF7B5FFF7A5FF4FF0C1
:108F6000B0432E4EDA6C2E4C42F00202DA64DB6C17
:108F700003F002030193019B08F0DCFD294B341B35
:108F80001427474300251C44BD4223D302F005FBB0
:108F9000FFF70AFE98B3244804F0CEFC234B244884
:108FA0001A68244B196804F0C7FC23480EF088FBAC
:108FB00004F062FF012824D0022824D010B91F48F1
:108FC0000EF07EFB1E4C0EF06FFD2378EBB902F025
:108FD000E6FAF8E76A46042160190EF0E7F86946F8
:108FE0003246042312F801CB11F8010B844518BF57
:108FF00002F8010C013BF5D104350436C4E71148F1
:10900000CAE71148DCE71148DAE70CF06BFF0028EB
:10901000D9D000200EF09CFAD5E700BFA8030020AD
:109020000000002038330308B8FD02087400002057
:10903000CEFD02088C000020DEFD0208F2FD0208D1
:1090400069100020C3FD0208FEFD020809FE0208A7
:10905000054808B50823036012F0CEFB18B1BDE83F
:10906000084003F0C5BB08BD686100204FF0B04365
:1090700007B55A6E42F001025A665B6E002203F099
:109080000103019311463220019B0FF011FA3220A7
:1090900003B05DF804EB0FF03DBA0000024B986896
:1090A000024BC04318607047002800406C1000203D
:1090B000014B1868704700BF6C100020034B044A36
:1090C0009B681068DB43181A704700BF00280040F7
:1090D0006C100020034B187810B1034B9868C04304
:1090E000704700BF6A10002000280040032070472E
:1090F00008B501464FF47A720023C003490CFEF70D
:1091000029F808BD4FF47A72A0FB0223D00B40EA85
:109110004340704710B5074B074C0122DA654FF406
:109120008071204612F098F84FF0FF33236300203F
:1091300010BD00BF00280040B4630020024600219B
:10914000014812F09EBA00BFB4630020024601211C
:10915000014812F096BA00BFB463002010B58CB07D
:109160002C220021044601A800F0DAF8FFF7D2FF14
:109170000C4B186800230444089306934FF00053E7
:10918000E4430793084802944FF48073012201A935
:109190000B9312F077F908B103F02AFB00200CB012
:1091A00010BD00BF6C100020B46300200C4B70B5E4
:1091B0009C68064602210B4812F06AFAE44300223A
:1091C0001219C2F30E044FF47A71A4FB014540F169
:1091D0000003E40BD00B348040EA434070BD00BF75
:1091E00000280040B46300200148002112F050BA6A
:1091F000B46300200148012112F04ABAB463002090
:10920000F8B5114E3578E5B9104C2A4629464FF08D
:10921000FF372846276303F02BF8FFF77BFF4FF457
:109220008071204612F018F82046276312F0D4F916
:109230002A460221204612F024FAFFF72FFF0123CD
:1092400033700020F8BD00BF6A100020B463002016
:1092500015F054BD10B5064C0221204612F018FA44
:109260000221421C2046BDE8104012F00ABA00BF9D
:10927000B46300200B460146184600F001B8000018
:1092800010B504460448134620B10A460220214680
:10929000AFF3008010BD00BF0000000070B50D4DA1
:1092A0000D4C641BA4100026A64209D10B4D0C4C9A
:1092B00025F086F8641BA4100026A64205D170BDD7
:1092C00055F8043B98470136EEE755F8043B9847BC
:1092D0000136F2E71833030818330308183303087C
:1092E0002C330308024B0146186800F06FB800BF2A
:1092F00090000020024B0146186800F019B800BF2A
:10930000900000200A44914200F1FF3300D17047E1
:1093100010B511F8014B03F8014F9142F9D110BD7E
:1093200002440346934200D1704703F8011BF9E75A
:1093300038B50546002945D051F8043C0C1F002BD8
:10934000B8BFE41801F01AFC1F4A1368104633B97D
:10935000636014602846BDE8384001F015BCA342A4
:109360000BD921686218934204BF1A685B68636076
:1093700004BF521822600460ECE71A465B680BB128
:10938000A342FAD911685018A0420BD120680144B9
:10939000501883421160DDD118685B685360014446
:1093A0001160D7E702D90C232B60D3E7206821187E
:1093B0008B4204BF19685B68636004BF09182160B1
:1093C0005460C7E738BD00BF70100020F8B5CD1C51
:1093D00025F0030508350C2D38BF0C25002D064659
:1093E00001DBA94203D90C2333600020F8BD01F052
:1093F000C5FB21490A6814469CB9204F3B6823B934
:109400002146304600F098FC38602946304600F08E
:1094100093FC431C23D10C233360304601F0B4FB92
:10942000E3E723685B1B17D40B2B03D923601C4491
:10943000256004E06368A2420CBF0B6053603046B5
:1094400001F0A2FB04F10B00231D20F00700C21A5B
:10945000CCD01B1AA350C9E722466468CCE7C41CD1
:1094600024F00304A042E3D0211A304600F064FC4B
:109470000130DDD1CFE700BF701000207410002054
:109480002DE9F04788B0002B1F461446B8BF03F102
:109490000043129A109DDDF84CA0B6BF1F46002372
:1094A0002D231370149B23F02008B8F1460F05D02C
:1094B000B8F1450F00D10135022300E0032307AACC
:1094C000049206AACDE902A2CDE9003522463B4628
:1094D00000F07EFDB8F1470F064602D1119BDB0775
:1094E00022D5B8F1460F06EB050910D13378302BA1
:1094F0000AD10022002320463946FDF7C7FA18B9E1
:10950000C5F10105CAF80050DAF80030994400228C
:10951000002320463946FDF7B9FA08B1CDF81C9072
:109520003022079B4B4507D3079B159A9B1B304660
:10953000136008B0BDE8F087591C07911A70F0E776
:10954000F7B503460029B8BF494203F8022BB4BF60
:109550002D222B22092942702ADD0DF10704A44691
:109560000A27A6460A4691FBF7F607FB1615303583
:10957000632A04F1FF340EF8015C3146F1DC30312E
:10958000AEF1020504F8011C441C294661450AD3CA
:109590000DF10902A2EB0E02654588BF00221344BB
:1095A000181A03B0F0BD11F8012B04F8012FEDE7F4
:1095B000302330318370C170031DF1E72DE9F04F86
:1095C00091B00C46DDF8688016461F46054601F04E
:1095D000D1FA036809931846FCF7D2FD00230E93D5
:1095E000D8F800300A90073323F0070303F108028C
:1095F00094F81890D4F800B0C8F80020D3E90023FC
:10960000C4E91223D4E9128A2AF000430B930B9980
:109610009C4B4FF0FF324046FDF76AFA70BB994B06
:109620000B994FF0FF324046FDF744FA30BB002261
:10963000002340465146FDF733FA10B12D2384F83C
:109640004330914B9148B9F1470F94BF98468046FB
:10965000032323612BF0040323604FF0000A0097DB
:1096600033460FAA2146284600F0D2F9013040F0D7
:109670008F804FF0FF3011B0BDE8F08F4246534667
:1096800040465146FDF734FA40B1BAF1000FBCBF75
:109690002D2384F843307E487E4BD4E763685A1C00
:1096A00009F0DF0142D106236360002206920EAA70
:1096B000CDE904920DAA4BF4806303920DF13302BD
:1096C000CDE9013223606368009342465346284641
:1096D0000B91FFF7D5FE0B99472980460D9908D1CC
:1096E000C81C02DB6368994240DDA9F102095FFAF8
:1096F00089F9B9F1650F1FD801394A4604F15000C4
:109700000D91FFF71DFF0E9A1318012A824623615F
:1097100002DC2268D20701D5013323619DF8333082
:10972000002B9CD02D2384F8433098E74729BCD1E7
:10973000002BBAD10123B7E7B9F1660F18D1002980
:1097400063680BDD216113B92268D00702D50133AC
:109750000B442361A1654FF0000ADFE713B92268CB
:10976000D20701D50233F4E70123F2E74FF067098E
:109770000E9B994205DB23682161D807EAD54B1C73
:10978000E7E70029D4BFC1F1020201221344E0E758
:1097900023685A0507D42369424631462846B8470C
:1097A00001302BD165E7B9F1650F40F2DC80D4E9D7
:1097B000120100220023FDF769F9002833D0364A50
:1097C000012331462846B84701303FF452AFDDE966
:1097D0000D239A4202DB2368D8070FD5DDE9092360
:1097E00031462846B84701303FF443AF4FF00008F8
:1097F00004F11A090E9B013B434509DC23689B07D2
:1098000000F10181E0680F9B9842B8BF184632E72B
:1098100001234A4631462846B84701303FF429AF74
:1098200008F10108E6E70D9B002B37DC1A4A0123FB
:1098300031462846B84701303FF41BAFDDE90D2320
:10984000134302D12368D907D8D5DDE9092331466E
:109850002846B84701303FF40CAF4FF0000904F13F
:109860001A0A0D9B5B424B4501DC0E9B94E70123DA
:10987000524631462846B84701303FF4FAAE09F166
:109880000109EEE7FFFFEF7F49FF02084DFF0208E5
:1098900055FF020851FF02087A2C03080E9AA36DA7
:1098A0009A42A8BF1A46002A914637DC4FF0000BB7
:1098B00029EAE97904F11A02D4F858A0AAEB0903BD
:1098C0005B4533DCDDE90D239A423BDB2368DA0795
:1098D00038D40E9A0D99A2EB0A03A2EB010999451F
:1098E000A8BF9946B9F1000F34DC4FF0000829EA0F
:1098F000E97904F11A0ADDE90D239B1AA3EB0903A8
:1099000043457FF77BAF0123524631462846B8478F
:1099100001303FF4AEAE08F10108ECE713463146E2
:1099200042462846B8470130C0D1A2E6012331465D
:1099300028460B92B84701303FF49BAE0B9A0BF1CF
:10994000010BB9E7DDE9092331462846B847013064
:10995000BFD18EE64B4608EB0A0231462846B8478F
:109960000130C2D185E60E9A012A01DCDB0737D52A
:109970000123424631462846B84701303FF479AECC
:10998000DDE9092331462846B84701303FF471AE7E
:10999000D4E9120100220023FDF778F8D8B90E9B14
:1099A00008F10102013B31462846B84701300ED18B
:1099B0005FE601234A4631462846B84701303FF466
:1099C00058AE08F101080E9B013B4345F1DC5346BC
:1099D00004F15002E1E64FF0000804F11A09F2E741
:1099E00001234246DFE701234A4631462846B8476D
:1099F00001303FF43EAE08F10108E3680F995B1AAD
:109A00004345F0DCFEE64FF0000804F11909F4E7E5
:109A10002DE9F047164699468A680B69DDF82080E3
:109A20009342B8BF1346336091F8432007460C4673
:109A30000AB1013333602368990642BF33680233A9
:109A40003360256815F0060506D104F1190AE368AC
:109A500032689B1AAB4226DC94F84320131E22681E
:109A600018BF012392062BD404F14302494638461D
:109A7000C04701301ED02368E568326803F0060352
:109A8000042B08BFAD1AA36822690CBF25EAE5754F
:109A900000259342C4BF9B1AED1800261A34B54224
:109AA0001AD1002008E00123524649463846C047F3
:109AB000013003D14FF0FF30BDE8F0870135C6E734
:109AC000E1185A1C302081F84300224494F84510D4
:109AD00082F843100233C7E701232246494638463D
:109AE000C0470130E6D00136D9E700002DE9FF4735
:109AF0000C469146277E0C99782F80469A4604F1B1
:109B0000430207D8622F0AD8002F00F0D880582FC0
:109B100000F0A38004F1420684F842703AE0A7F115
:109B20006303152BF6D801A050F823F0859B00089D
:109B3000999B0008159B0008159B0008159B0008C1
:109B4000159B0008999B0008159B0008159B0008B1
:109B5000159B0008159B0008A59C0008C99B0008E0
:109B6000879C0008159B0008159B0008C79C0008EF
:109B7000159B0008C99B0008159B0008159B000851
:109B80008F9C00080B681A1D1B680A6004F14206CE
:109B900084F842300123A3E0256808682E0600F10E
:109BA00004030AD505680B60002D03DA2D236D42EE
:109BB00084F843305E480A2319E015F0400F056829
:109BC0000B6018BF2DB2EFE70B682568181D086001
:109BD000280601D51D6802E06906FBD51D8854489A
:109BE0006F2F0CBF08230A23002184F843106668F6
:109BF000A660002EA2BF216821F0040121600DB9EA
:109C0000002E4DD01646B5FBF3F103FB1157C75D8F
:109C100006F8017D2F46BB420D46F4D9082B0BD127
:109C20002368DF0708D5236961689942DEBF3023C6
:109C300006F8013C06F1FF36921B2261CDF800A028
:109C40004B4603AA21464046FFF7E2FE01304CD1C5
:109C50004FF0FF3004B0BDE8F087354884F8457018
:109C600023680E681F0656F8045B0E6014D5D907EA
:109C700044BF43F0200323601DB9236823F0200371
:109C800023601023B0E7236843F020032360782388
:109C9000284884F84530E3E75E0648BFADB2E6E702
:109CA0001646BBE70B68266860691D1D0D6035060A
:109CB0001B6801D5186002E07106FBD518800023EF
:109CC00023611646BAE70B681A1D0A601E686268AF
:109CD00000213046FCF75CFA08B1801B60606368C5
:109CE0002361002384F84330A8E7236932464946BC
:109CF0004046D0470130ABD023689B0713D4E068BF
:109D0000039B9842B8BF1846A4E701233246494650
:109D10004046D04701309BD00135E36803995B1A78
:109D2000AB42F2DCEBE7002504F11906F5E700BFD2
:109D300059FF02086AFF020838B5064D00230446A1
:109D400008462B6001F002FC431C02D12B6803B1D2
:109D5000236038BD746100200CB430B5174B0C1E65
:109D60001D689DB008DA8B232B604FF0FF301DB0CB
:109D7000BDE8304002B070474FF40273ADF81430C4
:109D800014BF04F1FF332346049307934FF6FF7388
:109D900002900690ADF81630209A21AB02A9284611
:109DA000019301F069FA431CBCBF8B232B60002C8C
:109DB000DDD0029B00221A70D9E700BF900000207E
:109DC0000EB400B59CB01DAB029006906FF0004140
:109DD000094807910491094953F8042B059100683B
:109DE000019302A901F048FA029B00221A701CB0EC
:109DF0005DF804EB03B07047900000200802FFFFFD
:109E0000034611F8012B03F8012B002AF9D1704702
:109E1000134B2DE9F0411F68BC6D05460E46B4B9E1
:109E20005020FFF75FFAB865C0E90044C0E902447A
:109E3000C0E90444C0E90A44C0E90C44C0E90E4446
:109E4000C0E91044C0E91244846104774462BA6DE9
:109E5000314628460123BDE8F04100F003B800BFB9
:109E600090000020F0B508B9106888B1044620467B
:109E700014F8015B0F4617F8016B1EB965B9156040
:109E8000284605E0B542F6D1002BF0D114600370EE
:109E9000F0BD1C460CE015B914F8013B0E4616F84F
:109EA000015BAB42F7D1002BF3D0002304F8013C57
:109EB0001460EDE72DE9F74F03690C69A3420746EB
:109EC000C0F28180013C01F1140800F1140505EB9A
:109ED0008403019358F8243055F8242001339A4222
:109EE0004FEA840B08EB8409B2FBF3F631D34FF051
:109EF000000E4046AC46F24650F8042B93B206FBE7
:109F000003E34FEA134E9BB2AAEB0303120CDCF8F7
:109F100000A006FB02E213FA8AF34FEA124E1FFA80
:109F200082FADCF80020CAEB124202EB23429BB219
:109F300043EA024381454CF8043B4FEA224ADBD214
:109F400055F80B302BB9019B043B9D421A462ED38A
:109F50003C61384601F047F8002824DB01362846EA
:109F60004FF0000C58F8042BD0F800E093B2ACEBA3
:109F70000303120C13FA8EF3C2EB1E4202EB2342D0
:109F80009BB243EA0243C14540F8043B4FEA224CEE
:109F9000E8D255F8242005EB840322B9043B9D4206
:109FA0001A460AD33C61304603B0BDE8F08F126810
:109FB000043B002ACCD1013CC7E71268043B002ACD
:109FC000F0D1013CEBE70020EEE7000000000000CC
:109FD0002DE9F04F446A99B016461F46CDE9046753
:109FE000DDF8948005463CB91020FFF77BF9C0E905
:109FF000014468620460C4606B6A196851B15A68B0
:10A000004A60012393408B60284600F0F7FD6B6A9D
:10A0100000221A603B1EB9BF23F0004305930023C2
:10A02000C8F80030DDF81490A74BBCBF0122C8F877
:10A03000002033EA090319D1249A42F20F73136006
:10A04000C9F31303334300F06D85269B53B99F4B2F
:10A0500023E09F4B03930833269A1360039819B0AB
:10A06000BDE8F08F994B03930333F5E7DDE9043442
:10A07000CDE90C34DDE90C0100220023FCF706FDDC
:10A08000804660B1249A01231360269B002B00F0C8
:10A090004685904B269A1360013B0393DEE716AB8F
:10A0A000019317AB00932846DDE90C2301F02CF84F
:10A0B000C9F30A548346002C7ED00D9BCDF84C800A
:10A0C000C3F31303DDE90C0143F07F5141F4401168
:10A0D000A4F2FF34804B0022FCF7B8F874A3D3E954
:10A0E0000023FCF76BFA74A3D3E90023FCF7B0F864
:10A0F000064620460F46FCF7F7F971A3D3E9002383
:10A10000FCF75CFA02460B4630463946FCF7A0F8ED
:10A1100006460F46FCF702FD002282460023304629
:10A120003946FCF7BDFC48B15046FCF7DDF9324634
:10A130003B46FCF7ABFC08B90AF1FF3ABAF1160F3F
:10A1400057D8664B03EBCA03D3E90023DDE90C01C2
:10A15000FCF7A6FC00284ED00AF1FF3A00230F932B
:10A16000169B1C1B631E099345BFC4F10103069394
:10A17000002300234CBF09930693BAF1000F3CDB88
:10A18000099BCDF838A05344099300230A93229BDE
:10A19000092B00F2B580052BC4BF043B2293229B00
:10A1A000A3F10203CCBF00240124032B00F2B480EE
:10A1B000DFE803F02D987AA4DDE916431C4404F28D
:10A1C0003243202BC3BFC3F1400304F2124009FA0B
:10A1D00003F3C3F12003C6BF26FA00F0184306FAC2
:10A1E00003F0FCF771F90123A1F1F871013C13931D
:10A1F00070E70123B3E70F90B2E7069BA3EB0A03D6
:10A200000693CAF100030A9300230E93BFE70023CD
:10A210000B93239B002B00F382804FF00109CDF8B4
:10A2200020904B46CDF88C906E6A0022726004221A
:10A2300002F114009842716877D9284600F0AAFC10
:10A240006B6A30601B680393089B0E2B00F2EE8054
:10A25000002C00F0EB80BAF1000F7ADD1F4A0AF003
:10A260000F0302EBC303D3E900341AF4807FCDE976
:10A2700010344FEA2A145CD0194BDDE90C01D3E904
:10A280000823FCF7C5FACDE9040104F00F04032705
:10A29000134E002C4FD1DDE91023DDE90401FCF75A
:10A2A000B7FACDE904016EE00123B1E7AFF3008016
:10A2B00061436F63A787D23FB3C8608B288AC63FCC
:10A2C000FB799F501344D33F0000F07F84FF0208C6
:10A2D0007BFF02087B2C03080000F83FB0FF020858
:10A2E00088FF020800230B93239B0AEB030909F163
:10A2F0000103012B0893B8BF012395E70123F2E77F
:10A300000124002322930B944FF0FF390022CDF853
:10A3100020901223239287E701230B93F4E7DDF8C3
:10A320008C90CDF820904B467EE701317160520051
:10A330007EE70227ACE7E10708D5DDE91001D6E9A1
:10A340000023FCF73BF9CDE9100101376410083612
:10A350009FE700F0A580CAF10004A44BA44E04F0CE
:10A360000F0203EBC203D3E90023DDE90C01FCF784
:10A3700025F9CDE90401241100230227002C40F027
:10A380008480002B8DD10F9B002B00F08B80DDE9AA
:10A390000434CDE91034DDE91001964B0022FCF7BE
:10A3A0007FFB00287ED0089B002B7BD0B9F1000FEB
:10A3B00038DDDDE91001904B0022FCF7FFF8CDE914
:10A3C00004010AF1FF3801374C463846FCF78CF897
:10A3D000DDE90423FCF7F2F8884B0022FBF738FF95
:10A3E000A1F15076CDE910011196002C5DD1DDE987
:10A3F0000401834B0022FBF729FF02460B46CDE9FF
:10A400000423109A3346FCF769FB002840F097823A
:10A41000DDE90401109A06F10043FCF741FB002836
:10A4200040F08B82DDE90C34CDE90434179B002B1E
:10A43000C0F25181BAF10E0F00F34D816B4B03EB6B
:10A44000CA03D3E90034CDE90634239B002B80F204
:10A45000DB80089B002B00F3D78040F06D82684BB7
:10A460000022DDE90601FCF7A9F8DDE90423FCF789
:10A470002BFB089C2646002840F04382039F312393
:10A4800007F8013B0AF1010A3FE2E20705D5D6E9E8
:10A490000023FCF793F801370123641008366DE7B9
:10A4A000022770E7089CD0468FE703994F4B214461
:10A4B00012910B9903EBC403DDE9106753E9022302
:10A4C000002946D04F490020FCF7A2F93B4632460E
:10A4D000FBF7BCFECDE91001039FDDE90401FCF7A9
:10A4E0001DFB0446FCF700F802460B46DDE90401BB
:10A4F000FBF7ACFE303402460B46CDE9042307F8E7
:10A50000014BDDE91023FCF7CBFA002865D1DDE92A
:10A51000042338490020FBF799FEDDE91023FCF7FE
:10A52000BFFA002840F0B680129B9F423FF47AAFFA
:10A53000DDE91001304B0022FCF740F82E4BCDE94D
:10A5400010010022DDE90401FCF738F8CDE904012F
:10A55000C3E730463946FCF731F8CDE91001129BCC
:10A56000039C1493DDE90401FCF7D8FA1590FBF77E
:10A57000BBFF02460B46DDE90401FBF767FE159BB6
:10A58000303304F8013B129B9C4206460F464FF0C5
:10A59000000224D11B4BDDE91001FBF759FE0246F6
:10A5A0000B4630463946FCF799FA002871D1DDE9AF
:10A5B000102314490020FBF749FE02460B463046A3
:10A5C0003946FCF76DFA00283FF42CAF149F7B1E30
:10A5D000149317F8013C302BF8D0C24649E0064BE3
:10A5E000FBF7ECFFCDE90401BCE700BFB0FF0208B8
:10A5F00088FF02080000F03F0000244000001C40DB
:10A60000000014400000E03FDDE90489039FDDE91C
:10A61000062340464946FCF7FBF8FCF77FFA044660
:10A62000FBF762FFDDE90623FBF7C8FF04F1300604
:10A630000B46024649464046FBF708FE07F8016B09
:10A64000039E089BBE1BB34238D102460B46FBF764
:10A65000FFFDDDE9062380468946FCF73FFA58BB3B
:10A66000DDE9062340464946FCF710FA08B1E10748
:10A6700022D42846594600F0C1FA00233B70249B9F
:10A680000AF101001860269B002B3FF4E7AC1F6025
:10A69000E4E427463B461F4613F8012D392A07D12B
:10A6A000039A9A42F7D10399302208F101080A70FF
:10A6B0001A7801321A7090E7D046EBE7A14B0022DE
:10A6C000FBF77CFF0022002380468946FCF7DEF979
:10A6D00000289CD0CDE70B9A002A00F0CD80229A6A
:10A6E000012A00F3AF80139A002A00F0A78003F23A
:10A6F00033430A9C069F069A1A440692099A01213E
:10A700001A442846099200F01CFB0646002F0CDD77
:10A71000099B002B09DDBB42069AA8BF3B46D21A13
:10A720000692099AFF1AD31A09930A9BF3B10B9B5D
:10A73000002B00F0A580002C10DD31462246284673
:10A7400000F0A4FB5A4601460646284600F002FBEC
:10A7500059468046284600F051FAC3460A9B1A1B08
:10A7600004D05946284600F091FB83460121284633
:10A7700000F0E7FA0E9B002B044640F383801A4654
:10A780000146284600F082FB229B012B04467CDD1B
:10A790004FF00008236904EB8303186900F083FA83
:10A7A000C0F12000099B184410F01F0000F08E80BB
:10A7B000C0F12003042B40F38780C0F11C00069BEE
:10A7C00003440693099B034407440993069B002B0B
:10A7D00005DD59461A46284600F0A6FB8346099B2C
:10A7E000002B05DD21461A46284600F09DFB044655
:10A7F0000F9B002B6CD02146584600F0F4FB00283C
:10A8000066DA002359460A22284600F00EFA0B9B0E
:10A810000AF1FF3A8346002B00F08B81314600237A
:10A820000A22284600F001FAB9F1000F064600F3AB
:10A830009180229B022B40F38D8051E0169BC3F147
:10A84000360356E7089B5C1E0A9BA342BFBF0A9BC8
:10A850000A94E21A0E9BB6BF9B181C1B0E93089B12
:10A86000B8BF0024002BB9BF069B089A069F089B1F
:10A87000BCBF9F1A00233EE70A9C069F0B9E45E73C
:10A880000A9A6EE7229B012B19DC049BBBB9059B3E
:10A89000C3F313039BB9059B23F000431B0D1B055A
:10A8A00083B1069B01330693099B013309934FF053
:10A8B00001080E9B002B7FF46DAF012072E74FF073
:10A8C0000008F6E79846F4E780D018461C3076E793
:10A8D000089B002B38DC229B022B35DDDDF8209015
:10A8E000B9F1000F0DD121464B460522284600F054
:10A8F0009CF901460446584600F075FB00283FF7D6
:10A90000BDAD239B039F6FEA030A4FF00008214669
:10A91000284600F073F9002E3FF4ABAEB8F1000FFB
:10A9200005D0B04503D04146284600F067F93146CE
:10A93000284600F063F99CE600242646E1E7C2467B
:10A9400026469BE5000024400B9BDDF82090002B61
:10A9500000F0F680002F05DD31463A46284600F02B
:10A96000E3FA0646B8F1000F55D07168284600F0AA
:10A9700011F9326902320746920006F10C010C30DF
:10A98000FEF7C0FC01223946284600F0CDFA039BB1
:10A9900001330893039B4B440A93049B03F0010388
:10A9A000B04609930646089B2146013B584604934E
:10A9B000FFF780FA034630330690414658460B9322
:10A9C00000F011FB324681462146284600F026FB66
:10A9D000C2680B9B074602BB0146584600F003FBCA
:10A9E0000B9B024639462846CDE90B3200F006F9AA
:10A9F000229B0C9A089F43EA0201099B0B430B9B85
:10AA00000DD1392B29D0B9F1000F01DD069B31336F
:10AA1000049A13707BE73046B9E70122E2E7B9F107
:10AA2000000F06DB229941EA0909099959EA010157
:10AA300020D1002AECDD594601222846089300F077
:10AA400073FA2146834600F0CEFA0028089B02DC08
:10AA5000DED1DA07DCD5392BD8D1049A392313702B
:10AA60003B461F46013B17F8012C392A50D00132D2
:10AA70001A704CE7002A03DD392BEED00133C7E70B
:10AA8000089A0A9902F8013C8A422AD059460023C2
:10AA90000A22284600F0C9F8B04583464FF000036B
:10AAA0004FF00A024146284607D100F0BEF8804622
:10AAB0000646089B0133089375E700F0B6F8314667
:10AAC000804600230A22284600F0AFF80646F0E749
:10AAD000B9F1000F039ACCBF4F46012717444FF03E
:10AAE0000008594601222846089300F01DFA214625
:10AAF000834600F078FA0028B2DC02D1089BDB071D
:10AB0000AED43B461F4613F8012D302AFAD0FEE69C
:10AB1000039A9A42A5D10AF1010A312379E7134B2E
:10AB2000FFF7BBBA269B002B7FF493AA104BFFF7CD
:10AB3000B4BAB9F1000F03DC229B022B3FF7D0AE71
:10AB4000039F21465846FFF7B5F900F1300307F897
:10AB5000013B039ABA1A9145BADD594600230A22ED
:10AB6000284600F062F88346EBE700BF7A2C030822
:10AB70007BFF020800487047E4010020014800F014
:10AB80007BBC00BF7C610020014800F076BC00BFA8
:10AB90007C61002070B5466A04460D463EB910201F
:10ABA000FEF7A0FBC0E9016660620660C660666AE7
:10ABB000F36883B1636ADB6853F82500B8B90121F3
:10ABC00001FA05F6721D9200204600F0ECFA60B121
:10ABD000C0E901560EE021220421204600F0E3FAEC
:10ABE000636AF060DB68002BE4D1002070BD02686E
:10ABF00043F825200023C0E90333F7E770B5466A20
:10AC000005460C463EB91020FEF76CFBC0E9016614
:10AC100068620660C6603CB16B6A6268DB6853F8C4
:10AC20002210216043F8224070BD2DE9F0410E69E9
:10AC3000074698460C4601F1140000230568A9B2A6
:10AC400002FB01814FEA114C2D0C02FB05C589B2B4
:10AC5000013301EB05419E4240F8041B4FEA1548C1
:10AC6000ECDCB8F1000F1BD0A368B34212DC6168C2
:10AC700038460131FFF78EFF2269023204F10C01E0
:10AC8000054692000C30FEF73DFB21463846FFF7A3
:10AC9000B5FF2C4604EB86030136C3F81480266109
:10ACA0002046BDE8F081020C12040346CAB9030431
:10ACB000102013F07F4F04BF1B02083013F0704FB9
:10ACC00004BF1B01043013F0404F04BF9B0002304F
:10ACD000002B05DB13F0804F00F1010008BF20209E
:10ACE00070470020E5E70368024613F007000BD029
:10ACF000D90722D4980749BF5B089B08012013603D
:10AD00005CBF13600220704799B209B91B0C102078
:10AD100013F0FF0F04BF1B0A0830190704BF1B09FB
:10AD20000430990704BF9B080230D90703D45B089D
:10AD300000F1010003D0136070470020704720200D
:10AD4000704710B50C460121FFF724FF0122446132
:10AD5000026110BD2DE9F04F15460A692B699A4230
:10AD6000B8BF0B460C46BCBF2C461D462769D5F81C
:10AD70001090A368616807EB0906B342B8BF0131C0
:10AD800085B0FFF707FF00F1140101EB86080B46C1
:10AD9000002243451DD304F1140305F1140203EB13
:10ADA000870702EB890302933B1B153B23F0030348
:10ADB000043304F11505AF4238BF04230193029B0D
:10ADC0000392934208D8002E5ADC066105B0BDE814
:10ADD000F08F43F8042BDCE7B2F800A0BAF1000FC3
:10ADE00024D004F1140E89464FF0000C5EF8045B89
:10ADF000D9F800B0ABB21FFA8BFB0AFB03B34FEAE2
:10AE0000154BD9F8005063444FEA154C0AFB0BC5AB
:10AE100005EB13459BB243EA0543774549F8043BEC
:10AE20004FEA154CE2D8019B41F803C0039BB3F8ED
:10AE300002900432B9F1000F20D00B6804F1140C19
:10AE40008E464FF0000ABCF80050BEF802B009FB75
:10AE500005B5AA449BB243EA0A434EF8043B5CF8AA
:10AE6000043BBEF800501B0C09FB035303EB1A43D1
:10AE700067454FEA134AE6D8019D4B5104319EE7DE
:10AE800058F8043D002BA0D1013E9CE72DE9F84382
:10AE9000154612F0030206460F4607D0214C013A30
:10AEA000002354F82220FFF7C0FE0746AD1035D02E
:10AEB000746A3CB91020FEF715FAC0E901447062CB
:10AEC0000460C460D6F82480D8F808404CB940F239
:10AED00071213046FFF735FF0023C8F8080004460B
:10AEE00003604FF00009EB070AD539462246304689
:10AEF000FFF730FF394680463046FFF77FFE474672
:10AF00006D100BD0206838B9224621463046FFF735
:10AF100021FF2060C0F800900446E4E73846BDE811
:10AF2000F88300BF780003082DE9F0470C46496814
:10AF3000236903EB6218A368074691464FEA621A39
:10AF400008F10106B3423FDB3846FFF723FE00233A
:10AF5000054600F1140100F110021846534536DB96
:10AF600020692AEAEA7A04F1140319F01F0901EBB7
:10AF70008A0103EB800C2ED0C9F1200E8A460022F4
:10AF8000186800FA09F002434AF8042B53F8042B1E
:10AF90009C4522FA0EF2F3D8ACEB0403153B23F0E8
:10AFA0000303043304F11500604588BF0423CA502D
:10AFB0000AB108F10206013E38462E612146FFF72C
:10AFC0001DFE2846BDE8F08701315B00BAE742F874
:10AFD000040F0133C2E7043953F8042B41F8042F5E
:10AFE0009C45F9D8E7E70A6903460069801A30B53D
:10AFF0000DD11433143103EB820401EB820154F8B8
:10B00000045D51F8042D954202D004D3012030BDD7
:10B01000A342F4D3FBE74FF0FF30F8E72DE9F84FF8
:10B020000C460646114620461746FFF7DCFF051E74
:10B0300008D129463046FFF7ADFD0123C0E90435AC
:10B04000BDE8F88FA4BF3B46274630467968A6BFC7
:10B050001C4600250125FFF79DFD3E69C560256959
:10B0600007F1140104F1140900F1140E07F11002A4
:10B0700001EB860C09EB8505F246002759F8043BE5
:10B0800052F804BF1FFA83F817FA8BF71B0CA7EBD3
:10B090000808C3EB1B4303EB28431FFA88F81F146F
:10B0A0004D4548EA03434AF8043BE7D82B1B153BC0
:10B0B00023F0030304331534A54238BF0423194495
:10B0C00073449E460D4665450ED30CF10302521A99
:10B0D00022F0030203398C4538BF00221A4452F88B
:10B0E000043D7BB10661ABE755F8048B17FA88F491
:10B0F000221402EB1842A4B244EA02444EF8044B74
:10B100001714E0E7013EEAE72DE9F34101211C466F
:10B11000DDE908659046FFF73DFDC4F31303C4F372
:10B120000A5407462CBB0193B8F1000326D06846A9
:10B130000093FFF7D8FD0099F0B1019AC0F1200308
:10B1400002FA03F30B43C2407B610192019BBB6196
:10B15000002B14BF022101213961C4B1A4F2334490
:10B160000444C0F1350034602860384602B0BDE8C0
:10B17000F08143F48013D6E77961E7E701A8FFF790
:10B18000B2FD019B7B61012139612030E5E707EBCE
:10B190008103A0F2324030601869FFF784FDC0EBF4
:10B1A00041112960E1E738B502FB01F52946FEF7B8
:10B1B0000DF9044618B12A460021FEF7B1F82046E1
:10B1C00038BD2DE9F0478E689E4282460C46904677
:10B1D0001F4638D88A8912F4906F32D025680969E1
:10B1E000A5EB0109656905EB450505EBD57501334F
:10B1F0004B446D109D4238BF1D46530531D529463D
:10B20000FEF7E4F8064650B90C23CAF80030A389CB
:10B2100043F04003A3814FF0FF30BDE8F087216980
:10B220004A46FEF76FF8A38923F4906343F0800346
:10B23000A381266165614E44A5EB09052660A560E2
:10B240003E46BE4200D93E4632462068414600F0A6
:10B2500027F9A36822689B1B3244A3602260002068
:10B26000DBE72A4600F036F906460028E1D12169DD
:10B270005046FEF75DF8C7E72DE9F04F98468B89F9
:10B280001B069DB007460D4614460ED50B6963B9E3
:10B290004021FEF79BF82860286120B90C233B6011
:10B2A0004FF0FF30D1E040236B610023099320234E
:10B2B0008DF82930CDF80C803023DFF8A8818DF887
:10B2C0002A304FF0010923469A4613F8012B0AB1A0
:10B2D000252AF9D1BAEB040B0BD05B46224629464E
:10B2E0003846FFF76EFF013000F0AA80099A5A44F1
:10B2F00009929AF80030002B00F0A28000234FF052
:10B30000FF32CDE905230AF1010A049307938DF872
:10B3100053301A935446052214F8011B5148FAF78A
:10B3200037FF049AD8B9D00644BF20238DF8533094
:10B33000110744BF2B238DF853309AF800302A2B85
:10B3400015D0079A544600204FF00A0C214611F8F8
:10B35000013B303B092B4ED9B0B1079214E0A0EB72
:10B36000080309FA03F313430493A246D2E7039BAD
:10B37000191D1B680391002BBBBF5B4242F0020208
:10B3800007930793B8BF049223782E2B0CD16378D0
:10B390002A2B35D1039B1A1D1B680392002BB8BFC3
:10B3A0004FF0FF3302340593DFF8C8A02178032261
:10B3B0005046FAF7EDFE40B14023A0EB0A0003FA35
:10B3C00000F0049B03430134049314F8011B264846
:10B3D0008DF828100622FAF7DBFE002838D0234B20
:10B3E0001BBB039B073323F0070308330393099B1D
:10B3F0003344099367E70CFB02320C460120A5E7B2
:10B4000000230134059319464FF00A0C204610F82A
:10B41000012B303A092A03D9002BC5D00591C3E787
:10B420000CFB012104460123F0E703AB00932A46FD
:10B430000F4B04A93846FEF7C1F8421C0646D6D188
:10B44000AB895B063FF52CAF09981DB0BDE8F08FC6
:10B4500003AB00932A46064B04A93846FEF746FB89
:10B46000EBE700BF840003088E000308BD950008C9
:10B47000C3B100088A0003087047704782B001B961
:10B4800001A942B14BB113780B601278101E18BF9E
:10B49000012002B070471046FBE76FF00100F8E7AB
:10B4A000884210B501EB020402D98442234607D832
:10B4B000431EA14208D011F8012B03F8012FF8E731
:10B4C000024401468A4200D110BD13F8014D02F832
:10B4D000014DF7E7F8B5074614460E4621B9BDE819
:10B4E000F8401146FDF772BF22B9FDF721FF25464E
:10B4F0002846F8BD00F021F8A0420FD22146384678
:10B50000FDF764FF05460028F2D031462246FDF7DC
:10B51000F9FE31463846FDF70BFFE9E73546E7E728
:10B520000346084641B1FF2A04D98A221A604FF027
:10B53000FF3070470A700120704751F8043C181F13
:10B54000002BBCBF0B58C01870470000044A0549C7
:10B550001368002B08BF0B4618441060184670474C
:10B560007810002010780020FEE700BFFDF7C2BE73
:10B5700008B500F00DF808B5804722F0FDFB00008B
:10B58000024B1868BFF35B8F704700BF600200205A
:10B5900008B5FFF7F5FFFFF7EEFFFCF7EBBCFCF794
:10B5A000E3BC00000D48854621F024F80C480D4905
:10B5B0000D4A002302E0D458C4500433C4188C420E
:10B5C000F9D30A4A0A4C002301E013600432A24274
:10B5D000FBD3FDF763FEFDF7BFFCFEE700FC002098
:10B5E00000000020380E002038330308380E0020F9
:10B5F0001078002000F05AB80368074A934206D139
:10B60000DA69D20606D510221A6201F085BB034A18
:10B610009342F5D0704700BF0080004000380140E1
:10B620004FF0B0434FF0FF319A6B9963DA6BD963F7
:10B630009A6B00229A63D86BDA63186C1964186CE1
:10B640001A64586C5964586C5A64986A9962986A7A
:10B650009A62D86AD962D86ADA62186B1963196B70
:10B660001A635A6C42F001025A645A6C22F00102C9
:10B670005A64D3F8902042F48032C3F89020D3F873
:10B68000902022F48032C3F89020BFF34F8F0549F9
:10B69000054BCA6802F4E0621343CB60BFF34F8FDF
:10B6A00000BFFDE700ED00E00400FA054FF0B043F5
:10B6B0004FF0FF319A6B9963DA6BD9639A6B002272
:10B6C0009A63D86BDA63186C1964186C1A64586C36
:10B6D0005964586C5A64986A9962986A9A62D86AEE
:10B6E000D962D86ADA62186B1963196B1A635A6CDB
:10B6F00042F001025A645A6C22F001025A64D3F8F3
:10B70000902042F48032C3F89020D3F8902022F4A5
:10B710008032C3F89020FEE7FEE7FEE7FEE77047C1
:10B7200070470CF073BA000001480FF0D1BD00BFA4
:10B73000B4630020014810F0AABA00BF686100207D
:10B7400001480FF08DBF00BFB463002001480EF028
:10B7500055B800BFE867002001480EF04FB800BFA1
:10B76000EC63002001480EF049B800BF4C64002093
:10B7700001480EF043B800BFF866002010B5044C35
:10B78000204610F0B1FB2046BDE81040FFF734BF63
:10B7900058670020704701200EF0B8B902200EF063
:10B7A000B5B904200EF0B2B908200EF0AFB91020E0
:10B7B0000EF0ACB90E4BDA68920602D520200EF0DE
:10B7C000A5B9DA68500601D54020F8E7DA68110615
:10B7D00001D58020F3E7DA68D20502D54FF48070F6
:10B7E000EDE7DB689B0502D54FF40070E7E7704793
:10B7F00000080058134BDA68510503D54FF48060F8
:10B800000EF084B9DA68120502D54FF40060F7E74C
:10B81000DA68D00402D54FF48050F1E7DA68910479
:10B8200002D54FF40050EBE7DA68520402D54FF42A
:10B830008040E5E7DB681B0402D54FF40040DFE7FA
:10B84000704700BF0008005810B5044C204610F0A7
:10B850004BFB2046BDE81040FFF7CEBE68660020D7
:10B8600001480EF0F1BA00BF9C65002001480EF0BF
:10B8700072BF00BF9C65002001480DF08BBB00BF6C
:10B88000A86200204FF0B04382B0DA6C0243DA6461
:10B89000DB6C18400190019B02B070471FB5142863
:10B8A0004FF00003CDE902330C460CD8092812D919
:10B8B0000A380A280FD8DFE800F07B0E0E0E0E8241
:10B8C0000E0E74116D00FE2800F08380FF2800F03A
:10B8D0008280FD287AD06FF0030059E03F4A404B48
:10B8E0000193137843F0010313703E483E4A4FF032
:10B8F0000043C0E900233D4B04221B688360426182
:10B9000000230122C2614FF4805106220383C0E963
:10B910000333C0E90933C0E90C12837680F8203084
:10B9200080F82C30836380F83C30C3640CF0BAF9A3
:10B9300008B100F05DFF2B480CF05CFD08B100F091
:10B9400057FF0023274801A9CDE902330CF02CFB57
:10B9500008B100F04DFF23480CF080FC08B100F066
:10B9600047FF0A211F480CF0C1FA1E480CF024FDC5
:10B970001C480CF016FB1E4B019A80B29A422080A4
:10B9800004BF00EB4000208016480CF0C9FC0020EA
:10B9900004B010BD114A174B0193137843F0020312
:10B9A000A2E70E4A144B0193137843F004039BE77C
:10B9B0000A4A124B0193137843F0080394E7074AAD
:10B9C0000F4B0193137843F010038DE70D4B019358
:10B9D0008BE70D4BFBE7064BF9E700BF7C1000201F
:10B9E000040000088461002000240140640200205B
:10B9F000004000B80800000C1000001040000018C3
:10BA00000008002C001000B0002000B47047704700
:10BA1000014B1878704700BF69020020014B18786D
:10BA2000704700BF6802002010B5044686B014229B
:10BA3000002101A8FDF774FC22685E4B9A4240F099
:10BA40008E804FF0B0435C4C1A6E42F400721A665E
:10BA50001B6E03F400730093009B2378DA0708D56C
:10BA6000132000F079FAB0F1904F7AD10120FFF75E
:10BA700009FF23789B0708D5142000F06DFAB0F178
:10BA8000904F76D10120FFF7FDFE2378580708D5A7
:10BA9000122000F061FAB0F1904F72D10120FFF74F
:10BAA000F1FE2378190708D50A2000F055FAB0F105
:10BAB000904F6ED10120FFF7E5FE2378DA0608D516
:10BAC0000F2000F049FAB0F1904F6AD10120FFF742
:10BAD000D9FE00234FF0030CCDE902C32378DB0726
